{
  "address": "0x9fd483519B56Db5201Fe112261F49Fb44E254956",
  "abi": [
    {
      "inputs": [],
      "name": "BONE",
      "outputs": [
        {
          "internalType": "uint256",
          "name": "",
          "type": "uint256"
        }
      ],
      "stateMutability": "view",
      "type": "function"
    },
    {
      "inputs": [],
      "name": "BPOW_PRECISION",
      "outputs": [
        {
          "internalType": "uint256",
          "name": "",
          "type": "uint256"
        }
      ],
      "stateMutability": "view",
      "type": "function"
    },
    {
      "inputs": [],
      "name": "EXIT_FEE",
      "outputs": [
        {
          "internalType": "uint256",
          "name": "",
          "type": "uint256"
        }
      ],
      "stateMutability": "view",
      "type": "function"
    },
    {
      "inputs": [],
      "name": "MAX_BPOW_BASE",
      "outputs": [
        {
          "internalType": "uint256",
          "name": "",
          "type": "uint256"
        }
      ],
      "stateMutability": "view",
      "type": "function"
    },
    {
      "inputs": [],
      "name": "MIN_BPOW_BASE",
      "outputs": [
        {
          "internalType": "uint256",
          "name": "",
          "type": "uint256"
        }
      ],
      "stateMutability": "view",
      "type": "function"
    },
    {
      "inputs": [
        {
          "internalType": "uint256",
          "name": "tokenBalanceIn",
          "type": "uint256"
        },
        {
          "internalType": "uint256",
          "name": "tokenWeightIn",
          "type": "uint256"
        },
        {
          "internalType": "uint256",
          "name": "tokenBalanceOut",
          "type": "uint256"
        },
        {
          "internalType": "uint256",
          "name": "tokenWeightOut",
          "type": "uint256"
        },
        {
          "internalType": "uint256",
          "name": "tokenAmountOut",
          "type": "uint256"
        },
        {
          "internalType": "uint256",
          "name": "swapFee",
          "type": "uint256"
        }
      ],
      "name": "calcInGivenOut",
      "outputs": [
        {
          "internalType": "uint256",
          "name": "tokenAmountIn",
          "type": "uint256"
        }
      ],
      "stateMutability": "pure",
      "type": "function"
    },
    {
      "inputs": [
        {
          "internalType": "uint256",
          "name": "tokenBalanceIn",
          "type": "uint256"
        },
        {
          "internalType": "uint256",
          "name": "tokenWeightIn",
          "type": "uint256"
        },
        {
          "internalType": "uint256",
          "name": "tokenBalanceOut",
          "type": "uint256"
        },
        {
          "internalType": "uint256",
          "name": "tokenWeightOut",
          "type": "uint256"
        },
        {
          "internalType": "uint256",
          "name": "tokenAmountIn",
          "type": "uint256"
        },
        {
          "internalType": "uint256",
          "name": "swapFee",
          "type": "uint256"
        }
      ],
      "name": "calcOutGivenIn",
      "outputs": [
        {
          "internalType": "uint256",
          "name": "tokenAmountOut",
          "type": "uint256"
        }
      ],
      "stateMutability": "pure",
      "type": "function"
    },
    {
      "inputs": [
        {
          "internalType": "uint256",
          "name": "tokenBalanceOut",
          "type": "uint256"
        },
        {
          "internalType": "uint256",
          "name": "tokenWeightOut",
          "type": "uint256"
        },
        {
          "internalType": "uint256",
          "name": "poolSupply",
          "type": "uint256"
        },
        {
          "internalType": "uint256",
          "name": "totalWeight",
          "type": "uint256"
        },
        {
          "internalType": "uint256",
          "name": "tokenAmountOut",
          "type": "uint256"
        },
        {
          "internalType": "uint256",
          "name": "swapFee",
          "type": "uint256"
        }
      ],
      "name": "calcPoolInGivenSingleOut",
      "outputs": [
        {
          "internalType": "uint256",
          "name": "poolAmountIn",
          "type": "uint256"
        }
      ],
      "stateMutability": "pure",
      "type": "function"
    },
    {
      "inputs": [
        {
          "internalType": "uint256",
          "name": "tokenBalanceIn",
          "type": "uint256"
        },
        {
          "internalType": "uint256",
          "name": "tokenWeightIn",
          "type": "uint256"
        },
        {
          "internalType": "uint256",
          "name": "poolSupply",
          "type": "uint256"
        },
        {
          "internalType": "uint256",
          "name": "totalWeight",
          "type": "uint256"
        },
        {
          "internalType": "uint256",
          "name": "tokenAmountIn",
          "type": "uint256"
        },
        {
          "internalType": "uint256",
          "name": "swapFee",
          "type": "uint256"
        }
      ],
      "name": "calcPoolOutGivenSingleIn",
      "outputs": [
        {
          "internalType": "uint256",
          "name": "poolAmountOut",
          "type": "uint256"
        }
      ],
      "stateMutability": "pure",
      "type": "function"
    },
    {
      "inputs": [
        {
          "internalType": "uint256",
          "name": "tokenBalanceIn",
          "type": "uint256"
        },
        {
          "internalType": "uint256",
          "name": "tokenWeightIn",
          "type": "uint256"
        },
        {
          "internalType": "uint256",
          "name": "poolSupply",
          "type": "uint256"
        },
        {
          "internalType": "uint256",
          "name": "totalWeight",
          "type": "uint256"
        },
        {
          "internalType": "uint256",
          "name": "poolAmountOut",
          "type": "uint256"
        },
        {
          "internalType": "uint256",
          "name": "swapFee",
          "type": "uint256"
        }
      ],
      "name": "calcSingleInGivenPoolOut",
      "outputs": [
        {
          "internalType": "uint256",
          "name": "tokenAmountIn",
          "type": "uint256"
        }
      ],
      "stateMutability": "pure",
      "type": "function"
    },
    {
      "inputs": [
        {
          "internalType": "uint256",
          "name": "tokenBalanceOut",
          "type": "uint256"
        },
        {
          "internalType": "uint256",
          "name": "tokenWeightOut",
          "type": "uint256"
        },
        {
          "internalType": "uint256",
          "name": "poolSupply",
          "type": "uint256"
        },
        {
          "internalType": "uint256",
          "name": "totalWeight",
          "type": "uint256"
        },
        {
          "internalType": "uint256",
          "name": "poolAmountIn",
          "type": "uint256"
        },
        {
          "internalType": "uint256",
          "name": "swapFee",
          "type": "uint256"
        }
      ],
      "name": "calcSingleOutGivenPoolIn",
      "outputs": [
        {
          "internalType": "uint256",
          "name": "tokenAmountOut",
          "type": "uint256"
        }
      ],
      "stateMutability": "pure",
      "type": "function"
    },
    {
      "inputs": [
        {
          "internalType": "uint256",
          "name": "tokenBalanceIn",
          "type": "uint256"
        },
        {
          "internalType": "uint256",
          "name": "tokenWeightIn",
          "type": "uint256"
        },
        {
          "internalType": "uint256",
          "name": "tokenBalanceOut",
          "type": "uint256"
        },
        {
          "internalType": "uint256",
          "name": "tokenWeightOut",
          "type": "uint256"
        },
        {
          "internalType": "uint256",
          "name": "swapFee",
          "type": "uint256"
        }
      ],
      "name": "calcSpotPrice",
      "outputs": [
        {
          "internalType": "uint256",
          "name": "spotPrice",
          "type": "uint256"
        }
      ],
      "stateMutability": "pure",
      "type": "function"
    }
  ],
  "transactionHash": "0x08d906b9c9beb64c667695b0e9a7b357c367420d4f3e6fd263e2244f49a41745",
  "args": [],
  "solcInputHash": "cda92d1fbc53948b7a3103318fb3b9a0",
  "bytecode": "0x6141ac610026600b82828239805160001a60731461001957fe5b30600052607381538281f3fe73000000000000000000000000000000000000000030146080604052600436106100ff5760003560e01c8063a221ee49116100a1578063bc694ea211610070578063bc694ea21461020b578063c36596a614610213578063c6580d121461021b578063f8d6aed414610223576100ff565b8063a221ee49146101b0578063a42b5101146101c3578063ba019dab146101f0578063ba9530a6146101f8576100ff565b806381365a4d116100dd57806381365a4d1461015757806382f652ad146101775780638656b6531461018a578063892980121461019d576100ff565b80630c27f9da14610104578063189d00ca146101265780635c1bbaf714610144575b600080fd5b81801561011057600080fd5b5061012461011f366004613aec565b610236565b005b61012e610714565b60405161013b91906140e8565b60405180910390f35b61012e610152366004613d91565b61071c565b81801561016357600080fd5b50610124610172366004613ad4565b6107d6565b61012e610185366004613d91565b610972565b61012e610198366004613d91565b610a31565b61012e6101ab366004613d91565b610ad2565b61012e6101be366004613d57565b610b82565b8180156101cf57600080fd5b506101e36101de366004613b8c565b610be7565b60405161013b9190613e7b565b61012e611d31565b61012e610206366004613d91565b611d36565b61012e611db7565b61012e611dc3565b61012e611dcf565b61012e610231366004613d91565b611dd4565b6001600160a01b0383166000908152600385016020908152604091829020548251808401909352601183527075706461746520666c6f7720726174657360781b918301919091526001600160401b03169061029090611e57565b80156106dd576102c160405180604001604052806009815260200168646f696e67206f6e6560b81b81525082611f00565b60008560020182815481106102d257fe5b600091825260208220600790910201805490925081906001600160a01b03888116911614156103aa57606085015160408087015160018601546001600160a01b0316600090815260208a90529182206003808201546002909201549088015461033b9594611d36565b6001600160a01b0380891660009081526020899052604080822060038082015460029283015460018b01549096168552928420808201549201549089015495975061038c9592949391929091611d36565b6005840154600160c01b90046001600160401b031694509050610455565b82546001600160a01b031660009081526020879052604080822060038082015460029092015460608a0151938a0151918801546103ed9593949193919291611d36565b83546001600160a01b03908116600090815260208990526040808220600380820154600292830154958e168552928420808201549201549089015495975061043b9592949391929091611d36565b6005840154600160401b90046001600160401b0316945090505b60048301546001600160801b03161580159061047d575060048301546001600160801b031681105b806104b957506004830154600160801b90046001600160801b0316158015906104b957506004830154600160801b90046001600160801b031681115b156105db576104ed6040518060400160405280600c81526020016b6f7574206f662072616e676560a01b8152508383611fb2565b604080518082019091526005815264726174657360d81b6020820152600484015461052c91906001600160801b0380821691600160801b900416611fb2565b60068301546001600160401b0316156105d357610573604051806040016040528060138152602001727374617274696e67206465616374697661746560681b815250611e57565b60018301546002840154610596918a916001600160a01b0391821691168561206d565b8254600284015460038501546105bf928b926001600160a01b03918216929116906000906123ea565b60068301805467ffffffffffffffff191690555b505050610290565b60068301546001600160401b031661068757610621604051806040016040528060138152602001727374617274696e67207265616374697661746560681b815250611e57565b825460028401546003850154610647928b926001600160a01b039182169291169061206d565b6001830154600284015461066c918a916001600160a01b0391821691166000856123ea565b60068301805467ffffffffffffffff191660011790556105d3565b6106b96040518060400160405280600f81526020016e6368616e6765206f7574207261746560881b8152508383611fb2565b600183015460028401546105d3918a916001600160a01b03918216911685856123ea565b61070d6040518060400160405280600f81526020016e66696e69736865642075706461746560881b815250611e57565b5050505050565b6305f5e10081565b60008061072987866125e1565b905060006107378786612682565b9050600061074582896125e1565b9050600061075b670de0b6b3a7640000856125e1565b9050600061076983836126ae565b90506000610777828e612761565b90506000610785828f6127d3565b905060006107a461079e670de0b6b3a76400008a6127d3565b8b612761565b90506107c1826107bc670de0b6b3a7640000846127d3565b6125e1565b985050505050505050505b9695505050505050565b604080516101808101825260008082526020808301828152938301828152606084018381526080850184815260a0860185815260c0870186815260e0880187815261010089018881526101208a018981526101408b018a81526101608c018b815260029e8f01805460018181018355918e529b909c209c516007909b02909c0180546001600160a01b039b8c166001600160a01b03199182161782559d519b810180549c8c169c8f169c909c17909b5597519c8a0180549d9099169c909b169b909b1790965592516003870155905160048601805492516001600160801b03908116600160801b9081029382166001600160801b0319909516949094171691909117905590516005850180549451985197516001600160401b03908116600160c01b026001600160c01b0399821690940267ffffffffffffffff60801b199a8216600160401b90810267ffffffffffffffff60401b1995841667ffffffffffffffff19998a16178616179b909b161798909816929092179091559051600690930180549451861690960292909416921691909117909116179055565b60008061097f87866125e1565b90506000610995670de0b6b3a7640000836127d3565b905060006109a38286612761565b905060006109bd876107bc670de0b6b3a7640000856127d3565b905060006109cb8c836127d3565b905060006109d9828e6125e1565b905060006109e782886126ae565b905060006109f5828e612761565b90506000610a038e836127d3565b9050610a1c816107bc670de0b6b3a764000060006127d3565b99505050505050505050509695505050505050565b600080610a3e87866125e1565b90506000610a5d610a57670de0b6b3a7640000846127d3565b85612761565b90506000610a7c86610a77670de0b6b3a7640000856127d3565b612761565b90506000610a8a8b83612682565b90506000610a98828d6125e1565b90506000610aa682876126ae565b90506000610ab4828d612761565b9050610ac0818d6127d3565b9e9d5050505050505050505050505050565b600080610adf87866125e1565b90506000610afa85610a77670de0b6b3a764000060006127d3565b90506000610b0888836127d3565b90506000610b16828a6125e1565b90506000610b3582610b30670de0b6b3a7640000886125e1565b6126ae565b90506000610b43828e612761565b90506000610b518e836127d3565b90506000610b6a61079e670de0b6b3a76400008a6127d3565b90506107c182610a77670de0b6b3a7640000846127d3565b600080610b8f87876125e1565b90506000610b9d86866125e1565b90506000610bab83836125e1565b90506000610bcd670de0b6b3a76400006107bc670de0b6b3a7640000896127d3565b9050610bd98282612761565b9a9950505050505050505050565b8354604051631fb6491d60e11b81526060916000916001600160a01b0390911690633f6c923a90610c1c908790600401613e7b565b60006040518083038186803b158015610c3457600080fd5b505afa158015610c48573d6000803e3d6000fd5b505050506040513d6000823e601f3d908101601f19168201604052610c709190810190613c22565b90506000610c818260a0015161280c565b9050610cc36040518060400160405280601781526020017f73747265616d73776170617267733a206465636f6465640000000000000000008152508251611f00565b60408051808201825260608401516001600160a01b03908116600090815260048b016020908152848220928b168252918252838120546001600160401b031683528183018190528351808501909452600f84526e666f756e64206578697374696e673f60881b9184019190915291610d4c9083838160200201516001600160401b031611612910565b60005b83518110156116fa576000848281518110610d6657fe5b60200260200101516020015111610d985760405162461bcd60e51b8152600401610d8f90614037565b60405180910390fd5b838181518110610da457fe5b60200260200101516020015183019250600060405180608001604052808960008d6001600160a01b03166001600160a01b031681526020019081526020016000206003015481526020018960008d6001600160a01b03166001600160a01b03168152602001908152602001600020600201548152602001896000888681518110610e2a57fe5b6020026020010151600001516001600160a01b03166001600160a01b03168152602001908152602001600020600301548152602001896000888681518110610e6e57fe5b6020026020010151600001516001600160a01b03166001600160a01b03168152602001908152602001600020600201548152509050610ee060405180604001604052806012815260200171676f742073757065722062616c616e63657360701b81525082600001518360400151611fb2565b82516001600160401b03161561125b57825160028c0180546000926001600160401b0316908110610f0d57fe5b9060005260206000209060070201905060006040518061018001604052808d6001600160a01b03168152602001888681518110610f4657fe5b6020026020010151600001516001600160a01b0316815260200189606001516001600160a01b03168152602001888681518110610f7f57fe5b6020026020010151602001518152602001888681518110610f9c57fe5b6020026020010151604001516001600160801b03168152602001888681518110610fc257fe5b6020908102919091018101516060908101516001600160801b0316835260009183018290526040830182905282018190526080820181905260068501546001600160401b031660a083015260c09091015290506110238d8d8d8486886129c0565b60018301548851919c506001600160a01b03169088908690811061104357fe5b6020026020010151600001516001600160a01b03161461117a5760018201546005830154611098918f916001600160a01b03909116906001600160401b03600160801b8204811691600160401b900416612d85565b8684815181106110a457fe5b6020026020010151600001518260010160006101000a8154816001600160a01b0302191690836001600160a01b0316021790555060008d60030160008987815181106110ec57fe5b6020026020010151600001516001600160a01b03166001600160a01b0316815260200190815260200160002060009054906101000a90046001600160401b031690506111528e89878151811061113e57fe5b602090810291909101015151885184612d85565b6111788e89878151811061116257fe5b6020908102919091010151518851600090612d85565b505b86848151811061118657fe5b60200260200101516020015182600301819055508684815181106111a657fe5b6020026020010151604001518260040160006101000a8154816001600160801b0302191690836001600160801b031602179055508684815181106111e657fe5b602090810291909101810151606001516004840180546001600160801b03908116600160801b919093160291909117905561014091909101516006909201805467ffffffffffffffff19166001600160401b0393841617908190558551831691860191909152600160401b90041683526116f1565b60006040518061018001604052808c6001600160a01b0316815260200187858151811061128457fe5b6020026020010151600001516001600160a01b0316815260200188606001516001600160a01b031681526020018785815181106112bd57fe5b60200260200101516020015181526020018785815181106112da57fe5b6020026020010151604001516001600160801b0316815260200187858151811061130057fe5b6020026020010151606001516001600160801b0316815260200160006001600160401b031681526020018d600301600089878151811061133c57fe5b6020026020010151600001516001600160a01b03166001600160a01b0316815260200190815260200160002060009054906101000a90046001600160401b03166001600160401b0316815260200160006001600160401b031681526020018d60030160008e6001600160a01b03166001600160a01b0316815260200190815260200160002060009054906101000a90046001600160401b03166001600160401b0316815260200160016001600160401b0316815260200160006001600160401b0316815250905060008c60020160008154811061141557fe5b906000526020600020906007020190506114338d8d8d8585886129c0565b60028e810180546001808201835560008381526020808220895160079095020180546001600160a01b03199081166001600160a01b03968716178255918a01518185018054841691871691909117905560408a01519681018054909216969094169590951790945560608701516003830155608087015160048301805460a08a01516001600160801b03199091166001600160801b03938416178316600160801b93909116830217905560c088015160058401805460e08b01516101008c01516101208d015167ffffffffffffffff199384166001600160401b039687161767ffffffffffffffff60401b19908116600160401b94881685021767ffffffffffffffff60801b1916928716909702919091176001600160c01b0316600160c01b91861691909102179092556101408b0151600690960180546101608d01519216968416969096179093169290911602179091559054929d506000199290920191879060200201516001600160401b03161115611603578060028f0187600160200201516001600160401b0316815481106115c957fe5b906000526020600020906007020160060160086101000a8154816001600160401b0302191690836001600160401b03160217905550611677565b808e60040160008b606001516001600160a01b03166001600160a01b0316815260200190815260200160002060008f6001600160a01b03166001600160a01b0316815260200190815260200160002060006101000a8154816001600160401b0302191690836001600160401b031602179055505b6116888e8e83866101200151612d85565b6116958e8e600084612d85565b6116bc8e8987815181106116a557fe5b602002602001015160000151838660e00151612d85565b6116e08e8987815181106116cc57fe5b602002602001015160000151600084612d85565b6001600160401b0316602086015250505b50600101610d4f565b5061173260405180604001604052806016815260200175646f6e652077697468206578697374696e672069647360501b815250611e57565b80516001600160401b031615611c4657611766604051806040016040528060038152602001620706f760ec1b815250611e57565b805160028a0180546000926001600160401b031690811061178357fe5b90600052602060002090600702019050600060405180608001604052808960008d6001600160a01b03166001600160a01b031681526020019081526020016000206003015481526020018960008d6001600160a01b03166001600160a01b031681526020019081526020016000206002015481526020018960008560010160009054906101000a90046001600160a01b03166001600160a01b03166001600160a01b031681526020019081526020016000206003015481526020018960008560010160009054906101000a90046001600160a01b03166001600160a01b03166001600160a01b0316815260200190815260200160002060020154815250905061196c8b8b8b8e60020160008154811061189857fe5b60009182526020918290206040805161018081018252600790930290910180546001600160a01b03908116845260018201548116948401949094526002810154909316908201526003820154606082015260048201546001600160801b038082166080840152600160801b918290041660a083015260058301546001600160401b0380821660c0850152600160401b808304821660e08601529282048116610100850152600160c01b90910481166101208401526006909301548084166101408401520490911661016082015286866129c0565b6005830154909950611995908c908c906001600160401b0380821691600160c01b900416612d85565b600182015460058301546119d0918d916001600160a01b03909116906001600160401b03600160801b8204811691600160401b900416612d85565b600682015460028c018054600160401b9092046001600160401b0316916000906119f657fe5b90600052602060002090600702018c60020185600060028110611a1557fe5b60200201516001600160401b031681548110611a2d57fe5b600091825260208220835460079092020180546001600160a01b03199081166001600160a01b039384161782556001808601548184018054841691861691909117905560028087015490840180549093169416939093179055600380850154908201556004808501805491830180546001600160801b0319166001600160801b03938416178082559154600160801b90819004841681029290931691909117905560058086018054918401805467ffffffffffffffff199081166001600160401b03948516178083558354600160401b908190048616810267ffffffffffffffff60401b19928316178085558554889004871690970267ffffffffffffffff60801b19909716969096178084559354600160c01b908190048616026001600160c01b03909416939093179091556006978801805498909501805490911697831697909717808855935483900490911690910291161790925590859060200201516001600160401b03161115611bf757600060028d0185600160200201516001600160401b031681548110611bbd57fe5b906000526020600020906007020160060160086101000a8154816001600160401b0302191690836001600160401b03160217905550611c33565b60608701516001600160a01b03908116600090815260048e0160209081526040808320938f16835292905220805467ffffffffffffffff191690555b6001600160401b03168352506117329050565b611c726040518060400160405280600b81526020016a66696e616c20636865636b60a81b815250611e57565b60018901546060850151604051631cd43d1160e31b81526000926001600160a01b03169163e6a1e88891611cac918d913090600401613f15565b60806040518083038186803b158015611cc457600080fd5b505afa158015611cd8573d6000803e3d6000fd5b505050506040513d601f19601f82011682018060405250810190611cfc9190613d15565b505091505080600b0b8314611d235760405162461bcd60e51b8152600401610d8f90613f65565b509598975050505050505050565b600181565b600080611d4387866125e1565b90506000611d59670de0b6b3a7640000856127d3565b9050611d658582612761565b90506000611d778a6107bc8c85612682565b90506000611d8582856126ae565b90506000611d9b670de0b6b3a7640000836127d3565b9050611da78a82612761565b9c9b505050505050505050505050565b671bc16d674ec7ffff81565b670de0b6b3a764000081565b600081565b600080611de185886125e1565b90506000611def87866127d3565b90506000611dfd88836125e1565b90506000611e0b82856126ae565b9050611e1f81670de0b6b3a76400006127d3565b9050611e33670de0b6b3a7640000876127d3565b9450611e48611e428c83612761565b866125e1565b9b9a5050505050505050505050565b611efd816040516024018080602001828103825283818151815260200191508051906020019080838360005b83811015611e9b578181015183820152602001611e83565b50505050905090810190601f168015611ec85780820380516001836020036101000a031916815260200191505b5060408051601f198184030181529190526020810180516001600160e01b031663104c13eb60e21b1790529250612f99915050565b50565b611fae82826040516024018080602001838152602001828103825284818151815260200191508051906020019080838360005b83811015611f4b578181015183820152602001611f33565b50505050905090810190601f168015611f785780820380516001836020036101000a031916815260200191505b5060408051601f198184030181529190526020810180516001600160e01b03166309710a9d60e41b1790529350612f9992505050565b5050565b6120688383836040516024018080602001848152602001838152602001828103825285818151815260200191508051906020019080838360005b83811015612004578181015183820152602001611fec565b50505050905090810190601f1680156120315780820380516001836020036101000a031916815260200191505b5060408051601f198184030181529190526020810180516001600160e01b031663969cdd0360e01b1790529450612f999350505050565b505050565b6001600160a01b038316158015906120855750600081115b156123e4576001840154604051631cd43d1160e31b81526000916001600160a01b03169063e6a1e888906120c190879030908890600401613f15565b60806040518083038186803b1580156120d957600080fd5b505afa1580156120ed573d6000803e3d6000fd5b505050506040513d601f19601f820116820180604052508101906121119190613d15565b505091505061215060405180604001604052806013815260200172676f74207072657620746f6b656e20666c6f7760681b8152508583600b0b85612fba565b8181600b0b10156121735760405162461bcd60e51b8152600401610d8f90613f38565b8181600b0b14156122c3576121b36040518060400160405280601481526020017372656d6f76652070726576696f757320666c6f7760601b815250611e57565b845460018601546040805160008152602081019091526001600160a01b03928316926339255d5b921690635a5999e360e11b906121f990899030908a9060448101613e14565b60408051601f198184030181529181526020820180516001600160e01b03166001600160e01b03199485161790525160e085901b909216825261223f9291600401613e8e565b600060405180830381600087803b15801561225957600080fd5b505af115801561226d573d6000803e3d6000fd5b505050506040513d6000823e601f3d908101601f191682016040526122959190810190613a42565b506122be604051806040016040528060078152602001661c995b5bdd995960ca1b815250611e57565b61070d565b6122f860405180604001604052806014815260200173736872696e6b2070726576696f757320666c6f7760601b815250611e57565b845460018601546040805160008152602081019091526001600160a01b03928316926339255d5b9216906328104d3160e11b906123459089908990600b89900b8a90039060448101613e48565b60408051601f198184030181529181526020820180516001600160e01b03166001600160e01b03199485161790525160e085901b909216825261238b9291600401613e8e565b600060405180830381600087803b1580156123a557600080fd5b505af11580156123b9573d6000803e3d6000fd5b505050506040513d6000823e601f3d908101601f191682016040526123e19190810190613a42565b50505b50505050565b6001600160a01b038416158015906124025750808214155b1561070d576001850154604051631cd43d1160e31b81526000916001600160a01b03169063e6a1e8889061243e90889030908990600401613f15565b60806040518083038186803b15801561245657600080fd5b505afa15801561246a573d6000803e3d6000fd5b505050506040513d601f19601f8201168201806040525081019061248e9190613d15565b50509150506124d76040518060400160405280601b81526020017f6e6f20636f6e746578742061646a757374207472616465206f7574000000000081525082600b0b8486613081565b855460018701546001600160a01b03918216916339255d5b9116600b84900b15612508576328104d3160e11b612511565b63317e182f60e11b5b60408051600081526020810190915261253c908a908a90600b89900b8a018b90039060448101613e48565b60408051601f198184030181529181526020820180516001600160e01b03166001600160e01b03199485161790525160e085901b90921682526125829291600401613e8e565b600060405180830381600087803b15801561259c57600080fd5b505af11580156125b0573d6000803e3d6000fd5b505050506040513d6000823e601f3d908101601f191682016040526125d89190810190613a42565b50505050505050565b6000816126005760405162461bcd60e51b8152600401610d8f90613fe2565b670de0b6b3a764000083028315806126285750670de0b6b3a764000084828161262557fe5b04145b6126445760405162461bcd60e51b8152600401610d8f90613f8e565b6002830481018181101561266a5760405162461bcd60e51b8152600401610d8f90613f8e565b600084828161267557fe5b0493505050505b92915050565b6000828201838110156126a75760405162461bcd60e51b8152600401610d8f9061408e565b9392505050565b600060018310156126d15760405162461bcd60e51b8152600401610d8f90614008565b671bc16d674ec7ffff8311156126f95760405162461bcd60e51b8152600401610d8f906140b8565b60006127048361313f565b9050600061271284836127d3565b90506000612728866127238561315a565b613168565b90508161273957925061267c915050565b600061274a87846305f5e1006131bf565b90506127568282612761565b979650505050505050565b600082820283158061277b57508284828161277857fe5b04145b6127975760405162461bcd60e51b8152600401610d8f90613fb8565b6706f05b59d3b200008101818110156127c25760405162461bcd60e51b8152600401610d8f90613fb8565b6000670de0b6b3a764000082612675565b60008060006127e2858561329d565b9150915080156128045760405162461bcd60e51b8152600401610d8f90614063565b509392505050565b6060815160001415612851576040805160008082526020820190925290612849565b612836613899565b81526020019060019003908161282e5790505b50905061290b565b60008280602001905181019061286791906139aa565b9050600081516001600160401b038111801561288257600080fd5b506040519080825280602002602001820160405280156128bc57816020015b6128a9613899565b8152602001906001900390816128a15790505b50905060005b8251811015612906576128e78382815181106128da57fe5b60200260200101516132c2565b8282815181106128f357fe5b60209081029190910101526001016128c2565b509150505b919050565b611fae828260405160240180806020018315158152602001828103825284818151815260200191508051906020019080838360005b8381101561295d578181015183820152602001612945565b50505050905090810190601f16801561298a5780820380516001836020036101000a031916815260200191505b5060408051601f198184030181529190526020810180516001600160e01b031663c3b5563560e01b1790529350612f9992505050565b60018201546060906001600160a01b03161580156129e9575060208401516001600160a01b0316155b156129f55750836107cc565b6040805180820182526005815264737461746560d81b6020820152835191840151612a209290611fb2565b600080846003015411612a34576000612a57565b612a57836000015184602001518560400151866060015188600301546000611d36565b9050600080866060015111612a6d576000612a90565b612a9084600001518560200151866040015187606001518a606001516000611d36565b905085608001516001600160801b0316600014158015612abc575085608001516001600160801b031681105b80612aea575060a08601516001600160801b031615801590612aea57508560a001516001600160801b031681115b15612c4257612b1e6040518060400160405280600c81526020016b6f7574206f662072616e676560a01b8152508383611fb2565b612b6060405180604001604052806005815260200164726174657360d81b81525087608001516001600160801b03168860a001516001600160801b0316611fb2565b85606001518560030154141580612b83575060068501546001600160401b031615155b15612c3857612bba604051806040016040528060118152602001707374617274696e6720696e61637469766560781b815250611e57565b60068501546001600160401b031615612bf55760018501546002860154612bf2918b918a916001600160a01b03908116911686613309565b96505b855160408701516006870154612c2d928c928b926001600160401b0316612c20578960030154612c23565b60005b8b60600151613697565b600061014088015296505b86925050506107cc565b60068501546001600160401b0316612cc057612c88604051806040016040528060138152602001727374617274696e67207265616374697661746560681b815250611e57565b845460028601546003870154612cb1928c928b926001600160a01b039283169290911690613309565b60016101408801529650600091505b602086015160018601546001600160a01b03908116911614612d4f57612d0a6040518060400160405280600d81526020016c646f696e67207265706c61636560981b815250611e57565b60018501546002860154612d2f918b918a916001600160a01b03908116911686613309565b9650612d48898888602001518960400151600086613697565b9650612d78565b60018501546002860154612d75918b918a916001600160a01b0390811691168686613697565b96505b5094979650505050505050565b6001600160401b038216612dcc576001600160a01b03831660009081526003850160205260409020805467ffffffffffffffff19166001600160401b0383161790556123e4565b826001600160a01b031684600201836001600160401b031681548110612dee57fe5b60009182526020909120600790910201546001600160a01b03161415612e61578084600201836001600160401b031681548110612e2757fe5b906000526020600020906007020160050160186101000a8154816001600160401b0302191690836001600160401b03160217905550612eb0565b8084600201836001600160401b031681548110612e7a57fe5b906000526020600020906007020160050160086101000a8154816001600160401b0302191690836001600160401b031602179055505b826001600160a01b031684600201826001600160401b031681548110612ed257fe5b60009182526020909120600790910201546001600160a01b03161415612f45578184600201826001600160401b031681548110612f0b57fe5b906000526020600020906007020160050160006101000a8154816001600160401b0302191690836001600160401b031602179055506123e4565b8184600201826001600160401b031681548110612f5e57fe5b906000526020600020906007020160050160106101000a8154816001600160401b0302191690836001600160401b0316021790555050505050565b80516a636f6e736f6c652e6c6f67602083016000808483855afa5050505050565b6123e4848484846040516024018080602001856001600160a01b03168152602001848152602001838152602001828103825286818151815260200191508051906020019080838360005b8381101561301c578181015183820152602001613004565b50505050905090810190601f1680156130495780820380516001836020036101000a031916815260200191505b5060408051601f198184030181529190526020810180516001600160e01b031663daa394bd60e01b1790529550612f99945050505050565b6123e4848484846040516024018080602001858152602001848152602001838152602001828103825286818151815260200191508051906020019080838360005b838110156130da5781810151838201526020016130c2565b50505050905090810190601f1680156131075780820380516001836020036101000a031916815260200191505b5060408051601f198184030181529190526020810180516001600160e01b03166304772b3360e11b1790529550612f99945050505050565b6000670de0b6b3a76400006131538361315a565b0292915050565b670de0b6b3a7640000900490565b6000806002830661318157670de0b6b3a7640000613183565b835b90506002830492505b82156126a75761319c8485612761565b935060028306156131b4576131b18185612761565b90505b60028304925061318c565b60008281806131d687670de0b6b3a764000061329d565b9092509050670de0b6b3a764000080600060015b88841061328e576000670de0b6b3a76400008202905060008061321e8a61321985670de0b6b3a76400006127d3565b61329d565b9150915061323087610a77848c612761565b965061323c87846125e1565b96508661324b5750505061328e565b8715613255579315935b801561325f579315935b84156132765761326f86886127d3565b9550613283565b6132808688612682565b95505b5050506001016131ea565b50909998505050505050505050565b6000808284106132b357505080820360006132bb565b505081810360015b9250929050565b6132ca613899565b818060200190518101906132de919061395b565b6001600160801b03908116606086015216604084015260208301526001600160a01b03168152919050565b60606001600160a01b038416158015906133235750600082115b1561368d576001860154604051631cd43d1160e31b81526000916001600160a01b03169063e6a1e8889061335f90889030908990600401613f15565b60806040518083038186803b15801561337757600080fd5b505afa15801561338b573d6000803e3d6000fd5b505050506040513d601f19601f820116820180604052508101906133af9190613d15565b50509150506133ee60405180604001604052806013815260200172676f74207072657620746f6b656e20666c6f7760681b8152508683600b0b86612fba565b8281600b0b10156134115760405162461bcd60e51b8152600401610d8f90613f38565b8281600b0b1415613567576134516040518060400160405280601481526020017372656d6f76652070726576696f757320666c6f7760601b815250611e57565b865460018801546040805160008152602081019091526001600160a01b0392831692634329d293921690635a5999e360e11b90613497908a9030908b9060448101613e14565b60408051601f198184030181529181526020820180516001600160e01b03166001600160e01b03199485161790525160e085901b90921682526134df92918b90600401613ecc565b600060405180830381600087803b1580156134f957600080fd5b505af115801561350d573d6000803e3d6000fd5b505050506040513d6000823e601f3d908101601f191682016040526135359190810190613a74565b5080965050613562604051806040016040528060078152602001661c995b5bdd995960ca1b815250611e57565b61368b565b61359c60405180604001604052806014815260200173736872696e6b2070726576696f757320666c6f7760601b815250611e57565b865460018801546040805160008152602081019091526001600160a01b0392831692634329d2939216906328104d3160e11b906135e9908a908a90600b89900b8b90039060448101613e48565b60408051601f198184030181529181526020820180516001600160e01b03166001600160e01b03199485161790525160e085901b909216825261363192918b90600401613ecc565b600060405180830381600087803b15801561364b57600080fd5b505af115801561365f573d6000803e3d6000fd5b505050506040513d6000823e601f3d908101601f191682016040526136879190810190613a74565b5095505b505b5092949350505050565b60606001600160a01b038516158015906136b15750818314155b1561388e576001870154604051631cd43d1160e31b81526000916001600160a01b03169063e6a1e888906136ed90899030908a90600401613f15565b60806040518083038186803b15801561370557600080fd5b505afa158015613719573d6000803e3d6000fd5b505050506040513d601f19601f8201168201806040525081019061373d9190613d15565b50509150506137866040518060400160405280601d81526020017f7769746820636f6e746578742061646a757374207472616465206f757400000081525082600b0b8686613081565b875460018901546001600160a01b0391821691634329d2939116600b84900b156137b7576328104d3160e11b6137c0565b63317e182f60e11b5b6040805160008152602081019091526137eb908b908b90600b89900b8b018c90039060448101613e48565b60408051601f198184030181529181526020820180516001600160e01b03166001600160e01b03199485161790525160e085901b909216825261383392918c90600401613ecc565b600060405180830381600087803b15801561384d57600080fd5b505af1158015613861573d6000803e3d6000fd5b505050506040513d6000823e601f3d908101601f191682016040526138899190810190613a74565b509650505b509395945050505050565b60408051608081018252600080825260208201819052918101829052606081019190915290565b805161290b81614161565b80516001600160e01b03198116811461290b57600080fd5b600082601f8301126138f3578081fd5b815161390661390182614114565b6140f1565b81815284602083860101111561391a578283fd5b61392b826020830160208701614135565b949350505050565b80516001600160801b038116811461290b57600080fd5b805160ff8116811461290b57600080fd5b60008060008060808587031215613970578384fd5b845161397b81614161565b6020860151909450925061399160408601613933565b915061399f60608601613933565b905092959194509250565b600060208083850312156139bc578182fd5b82516001600160401b03808211156139d2578384fd5b818501915085601f8301126139e5578384fd5b8151818111156139f157fe5b6139fe84858302016140f1565b8181528481019250838501865b83811015613a3457613a228a8884518901016138e3565b85529386019390860190600101613a0b565b509098975050505050505050565b600060208284031215613a53578081fd5b81516001600160401b03811115613a68578182fd5b61392b848285016138e3565b60008060408385031215613a86578182fd5b82516001600160401b0380821115613a9c578384fd5b613aa8868387016138e3565b93506020850151915080821115613abd578283fd5b50613aca858286016138e3565b9150509250929050565b600060208284031215613ae5578081fd5b5035919050565b60008060008084860360e0811215613b02578283fd5b853594506020860135613b1481614161565b9350604086013592506080605f1982011215613b2e578182fd5b50604051608081018181106001600160401b0382111715613b4b57fe5b60405260608601358015158114613b60578283fd5b81526080860135602082015260a0860135604082015260c0909501356060860152509194909350909190565b60008060008060808587031215613ba1578182fd5b843593506020850135613bb381614161565b925060408501356001600160401b03811115613bcd578283fd5b8501601f81018713613bdd578283fd5b8035613beb61390182614114565b818152886020838501011115613bff578485fd5b816020840160208301379081016020019390935250929591945092606001359150565b600060208284031215613c33578081fd5b81516001600160401b0380821115613c49578283fd5b8184019150610140808387031215613c5f578384fd5b613c68816140f1565b9050613c738361394a565b8152613c816020840161394a565b602082015260408301516040820152613c9c606084016138c0565b6060820152613cad608084016138cb565b608082015260a083015182811115613cc3578485fd5b613ccf878286016138e3565b60a08301525060c083015160c082015260e083015160e0820152610100915081830151828201526101209150613d068284016138c0565b91810191909152949350505050565b60008060008060808587031215613d2a578182fd5b84519350602085015180600b0b8114613d41578283fd5b6040860151606090960151949790965092505050565b600080600080600060a08688031215613d6e578283fd5b505083359560208501359550604085013594606081013594506080013592509050565b60008060008060008060c08789031215613da9578384fd5b505084359660208601359650604086013595606081013595506080810135945060a0013592509050565b60008151808452613deb816020860160208601614135565b601f01601f19169290920160200192915050565b6002815261060f60f31b602082015260400190565b6001600160a01b0385811682528481166020830152831660408201526080606082018190526000906107cc90830184613dd3565b6001600160a01b03858116825284166020820152604081018390526080606082018190526000906107cc90830184613dd3565b6000602082526126a76020830184613dd3565b6001600160a01b0383168152606060208201819052600090613eb290830184613dd3565b8281036040840152613ec381613dff565b95945050505050565b6001600160a01b0384168152608060208201819052600090613ef090830185613dd3565b8281036040840152613f0181613dff565b905082810360608401526107cc8185613dd3565b6001600160a01b0393841681529183166020830152909116604082015260600190565b6020808252601390820152724552525f494d504f535349424c455f5241544560681b604082015260600190565b6020808252600f908201526e4552525f494e56414c49445f53554d60881b604082015260600190565b60208082526010908201526f11549497d1125597d25395115493905360821b604082015260600190565b60208082526010908201526f4552525f4d554c5f4f564552464c4f5760801b604082015260600190565b6020808252600c908201526b4552525f4449565f5a45524f60a01b604082015260600190565b6020808252601590820152744552525f42504f575f424153455f544f4f5f4c4f5760581b604082015260600190565b60208082526012908201527111549497d253959053125117d05353d5539560721b604082015260600190565b6020808252601190820152704552525f5355425f554e444552464c4f5760781b604082015260600190565b60208082526010908201526f4552525f4144445f4f564552464c4f5760801b604082015260600190565b60208082526016908201527508aa4a4be84a09eaebe8482a68abea89e9ebe90928e960531b604082015260600190565b90815260200190565b6040518181016001600160401b038111828210171561410c57fe5b604052919050565b60006001600160401b0382111561412757fe5b50601f01601f191660200190565b60005b83811015614150578181015183820152602001614138565b838111156123e45750506000910152565b6001600160a01b0381168114611efd57600080fdfea2646970667358221220e906d0149056ec1ff3b5fb0aa2fa02f0d736406db5fa2626d7890904279728d364736f6c63430007060033",
  "devdoc": {
    "kind": "dev",
    "methods": {},
    "version": 1
  },
  "userdoc": {
    "kind": "user",
    "methods": {},
    "version": 1
  },
  "storageLayout": {
    "storage": [],
    "types": null
  }
}