{
  "address": "0x96aEf616D5f1F238bb2021D0C0fF5930EbC20aE1",
  "abi": [
    {
      "inputs": [
        {
          "internalType": "contract ISuperfluid",
          "name": "host",
          "type": "address"
        },
        {
          "internalType": "contract IConstantFlowAgreementV1",
          "name": "cfa",
          "type": "address"
        }
      ],
      "name": "create",
      "outputs": [
        {
          "internalType": "contract StreamSwapPool",
          "name": "",
          "type": "address"
        }
      ],
      "stateMutability": "nonpayable",
      "type": "function"
    }
  ],
  "transactionHash": "0x7b96aa9a28f8ece0fe79ab9d5d6e0f34de7892cccf985ea93eace5113ff27ac1",
  "args": [],
  "solcInputHash": "4273277d1a0698b3d28b34fed26934dd",
  "bytecode": "0x608060405234801561001057600080fd5b50615dd7806100206000396000f3fe608060405234801561001057600080fd5b506004361061002b5760003560e01c80633e68680a14610030575b600080fd5b61005e6004803603604081101561004657600080fd5b506001600160a01b038135811691602001351661007a565b604080516001600160a01b039092168252519081900360200190f35b600080838360405161008b90610130565b6001600160a01b03928316815291166020820152604080519182900301906000f0801580156100be573d6000803e3d6000fd5b509050806001600160a01b03166392eefe9b336040518263ffffffff1660e01b815260040180826001600160a01b03168152602001915050600060405180830381600087803b15801561011057600080fd5b505af1158015610124573d6000803e3d6000fd5b50929695505050505050565b615c648061013e8339019056fe60c0604052601360808190527f42616c616e63657220506f6f6c20546f6b656e0000000000000000000000000060a09081526200004091600391906200025a565b506040805180820190915260038082526210941560ea1b60209092019182526200006d916004916200025a565b506005805460ff191660121790553480156200008857600080fd5b5060405162005c6438038062005c64833981016040819052620000ab9162000306565b6001600160a01b038216620000dd5760405162461bcd60e51b8152600401620000d4906200037b565b60405180910390fd5b6001600160a01b038116620001065760405162461bcd60e51b8152600401620000d49062000344565b6040516315a722b960e31b8152641500000001906001600160a01b0384169063ad3915c8906200013b908490600401620003b2565b600060405180830381600087803b1580156200015657600080fd5b505af11580156200016b573d6000803e3d6000fd5b5050600d80546001600160a01b038088166001600160a01b0319928316178355600e8054918816919092161790556040516381365a4d60e01b8152735072E905d7dDE866328bFa0ed3ec46d1b0FcbF6E93506381365a4d9250620001d39190600401620003b2565b60006040518083038186803b158015620001ec57600080fd5b505af415801562000201573d6000803e3d6000fd5b5050600680546005805462010000600160b01b031916336201000081029190911790915564e8d4a510006007556001600160a01b03199091161760ff60a01b1916905550506008805460ff1916905550620003d4915050565b828054600181600116156101000203166002900490600052602060002090601f016020900481019282620002925760008555620002dd565b82601f10620002ad57805160ff1916838001178555620002dd565b82800160010185558215620002dd579182015b82811115620002dd578251825591602001919060010190620002c0565b50620002eb929150620002ef565b5090565b5b80821115620002eb5760008155600101620002f0565b6000806040838503121562000319578182fd5b82516200032681620003bb565b60208401519092506200033981620003bb565b809150509250929050565b60208082526013908201527f636661206973207a65726f206164647265737300000000000000000000000000604082015260600190565b60208082526014908201527f686f7374206973207a65726f2061646472657373000000000000000000000000604082015260600190565b90815260200190565b6001600160a01b0381168114620003d157600080fd5b50565b61588080620003e46000396000f3fe608060405234801561001057600080fd5b50600436106103c55760003560e01c8063884d1f40116101ff578063be3bbd2e1161011a578063d86ed3e5116100ad578063ec0930211161007c578063ec0930211461074e578063f1b8a9b714610756578063f8b2cb4f14610769578063fde924f71461077c576103c5565b8063d86ed3e514610715578063dd62ed3e14610728578063e4a28a5214610428578063e4e1e5381461073b576103c5565b8063cd2ed8fb116100e9578063cd2ed8fb146106df578063cf5e7bd3146106e7578063d4cadf68146106fa578063d73dd62314610702576103c5565b8063be3bbd2e146106ba578063c36596a614610466578063c6580d12146106cf578063cc77828d146106d7576103c5565b80639a86139b11610192578063b7b800a411610161578063b7b800a41461069a578063ba019dab146106a2578063bc063e1a146106aa578063bc694ea2146106b2576103c5565b80639a86139b14610664578063a9059cbb1461066c578063b02f0b731461067f578063b0e0d13614610692576103c5565b80639381cd2b116101ce5780639381cd2b14610639578063948d8ce61461064157806395d89b4114610654578063992e2a921461065c576103c5565b8063884d1f40146106035780638d4e40831461061657806392eefe9b1461061e578063936c347714610631576103c5565b806334e19907116102ef5780635f9e7d771161028257806376c7a3c71161025157806376c7a3c7146105bf5780637c5e9ea4146105c75780638201aa3f146105e8578063867378c5146105fb576103c5565b80635f9e7d771461057357806366188463146105865780636d06dfa01461059957806370a08231146105ac576103c5565b80634bb278f3116102be5780634bb278f3146105325780634f69c0d41461053a57806353c11f991461054d5780635db3427714610560576103c5565b806334e19907146104e45780633fdddaa2146104f957806346ab38f11461050c57806349b595521461051f576103c5565b8063189d00ca116103675780632f37b624116103365780632f37b624146104945780633018205f146104a757806330d9c915146104bc578063313ce567146104cf576103c5565b8063189d00ca1461045e578063218b538214610466578063230dbd291461046e57806323b872dd14610481576103c5565b806309a3bbe4116103a357806309a3bbe4146104285780631446a7ff1461043057806315e84af91461044357806318160ddd14610456576103c5565b806302c96748146103ca57806306fdde03146103f3578063095ea7b314610408575b600080fd5b6103dd6103d8366004614d31565b610784565b6040516103ea919061513f565b60405180910390f35b6103fb610ae0565b6040516103ea9190615164565b61041b610416366004614cb5565b610b76565b6040516103ea9190615134565b6103dd610bca565b6103dd61043e366004614c3d565b610bd7565b6103dd610451366004614c3d565b610d68565b6103dd610e9f565b6103dd610ea5565b6103dd610eb9565b6103fb61047c366004614ed0565b610ec5565b61041b61048f366004614c75565b610fc6565b61041b6104a2366004614c05565b611120565b6104af61113e565b6040516103ea9190615096565b6103fb6104ca366004614e34565b611179565b6104d76111b2565b6040516103ea91906156f8565b6104f76104f2366004614f97565b6111bb565b005b6104f7610507366004614d31565b6112d6565b6103dd61051a366004614d31565b611695565b6104f761052d366004614d65565b61191a565b6104f7611a01565b6104f7610548366004614fc7565b611b36565b6103fb61055b366004614ed0565b611dde565b6103dd61056e366004614d31565b611e3a565b6103fb610581366004614e34565b612133565b61041b610594366004614cb5565b61216c565b6103dd6105a7366004614d31565b612244565b6103dd6105ba366004614c05565b6124b2565b6103dd6124cd565b6105da6105d5366004614ce0565b6124df565b6040516103ea92919061569f565b6105da6105f6366004614ce0565b612b4a565b6103dd613129565b6103fb610611366004614e34565b61313d565b61041b613176565b6104f761062c366004614c05565b61317f565b6103dd613249565b6103dd61327b565b6103dd61064f366004614c05565b613288565b6103fb61330a565b6103dd61336b565b6103dd613377565b61041b61067a366004614cb5565b613384565b6104f761068d366004614fc7565b61339a565b6103dd61367d565b6103dd613682565b6103dd613687565b6103dd61368c565b6103dd61369c565b6106c26136a8565b6040516103ea91906150e7565b6103dd613754565b6106c2613759565b6103dd613784565b6104f76106f5366004614c05565b61378a565b6103dd613b28565b61041b610710366004614cb5565b613b5a565b6103fb610723366004614ed0565b613bdb565b6103dd610736366004614c3d565b613c39565b6104f7610749366004614d31565b613c64565b6103dd61406d565b6103dd610764366004614c05565b61407d565b6103dd610777366004614c05565b614111565b61041b614166565b60405160009033906001600160e01b0319833516906107a69084903690615148565b60405180910390a2600554610100900460ff16156107df5760405162461bcd60e51b81526004016107d690615360565b60405180910390fd5b6005805461ff0019166101001790556001600160a01b038085166000908152600a60205260408120549091169061081582614176565b60085490915060ff1661083a5760405162461bcd60e51b81526004016107d690615478565b6001600160a01b0386166000908152600b602052604090205460ff166108725760405162461bcd60e51b81526004016107d6906153d7565b61088b816003670de0b6b3a76400005b0460010161422a565b8511156108aa5760405162461bcd60e51b81526004016107d6906153ac565b6001600160a01b0382166000908152600b6020526040908190206002808201549054600c5460075494516382f652ad60e01b81529394735072E905d7dDE866328bFa0ed3ec46d1b0FcbF6E946382f652ad94610911948994919390928e91906004016156d0565b60206040518083038186803b15801561092957600080fd5b505af415801561093d573d6000803e3d6000fd5b505050506040513d601f19601f820116820180604052508101906109619190614faf565b9350836109805760405162461bcd60e51b81526004016107d69061521b565b848411156109a05760405162461bcd60e51b81526004016107d69061533a565b6109aa82876142a3565b600382015560006109bb858261422a565b9050876001600160a01b0316336001600160a01b03166000805160206157ad833981519152896040516109ee919061513f565b60405180910390a3610a0033866142dc565b610a12610a0d86836142ea565b614344565b600554610a2e906201000090046001600160a01b031682614350565b610a3984338961435a565b604080516080810182526001815260006020820152600284015481830152606081018590529051630613fced60e11b8152735072E905d7dDE866328bFa0ed3ec46d1b0FcbF6E91630c27f9da91610a9a91600d918991600b91600401615615565b60006040518083038186803b158015610ab257600080fd5b505af4158015610ac6573d6000803e3d6000fd5b50505050505050506005805461ff00191690559392505050565b60038054604080516020601f6002600019610100600188161502019095169490940493840181900481028201810190925282815260609390929091830182828015610b6c5780601f10610b4157610100808354040283529160200191610b6c565b820191906000526020600020905b815481529060010190602001808311610b4f57829003601f168201915b5050505050905090565b3360008181526001602090815260408083206001600160a01b038716808552908352818420869055815186815291519394909390926000805160206157cd833981519152928290030190a350600192915050565b6802b5e3af16b188000081565b600554600090610100900460ff1615610c025760405162461bcd60e51b81526004016107d690615360565b6001600160a01b038084166000908152600a6020908152604080832054868516845281842054908516808552600b9093529220549092919091169060ff16610c5c5760405162461bcd60e51b81526004016107d6906153d7565b6001600160a01b0381166000908152600b602052604090205460ff16610c945760405162461bcd60e51b81526004016107d6906153d7565b6001600160a01b038083166000908152600b602052604080822092841682529020735072E905d7dDE866328bFa0ed3ec46d1b0FcbF6E63a221ee49610cd886614176565b8460020154610ce687614176565b856002015460006040518663ffffffff1660e01b8152600401610d0d9594939291906156ad565b60206040518083038186803b158015610d2557600080fd5b505af4158015610d39573d6000803e3d6000fd5b505050506040513d601f19601f82011682018060405250810190610d5d9190614faf565b979650505050505050565b600554600090610100900460ff1615610d935760405162461bcd60e51b81526004016107d690615360565b6001600160a01b038084166000908152600a6020908152604080832054868516845281842054908516808552600b9093529220549092919091169060ff16610ded5760405162461bcd60e51b81526004016107d6906153d7565b6001600160a01b0381166000908152600b602052604090205460ff16610e255760405162461bcd60e51b81526004016107d6906153d7565b6001600160a01b038083166000908152600b602052604080822092841682529020735072E905d7dDE866328bFa0ed3ec46d1b0FcbF6E63a221ee49610e6986614176565b8460020154610e7787614176565b85600201546007546040518663ffffffff1660e01b8152600401610d0d9594939291906156ad565b60025490565b6402540be400670de0b6b3a76400005b0481565b670de0b6b3a764000081565b600d546060906001600160a01b03163314610ef25760405162461bcd60e51b81526004016107d690615385565b610f236040518060400160405280601081526020016f61677265656d656e742075706461746560801b8152506144fc565b60405163a42b510160e01b8152735072E905d7dDE866328bFa0ed3ec46d1b0FcbF6E9063a42b510190610f6490600d908e9088908890600b90600401615662565b60006040518083038186803b158015610f7c57600080fd5b505af4158015610f90573d6000803e3d6000fd5b505050506040513d6000823e601f3d908101601f19168201604052610fb89190810190614d9d565b9a9950505050505050505050565b6000336001600160a01b038516148061100257506001600160a01b03841660009081526001602090815260408083203384529091529020548211155b61104b576040805162461bcd60e51b815260206004820152601560248201527422a9292fa12a27a5a2a72fa120a22fa1a0a62622a960591b604482015290519081900360640190fd5b6110568484846145a2565b336001600160a01b0385161480159061109457506001600160a01b038416600090815260016020908152604080832033845290915290205460001914155b15611116576001600160a01b03841660009081526001602090815260408083203384529091529020546110c790836142ea565b6001600160a01b03858116600090815260016020908152604080832033808552908352928190208590558051948552519287169391926000805160206157cd8339815191529281900390910190a35b5060019392505050565b6001600160a01b03166000908152600b602052604090205460ff1690565b600554600090610100900460ff16156111695760405162461bcd60e51b81526004016107d690615360565b506006546001600160a01b031690565b606060405162461bcd60e51b815260040180806020018281038252602f81526020018061581c602f913960400191505060405180910390fd5b60055460ff1690565b336001600160a01b03166000356001600160e01b0319166001600160e01b0319166000366040516111ed929190615148565b60405180910390a2600554610100900460ff161561121d5760405162461bcd60e51b81526004016107d690615360565b6005805461ff00191661010017905560085460ff161561124f5760405162461bcd60e51b81526004016107d690615291565b6006546001600160a01b031633146112795760405162461bcd60e51b81526004016107d690615177565b64e8d4a5100081101561129e5760405162461bcd60e51b81526004016107d690615244565b67016345785d8a00008111156112c65760405162461bcd60e51b81526004016107d6906153fe565b6007556005805461ff0019169055565b336001600160a01b03166000356001600160e01b0319166001600160e01b031916600036604051611308929190615148565b60405180910390a2600554610100900460ff16156113385760405162461bcd60e51b81526004016107d690615360565b6005805461ff001916610100179055600654336001600160a01b03909116146113735760405162461bcd60e51b81526004016107d690615177565b6001600160a01b0383166000908152600b602052604090205460ff166113ab5760405162461bcd60e51b81526004016107d6906153d7565b60085460ff16156113ce5760405162461bcd60e51b81526004016107d690615291565b670de0b6b3a76400008110156113f65760405162461bcd60e51b81526004016107d690615450565b6802b5e3af16b188000081111561141f5760405162461bcd60e51b81526004016107d690615269565b6001600160a01b0383166000818152600b602081815260408084208151608081018352815460ff1615158152600182015481850152600282015492810183905260039091015460608201529490935252808311156114be5761148c600c5461148785846142a3565b6146b2565b600c8190556802b5e3af16b188000010156114b95760405162461bcd60e51b81526004016107d6906152bb565b6114df565b808310156114df576114db600c546114d683866142a3565b6142a3565b600c555b6001600160a01b0385166000908152600b6020526040812060020184905561150686614176565b6001600160a01b0387166000908152600b6020526040902060030186905590508085111561158057611542863361153d88856142a3565b6146d7565b6001600160a01b0386163360008051602061578d83398151915261156688856142a3565b604051611573919061513f565b60405180910390a3611613565b8085101561161357600061159482876142a3565b905060006115a382600061422a565b90506115b988336115b485856142a3565b61435a565b6005546115d79089906201000090046001600160a01b03168361435a565b876001600160a01b0316336001600160a01b03166000805160206157ad83398151915284604051611608919061513f565b60405180910390a350505b604051630613fced60e11b8152735072E905d7dDE866328bFa0ed3ec46d1b0FcbF6E90630c27f9da9061165290600d908a90600b908990600401615615565b60006040518083038186803b15801561166a57600080fd5b505af415801561167e573d6000803e3d6000fd5b50506005805461ff00191690555050505050505050565b60405160009033906001600160e01b0319833516906116b79084903690615148565b60405180910390a2600554610100900460ff16156116e75760405162461bcd60e51b81526004016107d690615360565b6005805461ff0019166101001790556001600160a01b038085166000908152600a60205260408120549091169061171d82614176565b60085490915060ff166117425760405162461bcd60e51b81526004016107d690615478565b6001600160a01b0382166000908152600b602052604090205460ff1661177a5760405162461bcd60e51b81526004016107d6906153d7565b6001600160a01b0382166000908152600b6020526040908190206002808201549054600c546007549451634494c00960e11b81529394735072E905d7dDE866328bFa0ed3ec46d1b0FcbF6E946389298012946117e1948994919390928e91906004016156d0565b60206040518083038186803b1580156117f957600080fd5b505af415801561180d573d6000803e3d6000fd5b505050506040513d601f19601f820116820180604052508101906118319190614faf565b9350848410156118535760405162461bcd60e51b81526004016107d6906152e9565b611867826003670de0b6b3a7640000610882565b8411156118865760405162461bcd60e51b81526004016107d6906153ac565b61189082856142a3565b600382015560006118a1878261422a565b9050876001600160a01b0316336001600160a01b03166000805160206157ad833981519152876040516118d4919061513f565b60405180910390a36118e633886142dc565b6118f3610a0d88836142ea565b60055461190f906201000090046001600160a01b031682614350565b610a3984338761435a565b336001600160a01b03166000356001600160e01b0319166001600160e01b03191660003660405161194c929190615148565b60405180910390a2600554610100900460ff161561197c5760405162461bcd60e51b81526004016107d690615360565b6005805461ff00191661010017905560085460ff16156119ae5760405162461bcd60e51b81526004016107d690615291565b6006546001600160a01b031633146119d85760405162461bcd60e51b81526004016107d690615177565b60068054911515600160a01b0260ff60a01b199092169190911790556005805461ff0019169055565b336001600160a01b03166000356001600160e01b0319166001600160e01b031916600036604051611a33929190615148565b60405180910390a2600554610100900460ff1615611a635760405162461bcd60e51b81526004016107d690615360565b6005805461ff001916610100179055600654336001600160a01b0390911614611a9e5760405162461bcd60e51b81526004016107d690615177565b60085460ff1615611ac15760405162461bcd60e51b81526004016107d690615291565b60095460021115611ae45760405162461bcd60e51b81526004016107d6906155ed565b6008805460ff191660011790556006805460ff60a01b1916600160a01b179055611b1668056bc75e2d6310000061487b565b611b293368056bc75e2d63100000614350565b6005805461ff0019169055565b336001600160a01b03166000356001600160e01b0319166001600160e01b031916600036604051611b68929190615148565b60405180910390a2600554610100900460ff1615611b985760405162461bcd60e51b81526004016107d690615360565b6005805461ff00191661010017905560085460ff16611bc95760405162461bcd60e51b81526004016107d690615478565b6000611bd3610e9f565b90506000611be18583614884565b905080611c005760405162461bcd60e51b81526004016107d69061521b565b60005b600954811015611db857600060098281548110611c1c57fe5b60009182526020808320909101546001600160a01b0316808352600b825260408084208151608081018352815460ff1615158152600182015494810194909452600281015491840191909152600301546060830152925090611c7d83614176565b90506000611c8b868361422a565b905080611caa5760405162461bcd60e51b81526004016107d69061521b565b888886818110611cb657fe5b90506020020135811115611cdc5760405162461bcd60e51b81526004016107d69061533a565b611ce682826146b2565b6001600160a01b0385166000818152600b602052604090819020600301929092559051339060008051602061578d83398151915290611d2690859061513f565b60405180910390a3611d398433836146d7565b604051630613fced60e11b8152735072E905d7dDE866328bFa0ed3ec46d1b0FcbF6E90630c27f9da90611d7890600d908890600b908990600401615615565b60006040518083038186803b158015611d9057600080fd5b505af4158015611da4573d6000803e3d6000fd5b505060019096019550611c03945050505050565b50611dc28561487b565b611dcc3386614350565b50506005805461ff0019169055505050565b600d546060906001600160a01b03163314611e0b5760405162461bcd60e51b81526004016107d690615385565b610f236040518060400160405280600e81526020016d61677265656d656e74207465726d60901b8152506144fc565b60405160009033906001600160e01b031983351690611e5c9084903690615148565b60405180910390a2600554610100900460ff1615611e8c5760405162461bcd60e51b81526004016107d690615360565b6005805461ff0019166101001790556001600160a01b038085166000908152600a602052604081205490911690611ec282614176565b60085490915060ff16611ee75760405162461bcd60e51b81526004016107d690615478565b6001600160a01b0386166000908152600b602052604090205460ff16611f1f5760405162461bcd60e51b81526004016107d6906153d7565b611f35816002670de0b6b3a76400005b0461422a565b851115611f545760405162461bcd60e51b81526004016107d6906151f1565b6001600160a01b0382166000908152600b6020526040908190206002808201549054600c546007549451638656b65360e01b81529394735072E905d7dDE866328bFa0ed3ec46d1b0FcbF6E94638656b65394611fbb948994919390928e91906004016156d0565b60206040518083038186803b158015611fd357600080fd5b505af4158015611fe7573d6000803e3d6000fd5b505050506040513d601f19601f8201168201806040525081019061200b9190614faf565b93508484101561202d5760405162461bcd60e51b81526004016107d6906152e9565b61203782876146b2565b60038201556040516001600160a01b03881690339060008051602061578d83398151915290612067908a9061513f565b60405180910390a36120788461487b565b6120823385614350565b61208d8333886146d7565b604080516080810182526001815260006020820152600283015481830152606081018490529051630613fced60e11b8152735072E905d7dDE866328bFa0ed3ec46d1b0FcbF6E91630c27f9da916120ee91600d918891600b91600401615615565b60006040518083038186803b15801561210657600080fd5b505af415801561211a573d6000803e3d6000fd5b505050505050506005805461ff00191690559392505050565b606060405162461bcd60e51b815260040180806020018281038252603381526020018061575a6033913960400191505060405180910390fd5b3360009081526001602090815260408083206001600160a01b0386168452909152812054808311156121c1573360009081526001602090815260408083206001600160a01b03881684529091528120556121f0565b6121cb81846142ea565b3360009081526001602090815260408083206001600160a01b03891684529091529020555b3360008181526001602090815260408083206001600160a01b0389168085529083529281902054815190815290519293926000805160206157cd833981519152929181900390910190a35060019392505050565b60405160009033906001600160e01b0319833516906122669084903690615148565b60405180910390a2600554610100900460ff16156122965760405162461bcd60e51b81526004016107d690615360565b6005805461ff0019166101001790556001600160a01b038085166000908152600a6020526040812054909116906122cc82614176565b60085490915060ff166122f15760405162461bcd60e51b81526004016107d690615478565b6001600160a01b0382166000908152600b602052604090205460ff166123295760405162461bcd60e51b81526004016107d6906153d7565b6001600160a01b0382166000908152600b6020526040908190206002808201549054600c546007549451635c1bbaf760e01b81529394735072E905d7dDE866328bFa0ed3ec46d1b0FcbF6E94635c1bbaf794612390948994919390928e91906004016156d0565b60206040518083038186803b1580156123a857600080fd5b505af41580156123bc573d6000803e3d6000fd5b505050506040513d601f19601f820116820180604052508101906123e09190614faf565b9350836123ff5760405162461bcd60e51b81526004016107d69061521b565b8484111561241f5760405162461bcd60e51b81526004016107d69061533a565b612433826002670de0b6b3a7640000611f2f565b8411156124525760405162461bcd60e51b81526004016107d6906151f1565b61245c82856146b2565b60038201556040516001600160a01b03881690339060008051602061578d8339815191529061248c90889061513f565b60405180910390a361249d8661487b565b6124a73387614350565b61208d8333866146d7565b6001600160a01b031660009081526020819052604090205490565b620f4240670de0b6b3a7640000610eb5565b604051600090819033906001600160e01b0319833516906125039084903690615148565b60405180910390a2600554610100900460ff16156125335760405162461bcd60e51b81526004016107d690615360565b6005805461ff001916610100179055604080516080810182526001600160a01b03808a166000908152600a602081815285832054841685528a84168352908152848220548316818501528385018290526060840182905283519092168152600b909152919091205460ff166125ba5760405162461bcd60e51b81526004016107d6906153d7565b6020808201516001600160a01b03166000908152600b909152604090205460ff166125f75760405162461bcd60e51b81526004016107d6906153d7565b600654600160a01b900460ff166126205760405162461bcd60e51b81526004016107d690615542565b80516001600160a01b039081166000908152600b60209081526040808320918501519093168252919020825161265590614176565b6040840152602083015161266890614176565b60608401819052612683906003670de0b6b3a7640000610882565b8711156126a25760405162461bcd60e51b81526004016107d6906153ac565b6000735072E905d7dDE866328bFa0ed3ec46d1b0FcbF6E63a221ee4985604001518560020154876060015186600201546007546040518663ffffffff1660e01b81526004016126f59594939291906156ad565b60206040518083038186803b15801561270d57600080fd5b505af4158015612721573d6000803e3d6000fd5b505050506040513d601f19601f820116820180604052508101906127459190614faf565b9050868111156127675760405162461bcd60e51b81526004016107d690615423565b735072E905d7dDE866328bFa0ed3ec46d1b0FcbF6E63f8d6aed485604001518560020154876060015186600201548d6007546040518763ffffffff1660e01b81526004016127ba969594939291906156d0565b60206040518083038186803b1580156127d257600080fd5b505af41580156127e6573d6000803e3d6000fd5b505050506040513d601f19601f8201168201806040525081019061280a9190614faf565b95508986111561282c5760405162461bcd60e51b81526004016107d69061533a565b735072E905d7dDE866328bFa0ed3ec46d1b0FcbF6E63a221ee496128548660400151896146b2565b856002015461286788606001518d6142a3565b86600201546007546040518663ffffffff1660e01b815260040161288f9594939291906156ad565b60206040518083038186803b1580156128a757600080fd5b505af41580156128bb573d6000803e3d6000fd5b505050506040513d601f19601f820116820180604052508101906128df9190614faf565b9450808510156129015760405162461bcd60e51b81526004016107d69061521b565b868511156129215760405162461bcd60e51b81526004016107d6906154f3565b61292b8689614884565b81111561294a5760405162461bcd60e51b81526004016107d69061521b565b886001600160a01b03168b6001600160a01b0316336001600160a01b03167f908fb5ee8f16c6bc9bc3690973819f32a4d4b10188134543c88706e0e1d43378898c60405161299992919061569f565b60405180910390a460408051608081018252845460ff16151581526001850154602082015260028501548183015260038501546060820152908501516129df90886146b2565b600385015584516129f19033896146d7565b8451604051630613fced60e11b8152735072E905d7dDE866328bFa0ed3ec46d1b0FcbF6E91630c27f9da91612a3091600d91600b908790600401615615565b60006040518083038186803b158015612a4857600080fd5b505af4158015612a5c573d6000803e3d6000fd5b505060408051608081018252865460ff1615158152600187015460208201526002870154918101919091526003860154606080830191909152880151909250612aa691508b6142a3565b60038501556020860151612abb90338c61435a565b6020860151604051630613fced60e11b8152735072E905d7dDE866328bFa0ed3ec46d1b0FcbF6E91630c27f9da91612afd91600d91600b908790600401615615565b60006040518083038186803b158015612b1557600080fd5b505af4158015612b29573d6000803e3d6000fd5b505050505050505050506005805461ff001916905590969095509350505050565b604051600090819033906001600160e01b031983351690612b6e9084903690615148565b60405180910390a2600554610100900460ff1615612b9e5760405162461bcd60e51b81526004016107d690615360565b6005805461ff001916610100179055604080516080810182526001600160a01b03808a166000908152600a602081815285832054841685528a84168352908152848220548316818501528385018290526060840182905283519092168152600b909152919091205460ff16612c255760405162461bcd60e51b81526004016107d6906153d7565b6020808201516001600160a01b03166000908152600b909152604090205460ff16612c625760405162461bcd60e51b81526004016107d6906153d7565b600654600160a01b900460ff16612c8b5760405162461bcd60e51b81526004016107d690615542565b80516001600160a01b039081166000908152600b602090815260408083209185015190931682529190208251612cc090614176565b60408401526020830151612cd390614176565b60608401526040830151612cf1906002670de0b6b3a7640000611f2f565b891115612d105760405162461bcd60e51b81526004016107d6906151f1565b6000735072E905d7dDE866328bFa0ed3ec46d1b0FcbF6E63a221ee4985604001518560020154876060015186600201546007546040518663ffffffff1660e01b8152600401612d639594939291906156ad565b60206040518083038186803b158015612d7b57600080fd5b505af4158015612d8f573d6000803e3d6000fd5b505050506040513d601f19601f82011682018060405250810190612db39190614faf565b905086811115612dd55760405162461bcd60e51b81526004016107d690615423565b735072E905d7dDE866328bFa0ed3ec46d1b0FcbF6E63ba9530a685604001518560020154876060015186600201548f6007546040518763ffffffff1660e01b8152600401612e28969594939291906156d0565b60206040518083038186803b158015612e4057600080fd5b505af4158015612e54573d6000803e3d6000fd5b505050506040513d601f19601f82011682018060405250810190612e789190614faf565b955087861015612e9a5760405162461bcd60e51b81526004016107d6906152e9565b735072E905d7dDE866328bFa0ed3ec46d1b0FcbF6E63a221ee49612ec286604001518d6146b2565b8560020154612ed588606001518b6142a3565b86600201546007546040518663ffffffff1660e01b8152600401612efd9594939291906156ad565b60206040518083038186803b158015612f1557600080fd5b505af4158015612f29573d6000803e3d6000fd5b505050506040513d601f19601f82011682018060405250810190612f4d9190614faf565b945080851015612f6f5760405162461bcd60e51b81526004016107d69061521b565b86851115612f8f5760405162461bcd60e51b81526004016107d6906154f3565b612f998a87614884565b811115612fb85760405162461bcd60e51b81526004016107d69061521b565b886001600160a01b03168b6001600160a01b0316336001600160a01b03167f908fb5ee8f16c6bc9bc3690973819f32a4d4b10188134543c88706e0e1d433788d8a60405161300792919061569f565b60405180910390a460408051608081018252845460ff161515815260018501546020820152600285015481830152600385015460608201529085015161304d908c6146b2565b6003850155845161305f90338d6146d7565b8451604051630613fced60e11b8152735072E905d7dDE866328bFa0ed3ec46d1b0FcbF6E91630c27f9da9161309e91600d91600b908790600401615615565b60006040518083038186803b1580156130b657600080fd5b505af41580156130ca573d6000803e3d6000fd5b505060408051608081018252865460ff16151581526001870154602082015260028701549181019190915260038601546060808301919091528801519092506131149150896142a3565b60038501556020860151612abb90338a61435a565b64e8d4a51000670de0b6b3a7640000610eb5565b606060405162461bcd60e51b815260040180806020018281038252602f8152602001806157ed602f913960400191505060405180910390fd5b60085460ff1690565b336001600160a01b03166000356001600160e01b0319166001600160e01b0319166000366040516131b1929190615148565b60405180910390a2600554610100900460ff16156131e15760405162461bcd60e51b81526004016107d690615360565b6005805461ff001916610100179055600654336001600160a01b039091161461321c5760405162461bcd60e51b81526004016107d690615177565b600680546001600160a01b0319166001600160a01b03929092169190911790556005805461ff0019169055565b600554600090610100900460ff16156132745760405162461bcd60e51b81526004016107d690615360565b50600c5490565b68056bc75e2d6310000081565b600554600090610100900460ff16156132b35760405162461bcd60e51b81526004016107d690615360565b6001600160a01b0382166000908152600b602052604090205460ff166132eb5760405162461bcd60e51b81526004016107d6906153d7565b506001600160a01b03166000908152600b602052604090206002015490565b60048054604080516020601f6002600019610100600188161502019095169490940493840181900481028201810190925282815260609390929091830182828015610b6c5780601f10610b4157610100808354040283529160200191610b6c565b6704a03ce68d21555681565b6542524f4e5a4560d01b90565b60006133913384846145a2565b50600192915050565b336001600160a01b03166000356001600160e01b0319166001600160e01b0319166000366040516133cc929190615148565b60405180910390a2600554610100900460ff16156133fc5760405162461bcd60e51b81526004016107d690615360565b6005805461ff00191661010017905560085460ff1661342d5760405162461bcd60e51b81526004016107d690615478565b6000613437610e9f565b9050600061344685600061422a565b9050600061345486836142a3565b905060006134628285614884565b9050806134815760405162461bcd60e51b81526004016107d69061521b565b61348b33886142dc565b6005546134a7906201000090046001600160a01b031684614350565b6134b082614344565b60005b600954811015613668576000600982815481106134cc57fe5b60009182526020808320909101546001600160a01b0316808352600b825260408084208151608081018352815460ff161515815260018201549481019490945260028101549184019190915260030154606083015292509061352d83614176565b9050600061353b868361422a565b90508061355a5760405162461bcd60e51b81526004016107d69061521b565b8a8a8681811061356657fe5b9050602002013581101561358c5760405162461bcd60e51b81526004016107d6906152e9565b61359682826142a3565b6001600160a01b0385166000818152600b60205260409081902060030192909255905133906000805160206157ad833981519152906135d690859061513f565b60405180910390a36135e984338361435a565b604051630613fced60e11b8152735072E905d7dDE866328bFa0ed3ec46d1b0FcbF6E90630c27f9da9061362890600d908890600b908990600401615615565b60006040518083038186803b15801561364057600080fd5b505af4158015613654573d6000803e3d6000fd5b5050600190960195506134b3945050505050565b50506005805461ff0019169055505050505050565b600881565b600281565b600181565b600a670de0b6b3a7640000610eb5565b671bc16d674ec7ffff81565b600554606090610100900460ff16156136d35760405162461bcd60e51b81526004016107d690615360565b60085460ff166136f55760405162461bcd60e51b81526004016107d690615478565b6009805480602002602001604051908101604052809291908181526020018280548015610b6c57602002820191906000526020600020905b81546001600160a01b0316815260019091019060200180831161372d575050505050905090565b600081565b600554606090610100900460ff16156136f55760405162461bcd60e51b81526004016107d690615360565b60095490565b336001600160a01b03166000356001600160e01b0319166001600160e01b0319166000366040516137bc929190615148565b60405180910390a2600554610100900460ff16156137ec5760405162461bcd60e51b81526004016107d690615360565b6005805461ff001916610100179055600654336001600160a01b03909116146138275760405162461bcd60e51b81526004016107d690615177565b6001600160a01b0381166000908152600b602052604090205460ff1661385f5760405162461bcd60e51b81526004016107d6906153d7565b60085460ff16156138825760405162461bcd60e51b81526004016107d690615291565b600061388d82614176565b9050600061389c82600061422a565b600c546001600160a01b0385166000908152600b60205260409020600201549192506138c7916142a3565b600c556001600160a01b0383166000908152600b60205260409020600101546009805460001981019190829081106138fb57fe5b600091825260209091200154600980546001600160a01b03909216918490811061392157fe5b9060005260206000200160006101000a8154816001600160a01b0302191690836001600160a01b0316021790555081600b60006009858154811061396157fe5b60009182526020808320909101546001600160a01b03168352820192909252604001902060010155600980548061399457fe5b60008281526020808220600019908401810180546001600160a01b031916905590920190925560408051608081018252838152808301848152818301858152606083018681526001600160a01b038c16808852600b8752968590209351845460ff191690151517845591516001840155516002830155516003909101558051631dce337960e31b8152905163ee719bc892600480840193919291829003018186803b158015613a4257600080fd5b505afa158015613a56573d6000803e3d6000fd5b505050506040513d601f19601f82011682018060405250810190613a7a9190614c21565b6001600160a01b031663095ea7b38660006040518363ffffffff1660e01b8152600401613aa89291906150ce565b602060405180830381600087803b158015613ac257600080fd5b505af1158015613ad6573d6000803e3d6000fd5b505050506040513d601f19601f82011682018060405250810190613afa9190614d81565b50613b0a85336115b487876142a3565b600554611dcc9086906201000090046001600160a01b03168561435a565b600554600090610100900460ff1615613b535760405162461bcd60e51b81526004016107d690615360565b5060075490565b3360009081526001602090815260408083206001600160a01b0386168452909152812054613b889083614918565b3360008181526001602090815260408083206001600160a01b0389168085529083529281902085905580519485525191936000805160206157cd833981519152929081900390910190a350600192915050565b600d546060906001600160a01b03163314613c085760405162461bcd60e51b81526004016107d690615385565b610f236040518060400160405280601081526020016f61677265656d656e742063726561746560801b8152506144fc565b6001600160a01b03918216600090815260016020908152604080832093909416825291909152205490565b336001600160a01b03166000356001600160e01b0319166001600160e01b031916600036604051613c96929190615148565b60405180910390a26006546001600160a01b03163314613cc85760405162461bcd60e51b81526004016107d690615177565b6001600160a01b0383166000908152600b602052604090205460ff1615613d015760405162461bcd60e51b81526004016107d6906151a3565b60085460ff1615613d245760405162461bcd60e51b81526004016107d690615291565b600954600811613d465760405162461bcd60e51b81526004016107d6906151c9565b826001600160a01b03166320bc44256040518163ffffffff1660e01b815260040160206040518083038186803b158015613d7f57600080fd5b505afa158015613d93573d6000803e3d6000fd5b505050506040513d601f19601f82011682018060405250810190613db79190614c21565b600d546001600160a01b03908116911614613de45760405162461bcd60e51b81526004016107d6906154cd565b6040805160808101825260018082526009805460208085019182526000858701818152606087018281526001600160a01b038c16808452600b85528984209851895460ff19169015151789559451888801559051600288015551600390960195909555825493840183559184527f6e1540171b6c0c960b71a7020d9f60077f6af931a8bbf590da0223dacf75c7af90920180546001600160a01b031916831790558351631dce337960e31b815293518794600a94939263ee719bc892600480840193829003018186803b158015613eba57600080fd5b505afa158015613ece573d6000803e3d6000fd5b505050506040513d601f19601f82011682018060405250810190613ef29190614c21565b6001600160a01b03166001600160a01b0316815260200190815260200160002060006101000a8154816001600160a01b0302191690836001600160a01b03160217905550826001600160a01b031663ee719bc86040518163ffffffff1660e01b815260040160206040518083038186803b158015613f6f57600080fd5b505afa158015613f83573d6000803e3d6000fd5b505050506040513d601f19601f82011682018060405250810190613fa79190614c21565b6001600160a01b031663095ea7b3846000196040518363ffffffff1660e01b8152600401613fd69291906150ce565b602060405180830381600087803b158015613ff057600080fd5b505af1158015614004573d6000803e3d6000fd5b505050506040513d601f19601f820116820180604052508101906140289190614d81565b506040516001600160a01b038416907feb9218e087679078373f04721594f6b59d3cee9733080593d5e49ac61b46494390600090a26140688383836112d6565b505050565b6002670de0b6b3a7640000610eb5565b600554600090610100900460ff16156140a85760405162461bcd60e51b81526004016107d690615360565b6001600160a01b0382166000908152600b602052604090205460ff166140e05760405162461bcd60e51b81526004016107d6906153d7565b6001600160a01b0382166000908152600b6020526040902060020154600c5461410a908290614884565b9392505050565b600554600090610100900460ff161561413c5760405162461bcd60e51b81526004016107d690615360565b6001600160a01b038083166000908152600a60205260409020546141609116614176565b92915050565b600654600160a01b900460ff1690565b6001600160a01b0381166000908152600b602052604081205460ff166141ae5760405162461bcd60e51b81526004016107d6906153d7565b6040516370a0823160e01b81526001600160a01b038316906370a08231906141da903090600401615096565b60206040518083038186803b1580156141f257600080fd5b505afa158015614206573d6000803e3d6000fd5b505050506040513d601f19601f820116820180604052508101906141609190614faf565b600082820283158061424457508284828161424157fe5b04145b6142605760405162461bcd60e51b81526004016107d6906154a3565b6706f05b59d3b2000081018181101561428b5760405162461bcd60e51b81526004016107d6906154a3565b6000670de0b6b3a7640000825b049695505050505050565b60008060006142b28585614965565b9150915080156142d45760405162461bcd60e51b81526004016107d690615598565b509392505050565b6142e6828261498a565b5050565b60008060006142f98585614965565b9150915080156142d4576040805162461bcd60e51b81526020600482015260116024820152704552525f5355425f554e444552464c4f5760781b604482015290519081900360640190fd5b61434d81614995565b50565b6142e68282614a65565b614381604051806040016040528060048152602001630e0eae6d60e31b8152508483614a70565b6040516308de640f60e11b81526001600160a01b038416906311bcc81e906143ad90849060040161513f565b600060405180830381600087803b1580156143c757600080fd5b505af11580156143db573d6000803e3d6000fd5b505050506000836001600160a01b031663ee719bc86040518163ffffffff1660e01b815260040160206040518083038186803b15801561441a57600080fd5b505afa15801561442e573d6000803e3d6000fd5b505050506040513d601f19601f820116820180604052508101906144529190614c21565b90506000816001600160a01b031663a9059cbb85856040518363ffffffff1660e01b81526004016144849291906150ce565b602060405180830381600087803b15801561449e57600080fd5b505af11580156144b2573d6000803e3d6000fd5b505050506040513d601f19601f820116820180604052508101906144d69190614d81565b9050806144f55760405162461bcd60e51b81526004016107d69061556f565b5050505050565b61434d816040516024018080602001828103825283818151815260200191508051906020019080838360005b83811015614540578181015183820152602001614528565b50505050905090810190601f16801561456d5780820380516001836020036101000a031916815260200191505b5060408051601f198184030181529190526020810180516001600160e01b031663104c13eb60e21b1790529250614b2f915050565b6001600160a01b038316600090815260208190526040902054811115614606576040805162461bcd60e51b815260206004820152601460248201527311549497d25394d551919250d251539517d0905360621b604482015290519081900360640190fd5b6001600160a01b03831660009081526020819052604090205461462990826142ea565b6001600160a01b0380851660009081526020819052604080822093909355908416815220546146589082614918565b6001600160a01b038084166000818152602081815260409182902094909455805185815290519193928716927fddf252ad1be2c89b69c2b068fc378daa952ba7f163c4a11628f55a4df523b3ef92918290030190a3505050565b60008282018381101561410a5760405162461bcd60e51b81526004016107d6906155c3565b6146fe604051806040016040528060048152602001631c1d5b1b60e21b8152508483614a70565b6000836001600160a01b031663ee719bc86040518163ffffffff1660e01b815260040160206040518083038186803b15801561473957600080fd5b505afa15801561474d573d6000803e3d6000fd5b505050506040513d601f19601f820116820180604052508101906147719190614c21565b90506000816001600160a01b03166323b872dd8530866040518463ffffffff1660e01b81526004016147a5939291906150aa565b602060405180830381600087803b1580156147bf57600080fd5b505af11580156147d3573d6000803e3d6000fd5b505050506040513d601f19601f820116820180604052508101906147f79190614d81565b9050806148165760405162461bcd60e51b81526004016107d69061556f565b6040516345977d0360e01b81526001600160a01b038616906345977d039061484290869060040161513f565b600060405180830381600087803b15801561485c57600080fd5b505af1158015614870573d6000803e3d6000fd5b505050505050505050565b61434d81614b50565b6000816148a35760405162461bcd60e51b81526004016107d69061551c565b670de0b6b3a764000083028315806148cb5750670de0b6b3a76400008482816148c857fe5b04145b6148e75760405162461bcd60e51b81526004016107d690615310565b6002830481018181101561490d5760405162461bcd60e51b81526004016107d690615310565b600084828161429857fe5b60008282018381101561410a576040805162461bcd60e51b815260206004820152601060248201526f4552525f4144445f4f564552464c4f5760801b604482015290519081900360640190fd5b60008082841061497b5750508082036000614983565b505081810360015b9250929050565b6142e68230836145a2565b306000908152602081905260409020548111156149f0576040805162461bcd60e51b815260206004820152601460248201527311549497d25394d551919250d251539517d0905360621b604482015290519081900360640190fd5b30600090815260208190526040902054614a0a90826142ea565b30600090815260208190526040902055600254614a2790826142ea565b60025560408051828152905160009130917fddf252ad1be2c89b69c2b068fc378daa952ba7f163c4a11628f55a4df523b3ef9181900360200190a350565b6142e63083836145a2565b6140688383836040516024018080602001846001600160a01b03168152602001838152602001828103825285818151815260200191508051906020019080838360005b83811015614acb578181015183820152602001614ab3565b50505050905090810190601f168015614af85780820380516001836020036101000a031916815260200191505b5060408051601f198184030181529190526020810180516001600160e01b03166307c8121760e01b1790529450614b2f9350505050565b80516a636f6e736f6c652e6c6f67602083016000808483855afa5050505050565b30600090815260208190526040902054614b6a9082614918565b30600090815260208190526040902055600254614b879082614918565b60025560408051828152905130916000917fddf252ad1be2c89b69c2b068fc378daa952ba7f163c4a11628f55a4df523b3ef9181900360200190a350565b60008083601f840112614bd6578182fd5b50813567ffffffffffffffff811115614bed578182fd5b60208301915083602082850101111561498357600080fd5b600060208284031215614c16578081fd5b813561410a81615736565b600060208284031215614c32578081fd5b815161410a81615736565b60008060408385031215614c4f578081fd5b8235614c5a81615736565b91506020830135614c6a81615736565b809150509250929050565b600080600060608486031215614c89578081fd5b8335614c9481615736565b92506020840135614ca481615736565b929592945050506040919091013590565b60008060408385031215614cc7578182fd5b8235614cd281615736565b946020939093013593505050565b600080600080600060a08688031215614cf7578081fd5b8535614d0281615736565b9450602086013593506040860135614d1981615736565b94979396509394606081013594506080013592915050565b600080600060608486031215614d45578283fd5b8335614d5081615736565b95602085013595506040909401359392505050565b600060208284031215614d76578081fd5b813561410a8161574b565b600060208284031215614d92578081fd5b815161410a8161574b565b600060208284031215614dae578081fd5b815167ffffffffffffffff80821115614dc5578283fd5b818401915084601f830112614dd8578283fd5b815181811115614de457fe5b604051601f8201601f191681016020018381118282101715614e0257fe5b604052818152838201602001871015614e19578485fd5b614e2a826020830160208701615706565b9695505050505050565b600080600080600080600060a0888a031215614e4e578182fd5b8735614e5981615736565b96506020880135614e6981615736565b955060408801359450606088013567ffffffffffffffff80821115614e8c578384fd5b614e988b838c01614bc5565b909650945060808a0135915080821115614eb0578384fd5b50614ebd8a828b01614bc5565b989b979a50959850939692959293505050565b600080600080600080600080600060c08a8c031215614eed578283fd5b8935614ef881615736565b985060208a0135614f0881615736565b975060408a0135965060608a013567ffffffffffffffff80821115614f2b578485fd5b614f378d838e01614bc5565b909850965060808c0135915080821115614f4f578485fd5b614f5b8d838e01614bc5565b909650945060a08c0135915080821115614f73578384fd5b50614f808c828d01614bc5565b915080935050809150509295985092959850929598565b600060208284031215614fa8578081fd5b5035919050565b600060208284031215614fc0578081fd5b5051919050565b600080600060408486031215614fdb578081fd5b83359250602084013567ffffffffffffffff80821115614ff9578283fd5b818601915086601f83011261500c578283fd5b81358181111561501a578384fd5b876020808302850101111561502d578384fd5b6020830194508093505050509250925092565b60008284528282602086013780602084860101526020601f19601f85011685010190509392505050565b60008151808452615082816020860160208601615706565b601f01601f19169290920160200192915050565b6001600160a01b0391909116815260200190565b6001600160a01b039384168152919092166020820152604081019190915260600190565b6001600160a01b03929092168252602082015260400190565b6020808252825182820181905260009190848201906040850190845b818110156151285783516001600160a01b031683529284019291840191600101615103565b50909695505050505050565b901515815260200190565b90815260200190565b60006020825261515c602083018486615040565b949350505050565b60006020825261410a602083018461506a565b60208082526012908201527122a9292fa727aa2fa1a7a72a2927a62622a960711b604082015260600190565b6020808252600c908201526b11549497d254d7d093d5539160a21b604082015260600190565b6020808252600e908201526d4552525f4d41585f544f4b454e5360901b604082015260600190565b60208082526010908201526f4552525f4d41585f494e5f524154494f60801b604082015260600190565b6020808252600f908201526e08aa4a4be9a82a890be82a0a0a49eb608b1b604082015260600190565b6020808252600b908201526a4552525f4d494e5f46454560a81b604082015260600190565b6020808252600e908201526d11549497d3505617d5d15251d21560921b604082015260600190565b60208082526010908201526f11549497d254d7d1925390531256915160821b604082015260600190565b60208082526014908201527311549497d3505617d513d5105317d5d15251d21560621b604082015260600190565b6020808252600d908201526c11549497d31253525517d3d555609a1b604082015260600190565b60208082526010908201526f11549497d1125597d25395115493905360821b604082015260600190565b6020808252600c908201526b22a9292fa624a6a4aa2fa4a760a11b604082015260600190565b6020808252600b908201526a4552525f5245454e54525960a81b604082015260600190565b6020808252600d908201526c45525220484f5354204f4e4c5960981b604082015260600190565b6020808252601190820152704552525f4d41585f4f55545f524154494f60781b604082015260600190565b6020808252600d908201526c11549497d393d517d093d55391609a1b604082015260600190565b6020808252600b908201526a4552525f4d41585f46454560a81b604082015260600190565b6020808252601390820152724552525f4241445f4c494d49545f505249434560681b604082015260600190565b6020808252600e908201526d11549497d3525397d5d15251d21560921b604082015260600190565b60208082526011908201527011549497d393d517d19253905312569151607a1b604082015260600190565b60208082526010908201526f4552525f4d554c5f4f564552464c4f5760801b604082015260600190565b6020808252600c908201526b11549497d0905117d213d4d560a21b604082015260600190565b6020808252600f908201526e4552525f4c494d49545f505249434560881b604082015260600190565b6020808252600c908201526b4552525f4449565f5a45524f60a01b604082015260600190565b6020808252601390820152724552525f535741505f4e4f545f5055424c494360681b604082015260600190565b6020808252600f908201526e4552525f45524332305f46414c534560881b604082015260600190565b6020808252601190820152704552525f5355425f554e444552464c4f5760781b604082015260600190565b60208082526010908201526f4552525f4144445f4f564552464c4f5760801b604082015260600190565b6020808252600e908201526d4552525f4d494e5f544f4b454e5360901b604082015260600190565b9384526001600160a01b0392909216602080850191909152604080850192909252825115156060808601919091529083015160808501529082015160a0840152015160c082015260e00190565b8581526001600160a01b038516602082015260806040820181905260009061568d9083018587615040565b90508260608301529695505050505050565b918252602082015260400190565b948552602085019390935260408401919091526060830152608082015260a00190565b958652602086019490945260408501929092526060840152608083015260a082015260c00190565b60ff91909116815260200190565b60005b83811015615721578181015183820152602001615709565b83811115615730576000848401525b50505050565b6001600160a01b038116811461434d57600080fd5b801515811461434d57600080fdfe556e737570706f727465642063616c6c6261636b202d20204265666f72652041677265656d656e74205465726d696e6174656463982df10efd8dfaaaa0fcc7f50b2d93b7cba26ccc48adee2873220d485dc39ae74c91552b64c2e2e7bd255639e004e693bd3e1d01cc33e65610b86afcc1ffed8c5be1e5ebec7d5bd14f71427d1e84f3dd0314c0f7b2291e5b200ac8c7c3b925556e737570706f727465642063616c6c6261636b202d204265666f72652041677265656d656e742075706461746564556e737570706f727465642063616c6c6261636b202d204265666f72652041677265656d656e742043726561746564a2646970667358221220e1d35428256d12cc43a898c9803d44bbdcdf6c54dbed09d62a869260a7411fab64736f6c63430007060033a26469706673582212200db670e16ad8e0464e00a712cc43949b48f9558e21c72f29ba07dcdbb6a17c2964736f6c63430007060033",
  "deployedBytecode": "0x608060405234801561001057600080fd5b506004361061002b5760003560e01c80633e68680a14610030575b600080fd5b61005e6004803603604081101561004657600080fd5b506001600160a01b038135811691602001351661007a565b604080516001600160a01b039092168252519081900360200190f35b600080838360405161008b90610130565b6001600160a01b03928316815291166020820152604080519182900301906000f0801580156100be573d6000803e3d6000fd5b509050806001600160a01b03166392eefe9b336040518263ffffffff1660e01b815260040180826001600160a01b03168152602001915050600060405180830381600087803b15801561011057600080fd5b505af1158015610124573d6000803e3d6000fd5b50929695505050505050565b615c648061013e8339019056fe60c0604052601360808190527f42616c616e63657220506f6f6c20546f6b656e0000000000000000000000000060a09081526200004091600391906200025a565b506040805180820190915260038082526210941560ea1b60209092019182526200006d916004916200025a565b506005805460ff191660121790553480156200008857600080fd5b5060405162005c6438038062005c64833981016040819052620000ab9162000306565b6001600160a01b038216620000dd5760405162461bcd60e51b8152600401620000d4906200037b565b60405180910390fd5b6001600160a01b038116620001065760405162461bcd60e51b8152600401620000d49062000344565b6040516315a722b960e31b8152641500000001906001600160a01b0384169063ad3915c8906200013b908490600401620003b2565b600060405180830381600087803b1580156200015657600080fd5b505af11580156200016b573d6000803e3d6000fd5b5050600d80546001600160a01b038088166001600160a01b0319928316178355600e8054918816919092161790556040516381365a4d60e01b815273__$6a06799d2eeadea7f0f1d393eececa95a1$__93506381365a4d9250620001d39190600401620003b2565b60006040518083038186803b158015620001ec57600080fd5b505af415801562000201573d6000803e3d6000fd5b5050600680546005805462010000600160b01b031916336201000081029190911790915564e8d4a510006007556001600160a01b03199091161760ff60a01b1916905550506008805460ff1916905550620003d4915050565b828054600181600116156101000203166002900490600052602060002090601f016020900481019282620002925760008555620002dd565b82601f10620002ad57805160ff1916838001178555620002dd565b82800160010185558215620002dd579182015b82811115620002dd578251825591602001919060010190620002c0565b50620002eb929150620002ef565b5090565b5b80821115620002eb5760008155600101620002f0565b6000806040838503121562000319578182fd5b82516200032681620003bb565b60208401519092506200033981620003bb565b809150509250929050565b60208082526013908201527f636661206973207a65726f206164647265737300000000000000000000000000604082015260600190565b60208082526014908201527f686f7374206973207a65726f2061646472657373000000000000000000000000604082015260600190565b90815260200190565b6001600160a01b0381168114620003d157600080fd5b50565b61588080620003e46000396000f3fe608060405234801561001057600080fd5b50600436106103c55760003560e01c8063884d1f40116101ff578063be3bbd2e1161011a578063d86ed3e5116100ad578063ec0930211161007c578063ec0930211461074e578063f1b8a9b714610756578063f8b2cb4f14610769578063fde924f71461077c576103c5565b8063d86ed3e514610715578063dd62ed3e14610728578063e4a28a5214610428578063e4e1e5381461073b576103c5565b8063cd2ed8fb116100e9578063cd2ed8fb146106df578063cf5e7bd3146106e7578063d4cadf68146106fa578063d73dd62314610702576103c5565b8063be3bbd2e146106ba578063c36596a614610466578063c6580d12146106cf578063cc77828d146106d7576103c5565b80639a86139b11610192578063b7b800a411610161578063b7b800a41461069a578063ba019dab146106a2578063bc063e1a146106aa578063bc694ea2146106b2576103c5565b80639a86139b14610664578063a9059cbb1461066c578063b02f0b731461067f578063b0e0d13614610692576103c5565b80639381cd2b116101ce5780639381cd2b14610639578063948d8ce61461064157806395d89b4114610654578063992e2a921461065c576103c5565b8063884d1f40146106035780638d4e40831461061657806392eefe9b1461061e578063936c347714610631576103c5565b806334e19907116102ef5780635f9e7d771161028257806376c7a3c71161025157806376c7a3c7146105bf5780637c5e9ea4146105c75780638201aa3f146105e8578063867378c5146105fb576103c5565b80635f9e7d771461057357806366188463146105865780636d06dfa01461059957806370a08231146105ac576103c5565b80634bb278f3116102be5780634bb278f3146105325780634f69c0d41461053a57806353c11f991461054d5780635db3427714610560576103c5565b806334e19907146104e45780633fdddaa2146104f957806346ab38f11461050c57806349b595521461051f576103c5565b8063189d00ca116103675780632f37b624116103365780632f37b624146104945780633018205f146104a757806330d9c915146104bc578063313ce567146104cf576103c5565b8063189d00ca1461045e578063218b538214610466578063230dbd291461046e57806323b872dd14610481576103c5565b806309a3bbe4116103a357806309a3bbe4146104285780631446a7ff1461043057806315e84af91461044357806318160ddd14610456576103c5565b806302c96748146103ca57806306fdde03146103f3578063095ea7b314610408575b600080fd5b6103dd6103d8366004614d31565b610784565b6040516103ea919061513f565b60405180910390f35b6103fb610ae0565b6040516103ea9190615164565b61041b610416366004614cb5565b610b76565b6040516103ea9190615134565b6103dd610bca565b6103dd61043e366004614c3d565b610bd7565b6103dd610451366004614c3d565b610d68565b6103dd610e9f565b6103dd610ea5565b6103dd610eb9565b6103fb61047c366004614ed0565b610ec5565b61041b61048f366004614c75565b610fc6565b61041b6104a2366004614c05565b611120565b6104af61113e565b6040516103ea9190615096565b6103fb6104ca366004614e34565b611179565b6104d76111b2565b6040516103ea91906156f8565b6104f76104f2366004614f97565b6111bb565b005b6104f7610507366004614d31565b6112d6565b6103dd61051a366004614d31565b611695565b6104f761052d366004614d65565b61191a565b6104f7611a01565b6104f7610548366004614fc7565b611b36565b6103fb61055b366004614ed0565b611dde565b6103dd61056e366004614d31565b611e3a565b6103fb610581366004614e34565b612133565b61041b610594366004614cb5565b61216c565b6103dd6105a7366004614d31565b612244565b6103dd6105ba366004614c05565b6124b2565b6103dd6124cd565b6105da6105d5366004614ce0565b6124df565b6040516103ea92919061569f565b6105da6105f6366004614ce0565b612b4a565b6103dd613129565b6103fb610611366004614e34565b61313d565b61041b613176565b6104f761062c366004614c05565b61317f565b6103dd613249565b6103dd61327b565b6103dd61064f366004614c05565b613288565b6103fb61330a565b6103dd61336b565b6103dd613377565b61041b61067a366004614cb5565b613384565b6104f761068d366004614fc7565b61339a565b6103dd61367d565b6103dd613682565b6103dd613687565b6103dd61368c565b6103dd61369c565b6106c26136a8565b6040516103ea91906150e7565b6103dd613754565b6106c2613759565b6103dd613784565b6104f76106f5366004614c05565b61378a565b6103dd613b28565b61041b610710366004614cb5565b613b5a565b6103fb610723366004614ed0565b613bdb565b6103dd610736366004614c3d565b613c39565b6104f7610749366004614d31565b613c64565b6103dd61406d565b6103dd610764366004614c05565b61407d565b6103dd610777366004614c05565b614111565b61041b614166565b60405160009033906001600160e01b0319833516906107a69084903690615148565b60405180910390a2600554610100900460ff16156107df5760405162461bcd60e51b81526004016107d690615360565b60405180910390fd5b6005805461ff0019166101001790556001600160a01b038085166000908152600a60205260408120549091169061081582614176565b60085490915060ff1661083a5760405162461bcd60e51b81526004016107d690615478565b6001600160a01b0386166000908152600b602052604090205460ff166108725760405162461bcd60e51b81526004016107d6906153d7565b61088b816003670de0b6b3a76400005b0460010161422a565b8511156108aa5760405162461bcd60e51b81526004016107d6906153ac565b6001600160a01b0382166000908152600b6020526040908190206002808201549054600c5460075494516382f652ad60e01b8152939473__$6a06799d2eeadea7f0f1d393eececa95a1$__946382f652ad94610911948994919390928e91906004016156d0565b60206040518083038186803b15801561092957600080fd5b505af415801561093d573d6000803e3d6000fd5b505050506040513d601f19601f820116820180604052508101906109619190614faf565b9350836109805760405162461bcd60e51b81526004016107d69061521b565b848411156109a05760405162461bcd60e51b81526004016107d69061533a565b6109aa82876142a3565b600382015560006109bb858261422a565b9050876001600160a01b0316336001600160a01b03166000805160206157ad833981519152896040516109ee919061513f565b60405180910390a3610a0033866142dc565b610a12610a0d86836142ea565b614344565b600554610a2e906201000090046001600160a01b031682614350565b610a3984338961435a565b604080516080810182526001815260006020820152600284015481830152606081018590529051630613fced60e11b815273__$6a06799d2eeadea7f0f1d393eececa95a1$__91630c27f9da91610a9a91600d918991600b91600401615615565b60006040518083038186803b158015610ab257600080fd5b505af4158015610ac6573d6000803e3d6000fd5b50505050505050506005805461ff00191690559392505050565b60038054604080516020601f6002600019610100600188161502019095169490940493840181900481028201810190925282815260609390929091830182828015610b6c5780601f10610b4157610100808354040283529160200191610b6c565b820191906000526020600020905b815481529060010190602001808311610b4f57829003601f168201915b5050505050905090565b3360008181526001602090815260408083206001600160a01b038716808552908352818420869055815186815291519394909390926000805160206157cd833981519152928290030190a350600192915050565b6802b5e3af16b188000081565b600554600090610100900460ff1615610c025760405162461bcd60e51b81526004016107d690615360565b6001600160a01b038084166000908152600a6020908152604080832054868516845281842054908516808552600b9093529220549092919091169060ff16610c5c5760405162461bcd60e51b81526004016107d6906153d7565b6001600160a01b0381166000908152600b602052604090205460ff16610c945760405162461bcd60e51b81526004016107d6906153d7565b6001600160a01b038083166000908152600b60205260408082209284168252902073__$6a06799d2eeadea7f0f1d393eececa95a1$__63a221ee49610cd886614176565b8460020154610ce687614176565b856002015460006040518663ffffffff1660e01b8152600401610d0d9594939291906156ad565b60206040518083038186803b158015610d2557600080fd5b505af4158015610d39573d6000803e3d6000fd5b505050506040513d601f19601f82011682018060405250810190610d5d9190614faf565b979650505050505050565b600554600090610100900460ff1615610d935760405162461bcd60e51b81526004016107d690615360565b6001600160a01b038084166000908152600a6020908152604080832054868516845281842054908516808552600b9093529220549092919091169060ff16610ded5760405162461bcd60e51b81526004016107d6906153d7565b6001600160a01b0381166000908152600b602052604090205460ff16610e255760405162461bcd60e51b81526004016107d6906153d7565b6001600160a01b038083166000908152600b60205260408082209284168252902073__$6a06799d2eeadea7f0f1d393eececa95a1$__63a221ee49610e6986614176565b8460020154610e7787614176565b85600201546007546040518663ffffffff1660e01b8152600401610d0d9594939291906156ad565b60025490565b6402540be400670de0b6b3a76400005b0481565b670de0b6b3a764000081565b600d546060906001600160a01b03163314610ef25760405162461bcd60e51b81526004016107d690615385565b610f236040518060400160405280601081526020016f61677265656d656e742075706461746560801b8152506144fc565b60405163a42b510160e01b815273__$6a06799d2eeadea7f0f1d393eececa95a1$__9063a42b510190610f6490600d908e9088908890600b90600401615662565b60006040518083038186803b158015610f7c57600080fd5b505af4158015610f90573d6000803e3d6000fd5b505050506040513d6000823e601f3d908101601f19168201604052610fb89190810190614d9d565b9a9950505050505050505050565b6000336001600160a01b038516148061100257506001600160a01b03841660009081526001602090815260408083203384529091529020548211155b61104b576040805162461bcd60e51b815260206004820152601560248201527422a9292fa12a27a5a2a72fa120a22fa1a0a62622a960591b604482015290519081900360640190fd5b6110568484846145a2565b336001600160a01b0385161480159061109457506001600160a01b038416600090815260016020908152604080832033845290915290205460001914155b15611116576001600160a01b03841660009081526001602090815260408083203384529091529020546110c790836142ea565b6001600160a01b03858116600090815260016020908152604080832033808552908352928190208590558051948552519287169391926000805160206157cd8339815191529281900390910190a35b5060019392505050565b6001600160a01b03166000908152600b602052604090205460ff1690565b600554600090610100900460ff16156111695760405162461bcd60e51b81526004016107d690615360565b506006546001600160a01b031690565b606060405162461bcd60e51b815260040180806020018281038252602f81526020018061581c602f913960400191505060405180910390fd5b60055460ff1690565b336001600160a01b03166000356001600160e01b0319166001600160e01b0319166000366040516111ed929190615148565b60405180910390a2600554610100900460ff161561121d5760405162461bcd60e51b81526004016107d690615360565b6005805461ff00191661010017905560085460ff161561124f5760405162461bcd60e51b81526004016107d690615291565b6006546001600160a01b031633146112795760405162461bcd60e51b81526004016107d690615177565b64e8d4a5100081101561129e5760405162461bcd60e51b81526004016107d690615244565b67016345785d8a00008111156112c65760405162461bcd60e51b81526004016107d6906153fe565b6007556005805461ff0019169055565b336001600160a01b03166000356001600160e01b0319166001600160e01b031916600036604051611308929190615148565b60405180910390a2600554610100900460ff16156113385760405162461bcd60e51b81526004016107d690615360565b6005805461ff001916610100179055600654336001600160a01b03909116146113735760405162461bcd60e51b81526004016107d690615177565b6001600160a01b0383166000908152600b602052604090205460ff166113ab5760405162461bcd60e51b81526004016107d6906153d7565b60085460ff16156113ce5760405162461bcd60e51b81526004016107d690615291565b670de0b6b3a76400008110156113f65760405162461bcd60e51b81526004016107d690615450565b6802b5e3af16b188000081111561141f5760405162461bcd60e51b81526004016107d690615269565b6001600160a01b0383166000818152600b602081815260408084208151608081018352815460ff1615158152600182015481850152600282015492810183905260039091015460608201529490935252808311156114be5761148c600c5461148785846142a3565b6146b2565b600c8190556802b5e3af16b188000010156114b95760405162461bcd60e51b81526004016107d6906152bb565b6114df565b808310156114df576114db600c546114d683866142a3565b6142a3565b600c555b6001600160a01b0385166000908152600b6020526040812060020184905561150686614176565b6001600160a01b0387166000908152600b6020526040902060030186905590508085111561158057611542863361153d88856142a3565b6146d7565b6001600160a01b0386163360008051602061578d83398151915261156688856142a3565b604051611573919061513f565b60405180910390a3611613565b8085101561161357600061159482876142a3565b905060006115a382600061422a565b90506115b988336115b485856142a3565b61435a565b6005546115d79089906201000090046001600160a01b03168361435a565b876001600160a01b0316336001600160a01b03166000805160206157ad83398151915284604051611608919061513f565b60405180910390a350505b604051630613fced60e11b815273__$6a06799d2eeadea7f0f1d393eececa95a1$__90630c27f9da9061165290600d908a90600b908990600401615615565b60006040518083038186803b15801561166a57600080fd5b505af415801561167e573d6000803e3d6000fd5b50506005805461ff00191690555050505050505050565b60405160009033906001600160e01b0319833516906116b79084903690615148565b60405180910390a2600554610100900460ff16156116e75760405162461bcd60e51b81526004016107d690615360565b6005805461ff0019166101001790556001600160a01b038085166000908152600a60205260408120549091169061171d82614176565b60085490915060ff166117425760405162461bcd60e51b81526004016107d690615478565b6001600160a01b0382166000908152600b602052604090205460ff1661177a5760405162461bcd60e51b81526004016107d6906153d7565b6001600160a01b0382166000908152600b6020526040908190206002808201549054600c546007549451634494c00960e11b8152939473__$6a06799d2eeadea7f0f1d393eececa95a1$__946389298012946117e1948994919390928e91906004016156d0565b60206040518083038186803b1580156117f957600080fd5b505af415801561180d573d6000803e3d6000fd5b505050506040513d601f19601f820116820180604052508101906118319190614faf565b9350848410156118535760405162461bcd60e51b81526004016107d6906152e9565b611867826003670de0b6b3a7640000610882565b8411156118865760405162461bcd60e51b81526004016107d6906153ac565b61189082856142a3565b600382015560006118a1878261422a565b9050876001600160a01b0316336001600160a01b03166000805160206157ad833981519152876040516118d4919061513f565b60405180910390a36118e633886142dc565b6118f3610a0d88836142ea565b60055461190f906201000090046001600160a01b031682614350565b610a3984338761435a565b336001600160a01b03166000356001600160e01b0319166001600160e01b03191660003660405161194c929190615148565b60405180910390a2600554610100900460ff161561197c5760405162461bcd60e51b81526004016107d690615360565b6005805461ff00191661010017905560085460ff16156119ae5760405162461bcd60e51b81526004016107d690615291565b6006546001600160a01b031633146119d85760405162461bcd60e51b81526004016107d690615177565b60068054911515600160a01b0260ff60a01b199092169190911790556005805461ff0019169055565b336001600160a01b03166000356001600160e01b0319166001600160e01b031916600036604051611a33929190615148565b60405180910390a2600554610100900460ff1615611a635760405162461bcd60e51b81526004016107d690615360565b6005805461ff001916610100179055600654336001600160a01b0390911614611a9e5760405162461bcd60e51b81526004016107d690615177565b60085460ff1615611ac15760405162461bcd60e51b81526004016107d690615291565b60095460021115611ae45760405162461bcd60e51b81526004016107d6906155ed565b6008805460ff191660011790556006805460ff60a01b1916600160a01b179055611b1668056bc75e2d6310000061487b565b611b293368056bc75e2d63100000614350565b6005805461ff0019169055565b336001600160a01b03166000356001600160e01b0319166001600160e01b031916600036604051611b68929190615148565b60405180910390a2600554610100900460ff1615611b985760405162461bcd60e51b81526004016107d690615360565b6005805461ff00191661010017905560085460ff16611bc95760405162461bcd60e51b81526004016107d690615478565b6000611bd3610e9f565b90506000611be18583614884565b905080611c005760405162461bcd60e51b81526004016107d69061521b565b60005b600954811015611db857600060098281548110611c1c57fe5b60009182526020808320909101546001600160a01b0316808352600b825260408084208151608081018352815460ff1615158152600182015494810194909452600281015491840191909152600301546060830152925090611c7d83614176565b90506000611c8b868361422a565b905080611caa5760405162461bcd60e51b81526004016107d69061521b565b888886818110611cb657fe5b90506020020135811115611cdc5760405162461bcd60e51b81526004016107d69061533a565b611ce682826146b2565b6001600160a01b0385166000818152600b602052604090819020600301929092559051339060008051602061578d83398151915290611d2690859061513f565b60405180910390a3611d398433836146d7565b604051630613fced60e11b815273__$6a06799d2eeadea7f0f1d393eececa95a1$__90630c27f9da90611d7890600d908890600b908990600401615615565b60006040518083038186803b158015611d9057600080fd5b505af4158015611da4573d6000803e3d6000fd5b505060019096019550611c03945050505050565b50611dc28561487b565b611dcc3386614350565b50506005805461ff0019169055505050565b600d546060906001600160a01b03163314611e0b5760405162461bcd60e51b81526004016107d690615385565b610f236040518060400160405280600e81526020016d61677265656d656e74207465726d60901b8152506144fc565b60405160009033906001600160e01b031983351690611e5c9084903690615148565b60405180910390a2600554610100900460ff1615611e8c5760405162461bcd60e51b81526004016107d690615360565b6005805461ff0019166101001790556001600160a01b038085166000908152600a602052604081205490911690611ec282614176565b60085490915060ff16611ee75760405162461bcd60e51b81526004016107d690615478565b6001600160a01b0386166000908152600b602052604090205460ff16611f1f5760405162461bcd60e51b81526004016107d6906153d7565b611f35816002670de0b6b3a76400005b0461422a565b851115611f545760405162461bcd60e51b81526004016107d6906151f1565b6001600160a01b0382166000908152600b6020526040908190206002808201549054600c546007549451638656b65360e01b8152939473__$6a06799d2eeadea7f0f1d393eececa95a1$__94638656b65394611fbb948994919390928e91906004016156d0565b60206040518083038186803b158015611fd357600080fd5b505af4158015611fe7573d6000803e3d6000fd5b505050506040513d601f19601f8201168201806040525081019061200b9190614faf565b93508484101561202d5760405162461bcd60e51b81526004016107d6906152e9565b61203782876146b2565b60038201556040516001600160a01b03881690339060008051602061578d83398151915290612067908a9061513f565b60405180910390a36120788461487b565b6120823385614350565b61208d8333886146d7565b604080516080810182526001815260006020820152600283015481830152606081018490529051630613fced60e11b815273__$6a06799d2eeadea7f0f1d393eececa95a1$__91630c27f9da916120ee91600d918891600b91600401615615565b60006040518083038186803b15801561210657600080fd5b505af415801561211a573d6000803e3d6000fd5b505050505050506005805461ff00191690559392505050565b606060405162461bcd60e51b815260040180806020018281038252603381526020018061575a6033913960400191505060405180910390fd5b3360009081526001602090815260408083206001600160a01b0386168452909152812054808311156121c1573360009081526001602090815260408083206001600160a01b03881684529091528120556121f0565b6121cb81846142ea565b3360009081526001602090815260408083206001600160a01b03891684529091529020555b3360008181526001602090815260408083206001600160a01b0389168085529083529281902054815190815290519293926000805160206157cd833981519152929181900390910190a35060019392505050565b60405160009033906001600160e01b0319833516906122669084903690615148565b60405180910390a2600554610100900460ff16156122965760405162461bcd60e51b81526004016107d690615360565b6005805461ff0019166101001790556001600160a01b038085166000908152600a6020526040812054909116906122cc82614176565b60085490915060ff166122f15760405162461bcd60e51b81526004016107d690615478565b6001600160a01b0382166000908152600b602052604090205460ff166123295760405162461bcd60e51b81526004016107d6906153d7565b6001600160a01b0382166000908152600b6020526040908190206002808201549054600c546007549451635c1bbaf760e01b8152939473__$6a06799d2eeadea7f0f1d393eececa95a1$__94635c1bbaf794612390948994919390928e91906004016156d0565b60206040518083038186803b1580156123a857600080fd5b505af41580156123bc573d6000803e3d6000fd5b505050506040513d601f19601f820116820180604052508101906123e09190614faf565b9350836123ff5760405162461bcd60e51b81526004016107d69061521b565b8484111561241f5760405162461bcd60e51b81526004016107d69061533a565b612433826002670de0b6b3a7640000611f2f565b8411156124525760405162461bcd60e51b81526004016107d6906151f1565b61245c82856146b2565b60038201556040516001600160a01b03881690339060008051602061578d8339815191529061248c90889061513f565b60405180910390a361249d8661487b565b6124a73387614350565b61208d8333866146d7565b6001600160a01b031660009081526020819052604090205490565b620f4240670de0b6b3a7640000610eb5565b604051600090819033906001600160e01b0319833516906125039084903690615148565b60405180910390a2600554610100900460ff16156125335760405162461bcd60e51b81526004016107d690615360565b6005805461ff001916610100179055604080516080810182526001600160a01b03808a166000908152600a602081815285832054841685528a84168352908152848220548316818501528385018290526060840182905283519092168152600b909152919091205460ff166125ba5760405162461bcd60e51b81526004016107d6906153d7565b6020808201516001600160a01b03166000908152600b909152604090205460ff166125f75760405162461bcd60e51b81526004016107d6906153d7565b600654600160a01b900460ff166126205760405162461bcd60e51b81526004016107d690615542565b80516001600160a01b039081166000908152600b60209081526040808320918501519093168252919020825161265590614176565b6040840152602083015161266890614176565b60608401819052612683906003670de0b6b3a7640000610882565b8711156126a25760405162461bcd60e51b81526004016107d6906153ac565b600073__$6a06799d2eeadea7f0f1d393eececa95a1$__63a221ee4985604001518560020154876060015186600201546007546040518663ffffffff1660e01b81526004016126f59594939291906156ad565b60206040518083038186803b15801561270d57600080fd5b505af4158015612721573d6000803e3d6000fd5b505050506040513d601f19601f820116820180604052508101906127459190614faf565b9050868111156127675760405162461bcd60e51b81526004016107d690615423565b73__$6a06799d2eeadea7f0f1d393eececa95a1$__63f8d6aed485604001518560020154876060015186600201548d6007546040518763ffffffff1660e01b81526004016127ba969594939291906156d0565b60206040518083038186803b1580156127d257600080fd5b505af41580156127e6573d6000803e3d6000fd5b505050506040513d601f19601f8201168201806040525081019061280a9190614faf565b95508986111561282c5760405162461bcd60e51b81526004016107d69061533a565b73__$6a06799d2eeadea7f0f1d393eececa95a1$__63a221ee496128548660400151896146b2565b856002015461286788606001518d6142a3565b86600201546007546040518663ffffffff1660e01b815260040161288f9594939291906156ad565b60206040518083038186803b1580156128a757600080fd5b505af41580156128bb573d6000803e3d6000fd5b505050506040513d601f19601f820116820180604052508101906128df9190614faf565b9450808510156129015760405162461bcd60e51b81526004016107d69061521b565b868511156129215760405162461bcd60e51b81526004016107d6906154f3565b61292b8689614884565b81111561294a5760405162461bcd60e51b81526004016107d69061521b565b886001600160a01b03168b6001600160a01b0316336001600160a01b03167f908fb5ee8f16c6bc9bc3690973819f32a4d4b10188134543c88706e0e1d43378898c60405161299992919061569f565b60405180910390a460408051608081018252845460ff16151581526001850154602082015260028501548183015260038501546060820152908501516129df90886146b2565b600385015584516129f19033896146d7565b8451604051630613fced60e11b815273__$6a06799d2eeadea7f0f1d393eececa95a1$__91630c27f9da91612a3091600d91600b908790600401615615565b60006040518083038186803b158015612a4857600080fd5b505af4158015612a5c573d6000803e3d6000fd5b505060408051608081018252865460ff1615158152600187015460208201526002870154918101919091526003860154606080830191909152880151909250612aa691508b6142a3565b60038501556020860151612abb90338c61435a565b6020860151604051630613fced60e11b815273__$6a06799d2eeadea7f0f1d393eececa95a1$__91630c27f9da91612afd91600d91600b908790600401615615565b60006040518083038186803b158015612b1557600080fd5b505af4158015612b29573d6000803e3d6000fd5b505050505050505050506005805461ff001916905590969095509350505050565b604051600090819033906001600160e01b031983351690612b6e9084903690615148565b60405180910390a2600554610100900460ff1615612b9e5760405162461bcd60e51b81526004016107d690615360565b6005805461ff001916610100179055604080516080810182526001600160a01b03808a166000908152600a602081815285832054841685528a84168352908152848220548316818501528385018290526060840182905283519092168152600b909152919091205460ff16612c255760405162461bcd60e51b81526004016107d6906153d7565b6020808201516001600160a01b03166000908152600b909152604090205460ff16612c625760405162461bcd60e51b81526004016107d6906153d7565b600654600160a01b900460ff16612c8b5760405162461bcd60e51b81526004016107d690615542565b80516001600160a01b039081166000908152600b602090815260408083209185015190931682529190208251612cc090614176565b60408401526020830151612cd390614176565b60608401526040830151612cf1906002670de0b6b3a7640000611f2f565b891115612d105760405162461bcd60e51b81526004016107d6906151f1565b600073__$6a06799d2eeadea7f0f1d393eececa95a1$__63a221ee4985604001518560020154876060015186600201546007546040518663ffffffff1660e01b8152600401612d639594939291906156ad565b60206040518083038186803b158015612d7b57600080fd5b505af4158015612d8f573d6000803e3d6000fd5b505050506040513d601f19601f82011682018060405250810190612db39190614faf565b905086811115612dd55760405162461bcd60e51b81526004016107d690615423565b73__$6a06799d2eeadea7f0f1d393eececa95a1$__63ba9530a685604001518560020154876060015186600201548f6007546040518763ffffffff1660e01b8152600401612e28969594939291906156d0565b60206040518083038186803b158015612e4057600080fd5b505af4158015612e54573d6000803e3d6000fd5b505050506040513d601f19601f82011682018060405250810190612e789190614faf565b955087861015612e9a5760405162461bcd60e51b81526004016107d6906152e9565b73__$6a06799d2eeadea7f0f1d393eececa95a1$__63a221ee49612ec286604001518d6146b2565b8560020154612ed588606001518b6142a3565b86600201546007546040518663ffffffff1660e01b8152600401612efd9594939291906156ad565b60206040518083038186803b158015612f1557600080fd5b505af4158015612f29573d6000803e3d6000fd5b505050506040513d601f19601f82011682018060405250810190612f4d9190614faf565b945080851015612f6f5760405162461bcd60e51b81526004016107d69061521b565b86851115612f8f5760405162461bcd60e51b81526004016107d6906154f3565b612f998a87614884565b811115612fb85760405162461bcd60e51b81526004016107d69061521b565b886001600160a01b03168b6001600160a01b0316336001600160a01b03167f908fb5ee8f16c6bc9bc3690973819f32a4d4b10188134543c88706e0e1d433788d8a60405161300792919061569f565b60405180910390a460408051608081018252845460ff161515815260018501546020820152600285015481830152600385015460608201529085015161304d908c6146b2565b6003850155845161305f90338d6146d7565b8451604051630613fced60e11b815273__$6a06799d2eeadea7f0f1d393eececa95a1$__91630c27f9da9161309e91600d91600b908790600401615615565b60006040518083038186803b1580156130b657600080fd5b505af41580156130ca573d6000803e3d6000fd5b505060408051608081018252865460ff16151581526001870154602082015260028701549181019190915260038601546060808301919091528801519092506131149150896142a3565b60038501556020860151612abb90338a61435a565b64e8d4a51000670de0b6b3a7640000610eb5565b606060405162461bcd60e51b815260040180806020018281038252602f8152602001806157ed602f913960400191505060405180910390fd5b60085460ff1690565b336001600160a01b03166000356001600160e01b0319166001600160e01b0319166000366040516131b1929190615148565b60405180910390a2600554610100900460ff16156131e15760405162461bcd60e51b81526004016107d690615360565b6005805461ff001916610100179055600654336001600160a01b039091161461321c5760405162461bcd60e51b81526004016107d690615177565b600680546001600160a01b0319166001600160a01b03929092169190911790556005805461ff0019169055565b600554600090610100900460ff16156132745760405162461bcd60e51b81526004016107d690615360565b50600c5490565b68056bc75e2d6310000081565b600554600090610100900460ff16156132b35760405162461bcd60e51b81526004016107d690615360565b6001600160a01b0382166000908152600b602052604090205460ff166132eb5760405162461bcd60e51b81526004016107d6906153d7565b506001600160a01b03166000908152600b602052604090206002015490565b60048054604080516020601f6002600019610100600188161502019095169490940493840181900481028201810190925282815260609390929091830182828015610b6c5780601f10610b4157610100808354040283529160200191610b6c565b6704a03ce68d21555681565b6542524f4e5a4560d01b90565b60006133913384846145a2565b50600192915050565b336001600160a01b03166000356001600160e01b0319166001600160e01b0319166000366040516133cc929190615148565b60405180910390a2600554610100900460ff16156133fc5760405162461bcd60e51b81526004016107d690615360565b6005805461ff00191661010017905560085460ff1661342d5760405162461bcd60e51b81526004016107d690615478565b6000613437610e9f565b9050600061344685600061422a565b9050600061345486836142a3565b905060006134628285614884565b9050806134815760405162461bcd60e51b81526004016107d69061521b565b61348b33886142dc565b6005546134a7906201000090046001600160a01b031684614350565b6134b082614344565b60005b600954811015613668576000600982815481106134cc57fe5b60009182526020808320909101546001600160a01b0316808352600b825260408084208151608081018352815460ff161515815260018201549481019490945260028101549184019190915260030154606083015292509061352d83614176565b9050600061353b868361422a565b90508061355a5760405162461bcd60e51b81526004016107d69061521b565b8a8a8681811061356657fe5b9050602002013581101561358c5760405162461bcd60e51b81526004016107d6906152e9565b61359682826142a3565b6001600160a01b0385166000818152600b60205260409081902060030192909255905133906000805160206157ad833981519152906135d690859061513f565b60405180910390a36135e984338361435a565b604051630613fced60e11b815273__$6a06799d2eeadea7f0f1d393eececa95a1$__90630c27f9da9061362890600d908890600b908990600401615615565b60006040518083038186803b15801561364057600080fd5b505af4158015613654573d6000803e3d6000fd5b5050600190960195506134b3945050505050565b50506005805461ff0019169055505050505050565b600881565b600281565b600181565b600a670de0b6b3a7640000610eb5565b671bc16d674ec7ffff81565b600554606090610100900460ff16156136d35760405162461bcd60e51b81526004016107d690615360565b60085460ff166136f55760405162461bcd60e51b81526004016107d690615478565b6009805480602002602001604051908101604052809291908181526020018280548015610b6c57602002820191906000526020600020905b81546001600160a01b0316815260019091019060200180831161372d575050505050905090565b600081565b600554606090610100900460ff16156136f55760405162461bcd60e51b81526004016107d690615360565b60095490565b336001600160a01b03166000356001600160e01b0319166001600160e01b0319166000366040516137bc929190615148565b60405180910390a2600554610100900460ff16156137ec5760405162461bcd60e51b81526004016107d690615360565b6005805461ff001916610100179055600654336001600160a01b03909116146138275760405162461bcd60e51b81526004016107d690615177565b6001600160a01b0381166000908152600b602052604090205460ff1661385f5760405162461bcd60e51b81526004016107d6906153d7565b60085460ff16156138825760405162461bcd60e51b81526004016107d690615291565b600061388d82614176565b9050600061389c82600061422a565b600c546001600160a01b0385166000908152600b60205260409020600201549192506138c7916142a3565b600c556001600160a01b0383166000908152600b60205260409020600101546009805460001981019190829081106138fb57fe5b600091825260209091200154600980546001600160a01b03909216918490811061392157fe5b9060005260206000200160006101000a8154816001600160a01b0302191690836001600160a01b0316021790555081600b60006009858154811061396157fe5b60009182526020808320909101546001600160a01b03168352820192909252604001902060010155600980548061399457fe5b60008281526020808220600019908401810180546001600160a01b031916905590920190925560408051608081018252838152808301848152818301858152606083018681526001600160a01b038c16808852600b8752968590209351845460ff191690151517845591516001840155516002830155516003909101558051631dce337960e31b8152905163ee719bc892600480840193919291829003018186803b158015613a4257600080fd5b505afa158015613a56573d6000803e3d6000fd5b505050506040513d601f19601f82011682018060405250810190613a7a9190614c21565b6001600160a01b031663095ea7b38660006040518363ffffffff1660e01b8152600401613aa89291906150ce565b602060405180830381600087803b158015613ac257600080fd5b505af1158015613ad6573d6000803e3d6000fd5b505050506040513d601f19601f82011682018060405250810190613afa9190614d81565b50613b0a85336115b487876142a3565b600554611dcc9086906201000090046001600160a01b03168561435a565b600554600090610100900460ff1615613b535760405162461bcd60e51b81526004016107d690615360565b5060075490565b3360009081526001602090815260408083206001600160a01b0386168452909152812054613b889083614918565b3360008181526001602090815260408083206001600160a01b0389168085529083529281902085905580519485525191936000805160206157cd833981519152929081900390910190a350600192915050565b600d546060906001600160a01b03163314613c085760405162461bcd60e51b81526004016107d690615385565b610f236040518060400160405280601081526020016f61677265656d656e742063726561746560801b8152506144fc565b6001600160a01b03918216600090815260016020908152604080832093909416825291909152205490565b336001600160a01b03166000356001600160e01b0319166001600160e01b031916600036604051613c96929190615148565b60405180910390a26006546001600160a01b03163314613cc85760405162461bcd60e51b81526004016107d690615177565b6001600160a01b0383166000908152600b602052604090205460ff1615613d015760405162461bcd60e51b81526004016107d6906151a3565b60085460ff1615613d245760405162461bcd60e51b81526004016107d690615291565b600954600811613d465760405162461bcd60e51b81526004016107d6906151c9565b826001600160a01b03166320bc44256040518163ffffffff1660e01b815260040160206040518083038186803b158015613d7f57600080fd5b505afa158015613d93573d6000803e3d6000fd5b505050506040513d601f19601f82011682018060405250810190613db79190614c21565b600d546001600160a01b03908116911614613de45760405162461bcd60e51b81526004016107d6906154cd565b6040805160808101825260018082526009805460208085019182526000858701818152606087018281526001600160a01b038c16808452600b85528984209851895460ff19169015151789559451888801559051600288015551600390960195909555825493840183559184527f6e1540171b6c0c960b71a7020d9f60077f6af931a8bbf590da0223dacf75c7af90920180546001600160a01b031916831790558351631dce337960e31b815293518794600a94939263ee719bc892600480840193829003018186803b158015613eba57600080fd5b505afa158015613ece573d6000803e3d6000fd5b505050506040513d601f19601f82011682018060405250810190613ef29190614c21565b6001600160a01b03166001600160a01b0316815260200190815260200160002060006101000a8154816001600160a01b0302191690836001600160a01b03160217905550826001600160a01b031663ee719bc86040518163ffffffff1660e01b815260040160206040518083038186803b158015613f6f57600080fd5b505afa158015613f83573d6000803e3d6000fd5b505050506040513d601f19601f82011682018060405250810190613fa79190614c21565b6001600160a01b031663095ea7b3846000196040518363ffffffff1660e01b8152600401613fd69291906150ce565b602060405180830381600087803b158015613ff057600080fd5b505af1158015614004573d6000803e3d6000fd5b505050506040513d601f19601f820116820180604052508101906140289190614d81565b506040516001600160a01b038416907feb9218e087679078373f04721594f6b59d3cee9733080593d5e49ac61b46494390600090a26140688383836112d6565b505050565b6002670de0b6b3a7640000610eb5565b600554600090610100900460ff16156140a85760405162461bcd60e51b81526004016107d690615360565b6001600160a01b0382166000908152600b602052604090205460ff166140e05760405162461bcd60e51b81526004016107d6906153d7565b6001600160a01b0382166000908152600b6020526040902060020154600c5461410a908290614884565b9392505050565b600554600090610100900460ff161561413c5760405162461bcd60e51b81526004016107d690615360565b6001600160a01b038083166000908152600a60205260409020546141609116614176565b92915050565b600654600160a01b900460ff1690565b6001600160a01b0381166000908152600b602052604081205460ff166141ae5760405162461bcd60e51b81526004016107d6906153d7565b6040516370a0823160e01b81526001600160a01b038316906370a08231906141da903090600401615096565b60206040518083038186803b1580156141f257600080fd5b505afa158015614206573d6000803e3d6000fd5b505050506040513d601f19601f820116820180604052508101906141609190614faf565b600082820283158061424457508284828161424157fe5b04145b6142605760405162461bcd60e51b81526004016107d6906154a3565b6706f05b59d3b2000081018181101561428b5760405162461bcd60e51b81526004016107d6906154a3565b6000670de0b6b3a7640000825b049695505050505050565b60008060006142b28585614965565b9150915080156142d45760405162461bcd60e51b81526004016107d690615598565b509392505050565b6142e6828261498a565b5050565b60008060006142f98585614965565b9150915080156142d4576040805162461bcd60e51b81526020600482015260116024820152704552525f5355425f554e444552464c4f5760781b604482015290519081900360640190fd5b61434d81614995565b50565b6142e68282614a65565b614381604051806040016040528060048152602001630e0eae6d60e31b8152508483614a70565b6040516308de640f60e11b81526001600160a01b038416906311bcc81e906143ad90849060040161513f565b600060405180830381600087803b1580156143c757600080fd5b505af11580156143db573d6000803e3d6000fd5b505050506000836001600160a01b031663ee719bc86040518163ffffffff1660e01b815260040160206040518083038186803b15801561441a57600080fd5b505afa15801561442e573d6000803e3d6000fd5b505050506040513d601f19601f820116820180604052508101906144529190614c21565b90506000816001600160a01b031663a9059cbb85856040518363ffffffff1660e01b81526004016144849291906150ce565b602060405180830381600087803b15801561449e57600080fd5b505af11580156144b2573d6000803e3d6000fd5b505050506040513d601f19601f820116820180604052508101906144d69190614d81565b9050806144f55760405162461bcd60e51b81526004016107d69061556f565b5050505050565b61434d816040516024018080602001828103825283818151815260200191508051906020019080838360005b83811015614540578181015183820152602001614528565b50505050905090810190601f16801561456d5780820380516001836020036101000a031916815260200191505b5060408051601f198184030181529190526020810180516001600160e01b031663104c13eb60e21b1790529250614b2f915050565b6001600160a01b038316600090815260208190526040902054811115614606576040805162461bcd60e51b815260206004820152601460248201527311549497d25394d551919250d251539517d0905360621b604482015290519081900360640190fd5b6001600160a01b03831660009081526020819052604090205461462990826142ea565b6001600160a01b0380851660009081526020819052604080822093909355908416815220546146589082614918565b6001600160a01b038084166000818152602081815260409182902094909455805185815290519193928716927fddf252ad1be2c89b69c2b068fc378daa952ba7f163c4a11628f55a4df523b3ef92918290030190a3505050565b60008282018381101561410a5760405162461bcd60e51b81526004016107d6906155c3565b6146fe604051806040016040528060048152602001631c1d5b1b60e21b8152508483614a70565b6000836001600160a01b031663ee719bc86040518163ffffffff1660e01b815260040160206040518083038186803b15801561473957600080fd5b505afa15801561474d573d6000803e3d6000fd5b505050506040513d601f19601f820116820180604052508101906147719190614c21565b90506000816001600160a01b03166323b872dd8530866040518463ffffffff1660e01b81526004016147a5939291906150aa565b602060405180830381600087803b1580156147bf57600080fd5b505af11580156147d3573d6000803e3d6000fd5b505050506040513d601f19601f820116820180604052508101906147f79190614d81565b9050806148165760405162461bcd60e51b81526004016107d69061556f565b6040516345977d0360e01b81526001600160a01b038616906345977d039061484290869060040161513f565b600060405180830381600087803b15801561485c57600080fd5b505af1158015614870573d6000803e3d6000fd5b505050505050505050565b61434d81614b50565b6000816148a35760405162461bcd60e51b81526004016107d69061551c565b670de0b6b3a764000083028315806148cb5750670de0b6b3a76400008482816148c857fe5b04145b6148e75760405162461bcd60e51b81526004016107d690615310565b6002830481018181101561490d5760405162461bcd60e51b81526004016107d690615310565b600084828161429857fe5b60008282018381101561410a576040805162461bcd60e51b815260206004820152601060248201526f4552525f4144445f4f564552464c4f5760801b604482015290519081900360640190fd5b60008082841061497b5750508082036000614983565b505081810360015b9250929050565b6142e68230836145a2565b306000908152602081905260409020548111156149f0576040805162461bcd60e51b815260206004820152601460248201527311549497d25394d551919250d251539517d0905360621b604482015290519081900360640190fd5b30600090815260208190526040902054614a0a90826142ea565b30600090815260208190526040902055600254614a2790826142ea565b60025560408051828152905160009130917fddf252ad1be2c89b69c2b068fc378daa952ba7f163c4a11628f55a4df523b3ef9181900360200190a350565b6142e63083836145a2565b6140688383836040516024018080602001846001600160a01b03168152602001838152602001828103825285818151815260200191508051906020019080838360005b83811015614acb578181015183820152602001614ab3565b50505050905090810190601f168015614af85780820380516001836020036101000a031916815260200191505b5060408051601f198184030181529190526020810180516001600160e01b03166307c8121760e01b1790529450614b2f9350505050565b80516a636f6e736f6c652e6c6f67602083016000808483855afa5050505050565b30600090815260208190526040902054614b6a9082614918565b30600090815260208190526040902055600254614b879082614918565b60025560408051828152905130916000917fddf252ad1be2c89b69c2b068fc378daa952ba7f163c4a11628f55a4df523b3ef9181900360200190a350565b60008083601f840112614bd6578182fd5b50813567ffffffffffffffff811115614bed578182fd5b60208301915083602082850101111561498357600080fd5b600060208284031215614c16578081fd5b813561410a81615736565b600060208284031215614c32578081fd5b815161410a81615736565b60008060408385031215614c4f578081fd5b8235614c5a81615736565b91506020830135614c6a81615736565b809150509250929050565b600080600060608486031215614c89578081fd5b8335614c9481615736565b92506020840135614ca481615736565b929592945050506040919091013590565b60008060408385031215614cc7578182fd5b8235614cd281615736565b946020939093013593505050565b600080600080600060a08688031215614cf7578081fd5b8535614d0281615736565b9450602086013593506040860135614d1981615736565b94979396509394606081013594506080013592915050565b600080600060608486031215614d45578283fd5b8335614d5081615736565b95602085013595506040909401359392505050565b600060208284031215614d76578081fd5b813561410a8161574b565b600060208284031215614d92578081fd5b815161410a8161574b565b600060208284031215614dae578081fd5b815167ffffffffffffffff80821115614dc5578283fd5b818401915084601f830112614dd8578283fd5b815181811115614de457fe5b604051601f8201601f191681016020018381118282101715614e0257fe5b604052818152838201602001871015614e19578485fd5b614e2a826020830160208701615706565b9695505050505050565b600080600080600080600060a0888a031215614e4e578182fd5b8735614e5981615736565b96506020880135614e6981615736565b955060408801359450606088013567ffffffffffffffff80821115614e8c578384fd5b614e988b838c01614bc5565b909650945060808a0135915080821115614eb0578384fd5b50614ebd8a828b01614bc5565b989b979a50959850939692959293505050565b600080600080600080600080600060c08a8c031215614eed578283fd5b8935614ef881615736565b985060208a0135614f0881615736565b975060408a0135965060608a013567ffffffffffffffff80821115614f2b578485fd5b614f378d838e01614bc5565b909850965060808c0135915080821115614f4f578485fd5b614f5b8d838e01614bc5565b909650945060a08c0135915080821115614f73578384fd5b50614f808c828d01614bc5565b915080935050809150509295985092959850929598565b600060208284031215614fa8578081fd5b5035919050565b600060208284031215614fc0578081fd5b5051919050565b600080600060408486031215614fdb578081fd5b83359250602084013567ffffffffffffffff80821115614ff9578283fd5b818601915086601f83011261500c578283fd5b81358181111561501a578384fd5b876020808302850101111561502d578384fd5b6020830194508093505050509250925092565b60008284528282602086013780602084860101526020601f19601f85011685010190509392505050565b60008151808452615082816020860160208601615706565b601f01601f19169290920160200192915050565b6001600160a01b0391909116815260200190565b6001600160a01b039384168152919092166020820152604081019190915260600190565b6001600160a01b03929092168252602082015260400190565b6020808252825182820181905260009190848201906040850190845b818110156151285783516001600160a01b031683529284019291840191600101615103565b50909695505050505050565b901515815260200190565b90815260200190565b60006020825261515c602083018486615040565b949350505050565b60006020825261410a602083018461506a565b60208082526012908201527122a9292fa727aa2fa1a7a72a2927a62622a960711b604082015260600190565b6020808252600c908201526b11549497d254d7d093d5539160a21b604082015260600190565b6020808252600e908201526d4552525f4d41585f544f4b454e5360901b604082015260600190565b60208082526010908201526f4552525f4d41585f494e5f524154494f60801b604082015260600190565b6020808252600f908201526e08aa4a4be9a82a890be82a0a0a49eb608b1b604082015260600190565b6020808252600b908201526a4552525f4d494e5f46454560a81b604082015260600190565b6020808252600e908201526d11549497d3505617d5d15251d21560921b604082015260600190565b60208082526010908201526f11549497d254d7d1925390531256915160821b604082015260600190565b60208082526014908201527311549497d3505617d513d5105317d5d15251d21560621b604082015260600190565b6020808252600d908201526c11549497d31253525517d3d555609a1b604082015260600190565b60208082526010908201526f11549497d1125597d25395115493905360821b604082015260600190565b6020808252600c908201526b22a9292fa624a6a4aa2fa4a760a11b604082015260600190565b6020808252600b908201526a4552525f5245454e54525960a81b604082015260600190565b6020808252600d908201526c45525220484f5354204f4e4c5960981b604082015260600190565b6020808252601190820152704552525f4d41585f4f55545f524154494f60781b604082015260600190565b6020808252600d908201526c11549497d393d517d093d55391609a1b604082015260600190565b6020808252600b908201526a4552525f4d41585f46454560a81b604082015260600190565b6020808252601390820152724552525f4241445f4c494d49545f505249434560681b604082015260600190565b6020808252600e908201526d11549497d3525397d5d15251d21560921b604082015260600190565b60208082526011908201527011549497d393d517d19253905312569151607a1b604082015260600190565b60208082526010908201526f4552525f4d554c5f4f564552464c4f5760801b604082015260600190565b6020808252600c908201526b11549497d0905117d213d4d560a21b604082015260600190565b6020808252600f908201526e4552525f4c494d49545f505249434560881b604082015260600190565b6020808252600c908201526b4552525f4449565f5a45524f60a01b604082015260600190565b6020808252601390820152724552525f535741505f4e4f545f5055424c494360681b604082015260600190565b6020808252600f908201526e4552525f45524332305f46414c534560881b604082015260600190565b6020808252601190820152704552525f5355425f554e444552464c4f5760781b604082015260600190565b60208082526010908201526f4552525f4144445f4f564552464c4f5760801b604082015260600190565b6020808252600e908201526d4552525f4d494e5f544f4b454e5360901b604082015260600190565b9384526001600160a01b0392909216602080850191909152604080850192909252825115156060808601919091529083015160808501529082015160a0840152015160c082015260e00190565b8581526001600160a01b038516602082015260806040820181905260009061568d9083018587615040565b90508260608301529695505050505050565b918252602082015260400190565b948552602085019390935260408401919091526060830152608082015260a00190565b958652602086019490945260408501929092526060840152608083015260a082015260c00190565b60ff91909116815260200190565b60005b83811015615721578181015183820152602001615709565b83811115615730576000848401525b50505050565b6001600160a01b038116811461434d57600080fd5b801515811461434d57600080fdfe556e737570706f727465642063616c6c6261636b202d20204265666f72652041677265656d656e74205465726d696e6174656463982df10efd8dfaaaa0fcc7f50b2d93b7cba26ccc48adee2873220d485dc39ae74c91552b64c2e2e7bd255639e004e693bd3e1d01cc33e65610b86afcc1ffed8c5be1e5ebec7d5bd14f71427d1e84f3dd0314c0f7b2291e5b200ac8c7c3b925556e737570706f727465642063616c6c6261636b202d204265666f72652041677265656d656e742075706461746564556e737570706f727465642063616c6c6261636b202d204265666f72652041677265656d656e742043726561746564a2646970667358221220e1d35428256d12cc43a898c9803d44bbdcdf6c54dbed09d62a869260a7411fab64736f6c63430007060033a26469706673582212200db670e16ad8e0464e00a712cc43949b48f9558e21c72f29ba07dcdbb6a17c2964736f6c63430007060033",
  "libraries": {
    "StreamSwapLibrary": "0x5072E905d7dDE866328bFa0ed3ec46d1b0FcbF6E"
  },
  "devdoc": {
    "kind": "dev",
    "methods": {},
    "version": 1
  },
  "userdoc": {
    "kind": "user",
    "methods": {},
    "version": 1
  },
  "storageLayout": {
    "storage": [],
    "types": null
  }
}