{
  "address": "0x5072E905d7dDE866328bFa0ed3ec46d1b0FcbF6E",
  "abi": [
    {
      "anonymous": false,
      "inputs": [
        {
          "indexed": true,
          "internalType": "address",
          "name": "caller",
          "type": "address"
        },
        {
          "indexed": true,
          "internalType": "address",
          "name": "tokenIn",
          "type": "address"
        },
        {
          "indexed": true,
          "internalType": "address",
          "name": "tokenOut",
          "type": "address"
        },
        {
          "indexed": false,
          "internalType": "uint256",
          "name": "minOut",
          "type": "uint256"
        },
        {
          "indexed": false,
          "internalType": "uint256",
          "name": "maxOut",
          "type": "uint256"
        },
        {
          "indexed": false,
          "internalType": "uint256",
          "name": "tokenRateIn",
          "type": "uint256"
        }
      ],
      "name": "LOG_SET_FLOW",
      "type": "event"
    },
    {
      "anonymous": false,
      "inputs": [
        {
          "indexed": true,
          "internalType": "address",
          "name": "receiver",
          "type": "address"
        },
        {
          "indexed": true,
          "internalType": "address",
          "name": "tokenIn",
          "type": "address"
        },
        {
          "indexed": true,
          "internalType": "address",
          "name": "tokenOut",
          "type": "address"
        },
        {
          "indexed": false,
          "internalType": "uint256",
          "name": "tokenRateOut",
          "type": "uint256"
        }
      ],
      "name": "LOG_SET_FLOW_RATE",
      "type": "event"
    },
    {
      "inputs": [],
      "name": "BONE",
      "outputs": [
        {
          "internalType": "uint256",
          "name": "",
          "type": "uint256"
        }
      ],
      "stateMutability": "view",
      "type": "function"
    },
    {
      "inputs": [],
      "name": "BPOW_PRECISION",
      "outputs": [
        {
          "internalType": "uint256",
          "name": "",
          "type": "uint256"
        }
      ],
      "stateMutability": "view",
      "type": "function"
    },
    {
      "inputs": [],
      "name": "EXIT_FEE",
      "outputs": [
        {
          "internalType": "uint256",
          "name": "",
          "type": "uint256"
        }
      ],
      "stateMutability": "view",
      "type": "function"
    },
    {
      "inputs": [],
      "name": "MAX_BPOW_BASE",
      "outputs": [
        {
          "internalType": "uint256",
          "name": "",
          "type": "uint256"
        }
      ],
      "stateMutability": "view",
      "type": "function"
    },
    {
      "inputs": [],
      "name": "MIN_BPOW_BASE",
      "outputs": [
        {
          "internalType": "uint256",
          "name": "",
          "type": "uint256"
        }
      ],
      "stateMutability": "view",
      "type": "function"
    },
    {
      "inputs": [
        {
          "internalType": "uint256",
          "name": "tokenBalanceIn",
          "type": "uint256"
        },
        {
          "internalType": "uint256",
          "name": "tokenWeightIn",
          "type": "uint256"
        },
        {
          "internalType": "uint256",
          "name": "tokenBalanceOut",
          "type": "uint256"
        },
        {
          "internalType": "uint256",
          "name": "tokenWeightOut",
          "type": "uint256"
        },
        {
          "internalType": "uint256",
          "name": "tokenAmountOut",
          "type": "uint256"
        },
        {
          "internalType": "uint256",
          "name": "swapFee",
          "type": "uint256"
        }
      ],
      "name": "calcInGivenOut",
      "outputs": [
        {
          "internalType": "uint256",
          "name": "tokenAmountIn",
          "type": "uint256"
        }
      ],
      "stateMutability": "pure",
      "type": "function"
    },
    {
      "inputs": [
        {
          "internalType": "uint256",
          "name": "tokenBalanceIn",
          "type": "uint256"
        },
        {
          "internalType": "uint256",
          "name": "tokenWeightIn",
          "type": "uint256"
        },
        {
          "internalType": "uint256",
          "name": "tokenBalanceOut",
          "type": "uint256"
        },
        {
          "internalType": "uint256",
          "name": "tokenWeightOut",
          "type": "uint256"
        },
        {
          "internalType": "uint256",
          "name": "tokenAmountIn",
          "type": "uint256"
        },
        {
          "internalType": "uint256",
          "name": "swapFee",
          "type": "uint256"
        }
      ],
      "name": "calcOutGivenIn",
      "outputs": [
        {
          "internalType": "uint256",
          "name": "tokenAmountOut",
          "type": "uint256"
        }
      ],
      "stateMutability": "pure",
      "type": "function"
    },
    {
      "inputs": [
        {
          "internalType": "uint256",
          "name": "tokenBalanceOut",
          "type": "uint256"
        },
        {
          "internalType": "uint256",
          "name": "tokenWeightOut",
          "type": "uint256"
        },
        {
          "internalType": "uint256",
          "name": "poolSupply",
          "type": "uint256"
        },
        {
          "internalType": "uint256",
          "name": "totalWeight",
          "type": "uint256"
        },
        {
          "internalType": "uint256",
          "name": "tokenAmountOut",
          "type": "uint256"
        },
        {
          "internalType": "uint256",
          "name": "swapFee",
          "type": "uint256"
        }
      ],
      "name": "calcPoolInGivenSingleOut",
      "outputs": [
        {
          "internalType": "uint256",
          "name": "poolAmountIn",
          "type": "uint256"
        }
      ],
      "stateMutability": "pure",
      "type": "function"
    },
    {
      "inputs": [
        {
          "internalType": "uint256",
          "name": "tokenBalanceIn",
          "type": "uint256"
        },
        {
          "internalType": "uint256",
          "name": "tokenWeightIn",
          "type": "uint256"
        },
        {
          "internalType": "uint256",
          "name": "poolSupply",
          "type": "uint256"
        },
        {
          "internalType": "uint256",
          "name": "totalWeight",
          "type": "uint256"
        },
        {
          "internalType": "uint256",
          "name": "tokenAmountIn",
          "type": "uint256"
        },
        {
          "internalType": "uint256",
          "name": "swapFee",
          "type": "uint256"
        }
      ],
      "name": "calcPoolOutGivenSingleIn",
      "outputs": [
        {
          "internalType": "uint256",
          "name": "poolAmountOut",
          "type": "uint256"
        }
      ],
      "stateMutability": "pure",
      "type": "function"
    },
    {
      "inputs": [
        {
          "internalType": "uint256",
          "name": "tokenBalanceIn",
          "type": "uint256"
        },
        {
          "internalType": "uint256",
          "name": "tokenWeightIn",
          "type": "uint256"
        },
        {
          "internalType": "uint256",
          "name": "poolSupply",
          "type": "uint256"
        },
        {
          "internalType": "uint256",
          "name": "totalWeight",
          "type": "uint256"
        },
        {
          "internalType": "uint256",
          "name": "poolAmountOut",
          "type": "uint256"
        },
        {
          "internalType": "uint256",
          "name": "swapFee",
          "type": "uint256"
        }
      ],
      "name": "calcSingleInGivenPoolOut",
      "outputs": [
        {
          "internalType": "uint256",
          "name": "tokenAmountIn",
          "type": "uint256"
        }
      ],
      "stateMutability": "pure",
      "type": "function"
    },
    {
      "inputs": [
        {
          "internalType": "uint256",
          "name": "tokenBalanceOut",
          "type": "uint256"
        },
        {
          "internalType": "uint256",
          "name": "tokenWeightOut",
          "type": "uint256"
        },
        {
          "internalType": "uint256",
          "name": "poolSupply",
          "type": "uint256"
        },
        {
          "internalType": "uint256",
          "name": "totalWeight",
          "type": "uint256"
        },
        {
          "internalType": "uint256",
          "name": "poolAmountIn",
          "type": "uint256"
        },
        {
          "internalType": "uint256",
          "name": "swapFee",
          "type": "uint256"
        }
      ],
      "name": "calcSingleOutGivenPoolIn",
      "outputs": [
        {
          "internalType": "uint256",
          "name": "tokenAmountOut",
          "type": "uint256"
        }
      ],
      "stateMutability": "pure",
      "type": "function"
    },
    {
      "inputs": [
        {
          "internalType": "uint256",
          "name": "tokenBalanceIn",
          "type": "uint256"
        },
        {
          "internalType": "uint256",
          "name": "tokenWeightIn",
          "type": "uint256"
        },
        {
          "internalType": "uint256",
          "name": "tokenBalanceOut",
          "type": "uint256"
        },
        {
          "internalType": "uint256",
          "name": "tokenWeightOut",
          "type": "uint256"
        },
        {
          "internalType": "uint256",
          "name": "swapFee",
          "type": "uint256"
        }
      ],
      "name": "calcSpotPrice",
      "outputs": [
        {
          "internalType": "uint256",
          "name": "spotPrice",
          "type": "uint256"
        }
      ],
      "stateMutability": "pure",
      "type": "function"
    }
  ],
  "transactionHash": "0x1b1a6daa2d30f44f7dbbd10682e5f460b09f51a6cfba034a922e267d407aee4d",
  "args": [],
  "solcInputHash": "4273277d1a0698b3d28b34fed26934dd",
  "bytecode": "0x6143dd610026600b82828239805160001a60731461001957fe5b30600052607381538281f3fe73000000000000000000000000000000000000000030146080604052600436106100ff5760003560e01c8063a221ee49116100a1578063bc694ea211610070578063bc694ea21461020b578063c36596a614610213578063c6580d121461021b578063f8d6aed414610223576100ff565b8063a221ee49146101b0578063a42b5101146101c3578063ba019dab146101f0578063ba9530a6146101f8576100ff565b806381365a4d116100dd57806381365a4d1461015757806382f652ad146101775780638656b6531461018a578063892980121461019d576100ff565b80630c27f9da14610104578063189d00ca146101265780635c1bbaf714610144575b600080fd5b81801561011057600080fd5b5061012461011f366004613ce3565b610236565b005b61012e610774565b60405161013b9190614319565b60405180910390f35b61012e610152366004613f88565b61077c565b81801561016357600080fd5b50610124610172366004613ccb565b610836565b61012e610185366004613f88565b6109d2565b61012e610198366004613f88565b610a91565b61012e6101ab366004613f88565b610b32565b61012e6101be366004613f4e565b610be2565b8180156101cf57600080fd5b506101e36101de366004613d83565b610c47565b60405161013b9190614072565b61012e611d91565b61012e610206366004613f88565b611d96565b61012e611e17565b61012e611e23565b61012e611e2f565b61012e610231366004613f88565b611e34565b6001600160a01b0383166000908152600385016020908152604091829020548251808401909352601183527075706461746520666c6f7720726174657360781b918301919091526001600160401b03169061029090611eb7565b801561073d576102c160405180604001604052806009815260200168646f696e67206f6e6560b81b81525082611f60565b60008560020182815481106102d257fe5b600091825260208220600790910201805490925081906001600160a01b03888116911614156103aa57606085015160408087015160018601546001600160a01b0316600090815260208a90529182206003808201546002909201549088015461033b9594611d96565b6001600160a01b0380891660009081526020899052604080822060038082015460029283015460018b01549096168552928420808201549201549089015495975061038c9592949391929091611d96565b6005840154600160c01b90046001600160401b031694509050610455565b82546001600160a01b031660009081526020879052604080822060038082015460029092015460608a0151938a0151918801546103ed9593949193919291611d96565b83546001600160a01b03908116600090815260208990526040808220600380820154600292830154958e168552928420808201549201549089015495975061043b9592949391929091611d96565b6005840154600160401b90046001600160401b0316945090505b60048301546001600160801b03161580159061047d575060048301546001600160801b031681105b806104b957506004830154600160801b90046001600160801b0316158015906104b957506004830154600160801b90046001600160801b031681115b156105db576104ed6040518060400160405280600c81526020016b6f7574206f662072616e676560a01b8152508383612012565b604080518082019091526005815264726174657360d81b6020820152600484015461052c91906001600160801b0380821691600160801b900416612012565b60068301546001600160401b0316156105d357610573604051806040016040528060138152602001727374617274696e67206465616374697661746560681b815250611eb7565b60018301546002840154610596918a916001600160a01b039182169116856120cd565b8254600284015460038501546105bf928b926001600160a01b039182169291169060009061244a565b60068301805467ffffffffffffffff191690555b505050610290565b60068301546001600160401b031661068757610621604051806040016040528060138152602001727374617274696e67207265616374697661746560681b815250611eb7565b825460028401546003850154610647928b926001600160a01b03918216929116906120cd565b6001830154600284015461066c918a916001600160a01b03918216911660008561244a565b60068301805467ffffffffffffffff191660011790556106dd565b6106b96040518060400160405280600f81526020016e6368616e6765206f7574207261746560881b8152508383612012565b600183015460028401546106dd918a916001600160a01b039182169116858561244a565b6001830154835460028501546040516001600160a01b039384169392831692909116907f9ab0a930f2c210eb36903601e72d91de56cc38aa170b33cf99fc71a4118f05aa9061072d908690614319565b60405180910390a4505050610290565b61076d6040518060400160405280600f81526020016e66696e69736865642075706461746560881b815250611eb7565b5050505050565b6305f5e10081565b6000806107898786612641565b9050600061079787866126e2565b905060006107a58289612641565b905060006107bb670de0b6b3a764000085612641565b905060006107c9838361270e565b905060006107d7828e6127c1565b905060006107e5828f612833565b905060006108046107fe670de0b6b3a76400008a612833565b8b6127c1565b90506108218261081c670de0b6b3a764000084612833565b612641565b985050505050505050505b9695505050505050565b604080516101808101825260008082526020808301828152938301828152606084018381526080850184815260a0860185815260c0870186815260e0880187815261010089018881526101208a018981526101408b018a81526101608c018b815260029e8f01805460018181018355918e529b909c209c516007909b02909c0180546001600160a01b039b8c166001600160a01b03199182161782559d519b810180549c8c169c8f169c909c17909b5597519c8a0180549d9099169c909b169b909b1790965592516003870155905160048601805492516001600160801b03908116600160801b9081029382166001600160801b0319909516949094171691909117905590516005850180549451985197516001600160401b03908116600160c01b026001600160c01b0399821690940267ffffffffffffffff60801b199a8216600160401b90810267ffffffffffffffff60401b1995841667ffffffffffffffff19998a16178616179b909b161798909816929092179091559051600690930180549451861690960292909416921691909117909116179055565b6000806109df8786612641565b905060006109f5670de0b6b3a764000083612833565b90506000610a0382866127c1565b90506000610a1d8761081c670de0b6b3a764000085612833565b90506000610a2b8c83612833565b90506000610a39828e612641565b90506000610a47828861270e565b90506000610a55828e6127c1565b90506000610a638e83612833565b9050610a7c8161081c670de0b6b3a76400006000612833565b99505050505050505050509695505050505050565b600080610a9e8786612641565b90506000610abd610ab7670de0b6b3a764000084612833565b856127c1565b90506000610adc86610ad7670de0b6b3a764000085612833565b6127c1565b90506000610aea8b836126e2565b90506000610af8828d612641565b90506000610b06828761270e565b90506000610b14828d6127c1565b9050610b20818d612833565b9e9d5050505050505050505050505050565b600080610b3f8786612641565b90506000610b5a85610ad7670de0b6b3a76400006000612833565b90506000610b688883612833565b90506000610b76828a612641565b90506000610b9582610b90670de0b6b3a764000088612641565b61270e565b90506000610ba3828e6127c1565b90506000610bb18e83612833565b90506000610bca6107fe670de0b6b3a76400008a612833565b905061082182610ad7670de0b6b3a764000084612833565b600080610bef8787612641565b90506000610bfd8686612641565b90506000610c0b8383612641565b90506000610c2d670de0b6b3a764000061081c670de0b6b3a764000089612833565b9050610c3982826127c1565b9a9950505050505050505050565b8354604051631fb6491d60e11b81526060916000916001600160a01b0390911690633f6c923a90610c7c908790600401614072565b60006040518083038186803b158015610c9457600080fd5b505afa158015610ca8573d6000803e3d6000fd5b505050506040513d6000823e601f3d908101601f19168201604052610cd09190810190613e19565b90506000610ce18260a0015161286c565b9050610d236040518060400160405280601781526020017f73747265616d73776170617267733a206465636f6465640000000000000000008152508251611f60565b60408051808201825260608401516001600160a01b03908116600090815260048b016020908152848220928b168252918252838120546001600160401b031683528183018190528351808501909452600f84526e666f756e64206578697374696e673f60881b9184019190915291610dac9083838160200201516001600160401b031611612970565b60005b835181101561175a576000848281518110610dc657fe5b60200260200101516020015111610df85760405162461bcd60e51b8152600401610def90614244565b60405180910390fd5b838181518110610e0457fe5b60200260200101516020015183019250600060405180608001604052808960008d6001600160a01b03166001600160a01b031681526020019081526020016000206003015481526020018960008d6001600160a01b03166001600160a01b03168152602001908152602001600020600201548152602001896000888681518110610e8a57fe5b6020026020010151600001516001600160a01b03166001600160a01b03168152602001908152602001600020600301548152602001896000888681518110610ece57fe5b6020026020010151600001516001600160a01b03166001600160a01b03168152602001908152602001600020600201548152509050610f4060405180604001604052806012815260200171676f742073757065722062616c616e63657360701b81525082600001518360400151612012565b82516001600160401b0316156112bb57825160028c0180546000926001600160401b0316908110610f6d57fe5b9060005260206000209060070201905060006040518061018001604052808d6001600160a01b03168152602001888681518110610fa657fe5b6020026020010151600001516001600160a01b0316815260200189606001516001600160a01b03168152602001888681518110610fdf57fe5b6020026020010151602001518152602001888681518110610ffc57fe5b6020026020010151604001516001600160801b0316815260200188868151811061102257fe5b6020908102919091018101516060908101516001600160801b0316835260009183018290526040830182905282018190526080820181905260068501546001600160401b031660a083015260c09091015290506110838d8d8d848688612a20565b60018301548851919c506001600160a01b0316908890869081106110a357fe5b6020026020010151600001516001600160a01b0316146111da57600182015460058301546110f8918f916001600160a01b03909116906001600160401b03600160801b8204811691600160401b900416612f7c565b86848151811061110457fe5b6020026020010151600001518260010160006101000a8154816001600160a01b0302191690836001600160a01b0316021790555060008d600301600089878151811061114c57fe5b6020026020010151600001516001600160a01b03166001600160a01b0316815260200190815260200160002060009054906101000a90046001600160401b031690506111b28e89878151811061119e57fe5b602090810291909101015151885184612f7c565b6111d88e8987815181106111c257fe5b6020908102919091010151518851600090612f7c565b505b8684815181106111e657fe5b602002602001015160200151826003018190555086848151811061120657fe5b6020026020010151604001518260040160006101000a8154816001600160801b0302191690836001600160801b0316021790555086848151811061124657fe5b602090810291909101810151606001516004840180546001600160801b03908116600160801b919093160291909117905561014091909101516006909201805467ffffffffffffffff19166001600160401b0393841617908190558551831691860191909152600160401b9004168352611751565b60006040518061018001604052808c6001600160a01b031681526020018785815181106112e457fe5b6020026020010151600001516001600160a01b0316815260200188606001516001600160a01b0316815260200187858151811061131d57fe5b602002602001015160200151815260200187858151811061133a57fe5b6020026020010151604001516001600160801b0316815260200187858151811061136057fe5b6020026020010151606001516001600160801b0316815260200160006001600160401b031681526020018d600301600089878151811061139c57fe5b6020026020010151600001516001600160a01b03166001600160a01b0316815260200190815260200160002060009054906101000a90046001600160401b03166001600160401b0316815260200160006001600160401b031681526020018d60030160008e6001600160a01b03166001600160a01b0316815260200190815260200160002060009054906101000a90046001600160401b03166001600160401b0316815260200160016001600160401b0316815260200160006001600160401b0316815250905060008c60020160008154811061147557fe5b906000526020600020906007020190506114938d8d8d858588612a20565b60028e810180546001808201835560008381526020808220895160079095020180546001600160a01b03199081166001600160a01b03968716178255918a01518185018054841691871691909117905560408a01519681018054909216969094169590951790945560608701516003830155608087015160048301805460a08a01516001600160801b03199091166001600160801b03938416178316600160801b93909116830217905560c088015160058401805460e08b01516101008c01516101208d015167ffffffffffffffff199384166001600160401b039687161767ffffffffffffffff60401b19908116600160401b94881685021767ffffffffffffffff60801b1916928716909702919091176001600160c01b0316600160c01b91861691909102179092556101408b0151600690960180546101608d01519216968416969096179093169290911602179091559054929d506000199290920191879060200201516001600160401b03161115611663578060028f0187600160200201516001600160401b03168154811061162957fe5b906000526020600020906007020160060160086101000a8154816001600160401b0302191690836001600160401b031602179055506116d7565b808e60040160008b606001516001600160a01b03166001600160a01b0316815260200190815260200160002060008f6001600160a01b03166001600160a01b0316815260200190815260200160002060006101000a8154816001600160401b0302191690836001600160401b031602179055505b6116e88e8e83866101200151612f7c565b6116f58e8e600084612f7c565b61171c8e89878151811061170557fe5b602002602001015160000151838660e00151612f7c565b6117408e89878151811061172c57fe5b602002602001015160000151600084612f7c565b6001600160401b0316602086015250505b50600101610daf565b5061179260405180604001604052806016815260200175646f6e652077697468206578697374696e672069647360501b815250611eb7565b80516001600160401b031615611ca6576117c6604051806040016040528060038152602001620706f760ec1b815250611eb7565b805160028a0180546000926001600160401b03169081106117e357fe5b90600052602060002090600702019050600060405180608001604052808960008d6001600160a01b03166001600160a01b031681526020019081526020016000206003015481526020018960008d6001600160a01b03166001600160a01b031681526020019081526020016000206002015481526020018960008560010160009054906101000a90046001600160a01b03166001600160a01b03166001600160a01b031681526020019081526020016000206003015481526020018960008560010160009054906101000a90046001600160a01b03166001600160a01b03166001600160a01b031681526020019081526020016000206002015481525090506119cc8b8b8b8e6002016000815481106118f857fe5b60009182526020918290206040805161018081018252600790930290910180546001600160a01b03908116845260018201548116948401949094526002810154909316908201526003820154606082015260048201546001600160801b038082166080840152600160801b918290041660a083015260058301546001600160401b0380821660c0850152600160401b808304821660e08601529282048116610100850152600160c01b9091048116610120840152600690930154808416610140840152049091166101608201528686612a20565b60058301549099506119f5908c908c906001600160401b0380821691600160c01b900416612f7c565b60018201546005830154611a30918d916001600160a01b03909116906001600160401b03600160801b8204811691600160401b900416612f7c565b600682015460028c018054600160401b9092046001600160401b031691600090611a5657fe5b90600052602060002090600702018c60020185600060028110611a7557fe5b60200201516001600160401b031681548110611a8d57fe5b600091825260208220835460079092020180546001600160a01b03199081166001600160a01b039384161782556001808601548184018054841691861691909117905560028087015490840180549093169416939093179055600380850154908201556004808501805491830180546001600160801b0319166001600160801b03938416178082559154600160801b90819004841681029290931691909117905560058086018054918401805467ffffffffffffffff199081166001600160401b03948516178083558354600160401b908190048616810267ffffffffffffffff60401b19928316178085558554889004871690970267ffffffffffffffff60801b19909716969096178084559354600160c01b908190048616026001600160c01b03909416939093179091556006978801805498909501805490911697831697909717808855935483900490911690910291161790925590859060200201516001600160401b03161115611c5757600060028d0185600160200201516001600160401b031681548110611c1d57fe5b906000526020600020906007020160060160086101000a8154816001600160401b0302191690836001600160401b03160217905550611c93565b60608701516001600160a01b03908116600090815260048e0160209081526040808320938f16835292905220805467ffffffffffffffff191690555b6001600160401b03168352506117929050565b611cd26040518060400160405280600b81526020016a66696e616c20636865636b60a81b815250611eb7565b60018901546060850151604051631cd43d1160e31b81526000926001600160a01b03169163e6a1e88891611d0c918d91309060040161410c565b60806040518083038186803b158015611d2457600080fd5b505afa158015611d38573d6000803e3d6000fd5b505050506040513d601f19601f82011682018060405250810190611d5c9190613f0c565b505091505080600b0b8314611d835760405162461bcd60e51b8152600401610def90614172565b509598975050505050505050565b600181565b600080611da38786612641565b90506000611db9670de0b6b3a764000085612833565b9050611dc585826127c1565b90506000611dd78a61081c8c856126e2565b90506000611de5828561270e565b90506000611dfb670de0b6b3a764000083612833565b9050611e078a826127c1565b9c9b505050505050505050505050565b671bc16d674ec7ffff81565b670de0b6b3a764000081565b600081565b600080611e418588612641565b90506000611e4f8786612833565b90506000611e5d8883612641565b90506000611e6b828561270e565b9050611e7f81670de0b6b3a7640000612833565b9050611e93670de0b6b3a764000087612833565b9450611ea8611ea28c836127c1565b86612641565b9b9a5050505050505050505050565b611f5d816040516024018080602001828103825283818151815260200191508051906020019080838360005b83811015611efb578181015183820152602001611ee3565b50505050905090810190601f168015611f285780820380516001836020036101000a031916815260200191505b5060408051601f198184030181529190526020810180516001600160e01b031663104c13eb60e21b1790529250613190915050565b50565b61200e82826040516024018080602001838152602001828103825284818151815260200191508051906020019080838360005b83811015611fab578181015183820152602001611f93565b50505050905090810190601f168015611fd85780820380516001836020036101000a031916815260200191505b5060408051601f198184030181529190526020810180516001600160e01b03166309710a9d60e41b179052935061319092505050565b5050565b6120c88383836040516024018080602001848152602001838152602001828103825285818151815260200191508051906020019080838360005b8381101561206457818101518382015260200161204c565b50505050905090810190601f1680156120915780820380516001836020036101000a031916815260200191505b5060408051601f198184030181529190526020810180516001600160e01b031663969cdd0360e01b17905294506131909350505050565b505050565b6001600160a01b038316158015906120e55750600081115b15612444576001840154604051631cd43d1160e31b81526000916001600160a01b03169063e6a1e888906121219087903090889060040161410c565b60806040518083038186803b15801561213957600080fd5b505afa15801561214d573d6000803e3d6000fd5b505050506040513d601f19601f820116820180604052508101906121719190613f0c565b50509150506121b060405180604001604052806013815260200172676f74207072657620746f6b656e20666c6f7760681b8152508583600b0b856131b1565b8181600b0b10156121d35760405162461bcd60e51b8152600401610def90614145565b8181600b0b1415612323576122136040518060400160405280601481526020017372656d6f76652070726576696f757320666c6f7760601b815250611eb7565b845460018601546040805160008152602081019091526001600160a01b03928316926339255d5b921690635a5999e360e11b9061225990899030908a906044810161400b565b60408051601f198184030181529181526020820180516001600160e01b03166001600160e01b03199485161790525160e085901b909216825261229f9291600401614085565b600060405180830381600087803b1580156122b957600080fd5b505af11580156122cd573d6000803e3d6000fd5b505050506040513d6000823e601f3d908101601f191682016040526122f59190810190613c39565b5061231e604051806040016040528060078152602001661c995b5bdd995960ca1b815250611eb7565b61076d565b61235860405180604001604052806014815260200173736872696e6b2070726576696f757320666c6f7760601b815250611eb7565b845460018601546040805160008152602081019091526001600160a01b03928316926339255d5b9216906328104d3160e11b906123a59089908990600b89900b8a9003906044810161403f565b60408051601f198184030181529181526020820180516001600160e01b03166001600160e01b03199485161790525160e085901b90921682526123eb9291600401614085565b600060405180830381600087803b15801561240557600080fd5b505af1158015612419573d6000803e3d6000fd5b505050506040513d6000823e601f3d908101601f191682016040526124419190810190613c39565b50505b50505050565b6001600160a01b038416158015906124625750808214155b1561076d576001850154604051631cd43d1160e31b81526000916001600160a01b03169063e6a1e8889061249e9088903090899060040161410c565b60806040518083038186803b1580156124b657600080fd5b505afa1580156124ca573d6000803e3d6000fd5b505050506040513d601f19601f820116820180604052508101906124ee9190613f0c565b50509150506125376040518060400160405280601b81526020017f6e6f20636f6e746578742061646a757374207472616465206f7574000000000081525082600b0b8486613278565b855460018701546001600160a01b03918216916339255d5b9116600b84900b15612568576328104d3160e11b612571565b63317e182f60e11b5b60408051600081526020810190915261259c908a908a90600b89900b8a018b9003906044810161403f565b60408051601f198184030181529181526020820180516001600160e01b03166001600160e01b03199485161790525160e085901b90921682526125e29291600401614085565b600060405180830381600087803b1580156125fc57600080fd5b505af1158015612610573d6000803e3d6000fd5b505050506040513d6000823e601f3d908101601f191682016040526126389190810190613c39565b50505050505050565b6000816126605760405162461bcd60e51b8152600401610def906141ef565b670de0b6b3a764000083028315806126885750670de0b6b3a764000084828161268557fe5b04145b6126a45760405162461bcd60e51b8152600401610def9061419b565b600283048101818110156126ca5760405162461bcd60e51b8152600401610def9061419b565b60008482816126d557fe5b0493505050505b92915050565b6000828201838110156127075760405162461bcd60e51b8152600401610def9061429b565b9392505050565b600060018310156127315760405162461bcd60e51b8152600401610def90614215565b671bc16d674ec7ffff8311156127595760405162461bcd60e51b8152600401610def906142c5565b600061276483613336565b905060006127728483612833565b905060006127888661278385613351565b61335f565b9050816127995792506126dc915050565b60006127aa87846305f5e1006133b6565b90506127b682826127c1565b979650505050505050565b60008282028315806127db5750828482816127d857fe5b04145b6127f75760405162461bcd60e51b8152600401610def906141c5565b6706f05b59d3b200008101818110156128225760405162461bcd60e51b8152600401610def906141c5565b6000670de0b6b3a7640000826126d5565b60008060006128428585613494565b9150915080156128645760405162461bcd60e51b8152600401610def90614270565b509392505050565b60608151600014156128b15760408051600080825260208201909252906128a9565b612896613a90565b81526020019060019003908161288e5790505b50905061296b565b6000828060200190518101906128c79190613ba1565b9050600081516001600160401b03811180156128e257600080fd5b5060405190808252806020026020018201604052801561291c57816020015b612909613a90565b8152602001906001900390816129015790505b50905060005b82518110156129665761294783828151811061293a57fe5b60200260200101516134b9565b82828151811061295357fe5b6020908102919091010152600101612922565b509150505b919050565b61200e828260405160240180806020018315158152602001828103825284818151815260200191508051906020019080838360005b838110156129bd5781810151838201526020016129a5565b50505050905090810190601f1680156129ea5780820380516001836020036101000a031916815260200191505b5060408051601f198184030181529190526020810180516001600160e01b031663c3b5563560e01b179052935061319092505050565b60018201546060906001600160a01b0316158015612a49575060208401516001600160a01b0316155b15612a5557508361082c565b6040805180820182526005815264737461746560d81b6020820152835191840151612a809290612012565b600080846003015411612a94576000612ab7565b612ab7836000015184602001518560400151866060015188600301546000611d96565b9050600080866060015111612acd576000612af0565b612af084600001518560200151866040015187606001518a606001516000611d96565b905085608001516001600160801b0316600014158015612b1c575085608001516001600160801b031681105b80612b4a575060a08601516001600160801b031615801590612b4a57508560a001516001600160801b031681115b15612ca257612b7e6040518060400160405280600c81526020016b6f7574206f662072616e676560a01b8152508383612012565b612bc060405180604001604052806005815260200164726174657360d81b81525087608001516001600160801b03168860a001516001600160801b0316612012565b85606001518560030154141580612be3575060068501546001600160401b031615155b15612c9857612c1a604051806040016040528060118152602001707374617274696e6720696e61637469766560781b815250611eb7565b60068501546001600160401b031615612c555760018501546002860154612c52918b918a916001600160a01b03908116911686613500565b96505b855160408701516006870154612c8d928c928b926001600160401b0316612c80578960030154612c83565b60005b8b6060015161388e565b600061014088015296505b869250505061082c565b60068501546001600160401b0316612d2057612ce8604051806040016040528060138152602001727374617274696e67207265616374697661746560681b815250611eb7565b845460028601546003870154612d11928c928b926001600160a01b039283169290911690613500565b60016101408801529650600091505b602086015160018601546001600160a01b03908116911614612e7857612d6a6040518060400160405280600d81526020016c646f696e67207265706c61636560981b815250611eb7565b60018501546002860154612d8f918b918a916001600160a01b03908116911686613500565b600186015460028701546040519299506001600160a01b03918216928b831692909116907f7622b6833ac59ffc984df3f9a34f43cf6bb909fae42cafee5cd195c668288fae90612de5906000908190819061412f565b60405180910390a4612e0489888860200151896040015160008661388e565b965085602001516001600160a01b0316886001600160a01b031687604001516001600160a01b03167f7622b6833ac59ffc984df3f9a34f43cf6bb909fae42cafee5cd195c668288fae89608001518a60a001518b60600151604051612e6b939291906142f5565b60405180910390a4612f0e565b60018501546002860154612e9e918b918a916001600160a01b039081169116868661388e565b965085602001516001600160a01b0316886001600160a01b031687604001516001600160a01b03167f7622b6833ac59ffc984df3f9a34f43cf6bb909fae42cafee5cd195c668288fae89608001518a60a001518b60600151604051612f05939291906142f5565b60405180910390a45b85602001516001600160a01b031686600001516001600160a01b031687604001516001600160a01b03167f9ab0a930f2c210eb36903601e72d91de56cc38aa170b33cf99fc71a4118f05aa84604051612f679190614319565b60405180910390a45094979650505050505050565b6001600160401b038216612fc3576001600160a01b03831660009081526003850160205260409020805467ffffffffffffffff19166001600160401b038316179055612444565b826001600160a01b031684600201836001600160401b031681548110612fe557fe5b60009182526020909120600790910201546001600160a01b03161415613058578084600201836001600160401b03168154811061301e57fe5b906000526020600020906007020160050160186101000a8154816001600160401b0302191690836001600160401b031602179055506130a7565b8084600201836001600160401b03168154811061307157fe5b906000526020600020906007020160050160086101000a8154816001600160401b0302191690836001600160401b031602179055505b826001600160a01b031684600201826001600160401b0316815481106130c957fe5b60009182526020909120600790910201546001600160a01b0316141561313c578184600201826001600160401b03168154811061310257fe5b906000526020600020906007020160050160006101000a8154816001600160401b0302191690836001600160401b03160217905550612444565b8184600201826001600160401b03168154811061315557fe5b906000526020600020906007020160050160106101000a8154816001600160401b0302191690836001600160401b0316021790555050505050565b80516a636f6e736f6c652e6c6f67602083016000808483855afa5050505050565b612444848484846040516024018080602001856001600160a01b03168152602001848152602001838152602001828103825286818151815260200191508051906020019080838360005b838110156132135781810151838201526020016131fb565b50505050905090810190601f1680156132405780820380516001836020036101000a031916815260200191505b5060408051601f198184030181529190526020810180516001600160e01b031663daa394bd60e01b1790529550613190945050505050565b612444848484846040516024018080602001858152602001848152602001838152602001828103825286818151815260200191508051906020019080838360005b838110156132d15781810151838201526020016132b9565b50505050905090810190601f1680156132fe5780820380516001836020036101000a031916815260200191505b5060408051601f198184030181529190526020810180516001600160e01b03166304772b3360e11b1790529550613190945050505050565b6000670de0b6b3a764000061334a83613351565b0292915050565b670de0b6b3a7640000900490565b6000806002830661337857670de0b6b3a764000061337a565b835b90506002830492505b82156127075761339384856127c1565b935060028306156133ab576133a881856127c1565b90505b600283049250613383565b60008281806133cd87670de0b6b3a7640000613494565b9092509050670de0b6b3a764000080600060015b888410613485576000670de0b6b3a7640000820290506000806134158a61341085670de0b6b3a7640000612833565b613494565b9150915061342787610ad7848c6127c1565b96506134338784612641565b96508661344257505050613485565b871561344c579315935b8015613456579315935b841561346d576134668688612833565b955061347a565b61347786886126e2565b95505b5050506001016133e1565b50909998505050505050505050565b6000808284106134aa57505080820360006134b2565b505081810360015b9250929050565b6134c1613a90565b818060200190518101906134d59190613b52565b6001600160801b03908116606086015216604084015260208301526001600160a01b03168152919050565b60606001600160a01b0384161580159061351a5750600082115b15613884576001860154604051631cd43d1160e31b81526000916001600160a01b03169063e6a1e888906135569088903090899060040161410c565b60806040518083038186803b15801561356e57600080fd5b505afa158015613582573d6000803e3d6000fd5b505050506040513d601f19601f820116820180604052508101906135a69190613f0c565b50509150506135e560405180604001604052806013815260200172676f74207072657620746f6b656e20666c6f7760681b8152508683600b0b866131b1565b8281600b0b10156136085760405162461bcd60e51b8152600401610def90614145565b8281600b0b141561375e576136486040518060400160405280601481526020017372656d6f76652070726576696f757320666c6f7760601b815250611eb7565b865460018801546040805160008152602081019091526001600160a01b0392831692634329d293921690635a5999e360e11b9061368e908a9030908b906044810161400b565b60408051601f198184030181529181526020820180516001600160e01b03166001600160e01b03199485161790525160e085901b90921682526136d692918b906004016140c3565b600060405180830381600087803b1580156136f057600080fd5b505af1158015613704573d6000803e3d6000fd5b505050506040513d6000823e601f3d908101601f1916820160405261372c9190810190613c6b565b5080965050613759604051806040016040528060078152602001661c995b5bdd995960ca1b815250611eb7565b613882565b61379360405180604001604052806014815260200173736872696e6b2070726576696f757320666c6f7760601b815250611eb7565b865460018801546040805160008152602081019091526001600160a01b0392831692634329d2939216906328104d3160e11b906137e0908a908a90600b89900b8b9003906044810161403f565b60408051601f198184030181529181526020820180516001600160e01b03166001600160e01b03199485161790525160e085901b909216825261382892918b906004016140c3565b600060405180830381600087803b15801561384257600080fd5b505af1158015613856573d6000803e3d6000fd5b505050506040513d6000823e601f3d908101601f1916820160405261387e9190810190613c6b565b5095505b505b5092949350505050565b60606001600160a01b038516158015906138a85750818314155b15613a85576001870154604051631cd43d1160e31b81526000916001600160a01b03169063e6a1e888906138e490899030908a9060040161410c565b60806040518083038186803b1580156138fc57600080fd5b505afa158015613910573d6000803e3d6000fd5b505050506040513d601f19601f820116820180604052508101906139349190613f0c565b505091505061397d6040518060400160405280601d81526020017f7769746820636f6e746578742061646a757374207472616465206f757400000081525082600b0b8686613278565b875460018901546001600160a01b0391821691634329d2939116600b84900b156139ae576328104d3160e11b6139b7565b63317e182f60e11b5b6040805160008152602081019091526139e2908b908b90600b89900b8b018c9003906044810161403f565b60408051601f198184030181529181526020820180516001600160e01b03166001600160e01b03199485161790525160e085901b9092168252613a2a92918c906004016140c3565b600060405180830381600087803b158015613a4457600080fd5b505af1158015613a58573d6000803e3d6000fd5b505050506040513d6000823e601f3d908101601f19168201604052613a809190810190613c6b565b509650505b509395945050505050565b60408051608081018252600080825260208201819052918101829052606081019190915290565b805161296b81614392565b80516001600160e01b03198116811461296b57600080fd5b600082601f830112613aea578081fd5b8151613afd613af882614345565b614322565b818152846020838601011115613b11578283fd5b613b22826020830160208701614366565b949350505050565b80516001600160801b038116811461296b57600080fd5b805160ff8116811461296b57600080fd5b60008060008060808587031215613b67578384fd5b8451613b7281614392565b60208601519094509250613b8860408601613b2a565b9150613b9660608601613b2a565b905092959194509250565b60006020808385031215613bb3578182fd5b82516001600160401b0380821115613bc9578384fd5b818501915085601f830112613bdc578384fd5b815181811115613be857fe5b613bf58485830201614322565b8181528481019250838501865b83811015613c2b57613c198a888451890101613ada565b85529386019390860190600101613c02565b509098975050505050505050565b600060208284031215613c4a578081fd5b81516001600160401b03811115613c5f578182fd5b613b2284828501613ada565b60008060408385031215613c7d578182fd5b82516001600160401b0380821115613c93578384fd5b613c9f86838701613ada565b93506020850151915080821115613cb4578283fd5b50613cc185828601613ada565b9150509250929050565b600060208284031215613cdc578081fd5b5035919050565b60008060008084860360e0811215613cf9578283fd5b853594506020860135613d0b81614392565b9350604086013592506080605f1982011215613d25578182fd5b50604051608081018181106001600160401b0382111715613d4257fe5b60405260608601358015158114613d57578283fd5b81526080860135602082015260a0860135604082015260c0909501356060860152509194909350909190565b60008060008060808587031215613d98578182fd5b843593506020850135613daa81614392565b925060408501356001600160401b03811115613dc4578283fd5b8501601f81018713613dd4578283fd5b8035613de2613af882614345565b818152886020838501011115613df6578485fd5b816020840160208301379081016020019390935250929591945092606001359150565b600060208284031215613e2a578081fd5b81516001600160401b0380821115613e40578283fd5b8184019150610140808387031215613e56578384fd5b613e5f81614322565b9050613e6a83613b41565b8152613e7860208401613b41565b602082015260408301516040820152613e9360608401613ab7565b6060820152613ea460808401613ac2565b608082015260a083015182811115613eba578485fd5b613ec687828601613ada565b60a08301525060c083015160c082015260e083015160e0820152610100915081830151828201526101209150613efd828401613ab7565b91810191909152949350505050565b60008060008060808587031215613f21578182fd5b84519350602085015180600b0b8114613f38578283fd5b6040860151606090960151949790965092505050565b600080600080600060a08688031215613f65578283fd5b505083359560208501359550604085013594606081013594506080013592509050565b60008060008060008060c08789031215613fa0578384fd5b505084359660208601359650604086013595606081013595506080810135945060a0013592509050565b60008151808452613fe2816020860160208601614366565b601f01601f19169290920160200192915050565b6002815261060f60f31b602082015260400190565b6001600160a01b03858116825284811660208301528316604082015260806060820181905260009061082c90830184613fca565b6001600160a01b038581168252841660208201526040810183905260806060820181905260009061082c90830184613fca565b6000602082526127076020830184613fca565b6001600160a01b03831681526060602082018190526000906140a990830184613fca565b82810360408401526140ba81613ff6565b95945050505050565b6001600160a01b03841681526080602082018190526000906140e790830185613fca565b82810360408401526140f881613ff6565b9050828103606084015261082c8185613fca565b6001600160a01b0393841681529183166020830152909116604082015260600190565b9283526020830191909152604082015260600190565b6020808252601390820152724552525f494d504f535349424c455f5241544560681b604082015260600190565b6020808252600f908201526e4552525f494e56414c49445f53554d60881b604082015260600190565b60208082526010908201526f11549497d1125597d25395115493905360821b604082015260600190565b60208082526010908201526f4552525f4d554c5f4f564552464c4f5760801b604082015260600190565b6020808252600c908201526b4552525f4449565f5a45524f60a01b604082015260600190565b6020808252601590820152744552525f42504f575f424153455f544f4f5f4c4f5760581b604082015260600190565b60208082526012908201527111549497d253959053125117d05353d5539560721b604082015260600190565b6020808252601190820152704552525f5355425f554e444552464c4f5760781b604082015260600190565b60208082526010908201526f4552525f4144445f4f564552464c4f5760801b604082015260600190565b60208082526016908201527508aa4a4be84a09eaebe8482a68abea89e9ebe90928e960531b604082015260600190565b6001600160801b039384168152919092166020820152604081019190915260600190565b90815260200190565b6040518181016001600160401b038111828210171561433d57fe5b604052919050565b60006001600160401b0382111561435857fe5b50601f01601f191660200190565b60005b83811015614381578181015183820152602001614369565b838111156124445750506000910152565b6001600160a01b0381168114611f5d57600080fdfea2646970667358221220eba3476415c585b0099bc2c937fbebc721da8a3612f1ba25c7785231a5a6e46d64736f6c63430007060033",
  "devdoc": {
    "kind": "dev",
    "methods": {},
    "version": 1
  },
  "userdoc": {
    "kind": "user",
    "methods": {},
    "version": 1
  },
  "storageLayout": {
    "storage": [],
    "types": null
  }
}