{
  "address": "0x45D74383715e53FC52A0de0ff7E503368452e58C",
  "abi": [
    {
      "inputs": [
        {
          "internalType": "contract StreamSwapFactoryHelper",
          "name": "helper",
          "type": "address"
        },
        {
          "internalType": "contract ISuperfluid",
          "name": "host",
          "type": "address"
        },
        {
          "internalType": "contract IConstantFlowAgreementV1",
          "name": "cfa",
          "type": "address"
        }
      ],
      "stateMutability": "nonpayable",
      "type": "constructor"
    },
    {
      "anonymous": false,
      "inputs": [
        {
          "indexed": true,
          "internalType": "address",
          "name": "caller",
          "type": "address"
        },
        {
          "indexed": true,
          "internalType": "address",
          "name": "blabs",
          "type": "address"
        }
      ],
      "name": "LOG_BLABS",
      "type": "event"
    },
    {
      "anonymous": false,
      "inputs": [
        {
          "indexed": true,
          "internalType": "address",
          "name": "caller",
          "type": "address"
        },
        {
          "indexed": true,
          "internalType": "address",
          "name": "pool",
          "type": "address"
        }
      ],
      "name": "LOG_NEW_POOL",
      "type": "event"
    },
    {
      "inputs": [],
      "name": "_cfa",
      "outputs": [
        {
          "internalType": "contract IConstantFlowAgreementV1",
          "name": "",
          "type": "address"
        }
      ],
      "stateMutability": "view",
      "type": "function"
    },
    {
      "inputs": [],
      "name": "_host",
      "outputs": [
        {
          "internalType": "contract ISuperfluid",
          "name": "",
          "type": "address"
        }
      ],
      "stateMutability": "view",
      "type": "function"
    },
    {
      "inputs": [
        {
          "internalType": "contract StreamSwapPool",
          "name": "pool",
          "type": "address"
        }
      ],
      "name": "collect",
      "outputs": [],
      "stateMutability": "nonpayable",
      "type": "function"
    },
    {
      "inputs": [],
      "name": "getBLabs",
      "outputs": [
        {
          "internalType": "address",
          "name": "",
          "type": "address"
        }
      ],
      "stateMutability": "view",
      "type": "function"
    },
    {
      "inputs": [],
      "name": "getColor",
      "outputs": [
        {
          "internalType": "bytes32",
          "name": "",
          "type": "bytes32"
        }
      ],
      "stateMutability": "view",
      "type": "function"
    },
    {
      "inputs": [
        {
          "internalType": "address",
          "name": "b",
          "type": "address"
        }
      ],
      "name": "isBPool",
      "outputs": [
        {
          "internalType": "bool",
          "name": "",
          "type": "bool"
        }
      ],
      "stateMutability": "view",
      "type": "function"
    },
    {
      "inputs": [],
      "name": "newBPool",
      "outputs": [
        {
          "internalType": "contract StreamSwapPool",
          "name": "",
          "type": "address"
        }
      ],
      "stateMutability": "nonpayable",
      "type": "function"
    },
    {
      "inputs": [
        {
          "internalType": "address",
          "name": "b",
          "type": "address"
        }
      ],
      "name": "setBLabs",
      "outputs": [],
      "stateMutability": "nonpayable",
      "type": "function"
    }
  ],
  "transactionHash": "0xa130a950e61198cd54c15de7cdd3e7cb859c62f2c210cf156e7d0b1dbc50ba9b",
  "args": [
    "0x96aEf616D5f1F238bb2021D0C0fF5930EbC20aE1",
    "0x22ff293e14F1EC3A09B137e9e06084AFd63adDF9",
    "0xEd6BcbF6907D4feEEe8a8875543249bEa9D308E8"
  ],
  "solcInputHash": "4273277d1a0698b3d28b34fed26934dd",
  "bytecode": "0x60e060405234801561001057600080fd5b5060405161083f38038061083f8339818101604052606081101561003357600080fd5b5080516020808301516040938401518451632329212160e21b81526001600160a01b038083166004830152955194959294919392851692638ca4848492602480840193829003018186803b15801561008a57600080fd5b505afa15801561009e573d6000803e3d6000fd5b505050506040513d60208110156100b457600080fd5b50516100fc576040805162461bcd60e51b815260206004820152601260248201527111549497d0905117d4d5541154919315525160721b604482015290519081900360640190fd5b7fa9214cc96615e0085d3bb077758db69497dc2dce3b2b1e97bc93c3d18d83efd3816001600160a01b0316637730599e6040518163ffffffff1660e01b815260040160206040518083038186803b15801561015657600080fd5b505afa15801561016a573d6000803e3d6000fd5b505050506040513d602081101561018057600080fd5b5051146101c2576040805162461bcd60e51b815260206004820152600b60248201526a4552525f4241445f43464160a81b604482015290519081900360640190fd5b600180546001600160a01b031916331790556001600160601b0319606093841b811660805291831b821660a05290911b1660c05260805160601c60a05160601c60c05160601c61060a61023560003980610319528061048652508061033d5280610465525080610436525061060a6000f3fe608060405234801561001057600080fd5b50600436106100885760003560e01c80639a86139b1161005b5780639a86139b146100e9578063c2bb6dc214610103578063c6ce34fb1461013d578063d556c5dc1461016357610088565b806306ec16f81461008d57806336ffb167146100b55780637cb4d6d7146100d9578063852e5a0a146100e1575b600080fd5b6100b3600480360360208110156100a357600080fd5b50356001600160a01b031661016b565b005b6100bd610308565b604080516001600160a01b039092168252519081900360200190f35b6100bd610317565b6100bd61033b565b6100f161035f565b60408051918252519081900360200190f35b6101296004803603602081101561011957600080fd5b50356001600160a01b031661036c565b604080519115158252519081900360200190f35b6100b36004803603602081101561015357600080fd5b50356001600160a01b031661038a565b6100bd610431565b6001546001600160a01b031633146101ba576040805162461bcd60e51b815260206004820152600d60248201526c4552525f4e4f545f424c41425360981b604482015290519081900360640190fd5b6000816001600160a01b03166370a08231306040518263ffffffff1660e01b815260040180826001600160a01b0316815260200191505060206040518083038186803b15801561020957600080fd5b505afa15801561021d573d6000803e3d6000fd5b505050506040513d602081101561023357600080fd5b50516001546040805163a9059cbb60e01b81526001600160a01b0392831660048201526024810184905290519293506000929185169163a9059cbb9160448082019260209290919082900301818787803b15801561029057600080fd5b505af11580156102a4573d6000803e3d6000fd5b505050506040513d60208110156102ba57600080fd5b5051905080610303576040805162461bcd60e51b815260206004820152601060248201526f11549497d15490cc8c17d1905253115160821b604482015290519081900360640190fd5b505050565b6001546001600160a01b031690565b7f000000000000000000000000000000000000000000000000000000000000000081565b7f000000000000000000000000000000000000000000000000000000000000000081565b6542524f4e5a4560d01b90565b6001600160a01b031660009081526020819052604090205460ff1690565b6001546001600160a01b031633146103d9576040805162461bcd60e51b815260206004820152600d60248201526c4552525f4e4f545f424c41425360981b604482015290519081900360640190fd5b6040516001600160a01b0382169033907ff586fa6ee1fc42f5b727f3b214ccbd0b6d7e698c45d49ba32f224fbb8670155d90600090a3600180546001600160a01b0319166001600160a01b0392909216919091179055565b6000807f00000000000000000000000000000000000000000000000000000000000000006001600160a01b0316633e68680a7f00000000000000000000000000000000000000000000000000000000000000007f00000000000000000000000000000000000000000000000000000000000000006040518363ffffffff1660e01b815260040180836001600160a01b03168152602001826001600160a01b0316815260200192505050602060405180830381600087803b1580156104f457600080fd5b505af1158015610508573d6000803e3d6000fd5b505050506040513d602081101561051e57600080fd5b50516001600160a01b038116600081815260208190526040808220805460ff1916600117905551929350909133917f8ccec77b0cb63ac2cafd0f5de8cdfadab91ce656d262240ba8a6343bccc5f94591a3604080516392eefe9b60e01b815233600482015290516001600160a01b038316916392eefe9b91602480830192600092919082900301818387803b1580156105b657600080fd5b505af11580156105ca573d6000803e3d6000fd5b509293505050509056fea2646970667358221220cdd7b1addb1e4510bb31a7a7ff2dbd744121a59ce049743d9605d75ef007014364736f6c63430007060033",
  "devdoc": {
    "kind": "dev",
    "methods": {},
    "version": 1
  },
  "userdoc": {
    "kind": "user",
    "methods": {},
    "version": 1
  },
  "storageLayout": {
    "storage": [
      {
        "astId": 14696,
        "contract": "contracts/StreamSwapFactory.sol:StreamSwapFactory",
        "label": "_isBPool",
        "offset": 0,
        "slot": "0",
        "type": "t_mapping(t_address,t_bool)"
      },
      {
        "astId": 14751,
        "contract": "contracts/StreamSwapFactory.sol:StreamSwapFactory",
        "label": "_blabs",
        "offset": 0,
        "slot": "1",
        "type": "t_address"
      }
    ],
    "types": {
      "t_address": {
        "encoding": "inplace",
        "label": "address",
        "numberOfBytes": "20"
      },
      "t_bool": {
        "encoding": "inplace",
        "label": "bool",
        "numberOfBytes": "1"
      },
      "t_mapping(t_address,t_bool)": {
        "encoding": "mapping",
        "key": "t_address",
        "label": "mapping(address => bool)",
        "numberOfBytes": "32",
        "value": "t_bool"
      }
    }
  }
}