{
  "address": "0xc766418878Ad4F847115e2eB88167bc24076a98b",
  "abi": [
    {
      "inputs": [
        {
          "internalType": "contract ISuperfluid",
          "name": "host",
          "type": "address"
        },
        {
          "internalType": "contract IConstantFlowAgreementV1",
          "name": "cfa",
          "type": "address"
        }
      ],
      "name": "create",
      "outputs": [
        {
          "internalType": "contract StreamSwapPool",
          "name": "",
          "type": "address"
        }
      ],
      "stateMutability": "nonpayable",
      "type": "function"
    }
  ],
  "transactionHash": "0xecd801a631dce634b0c254b04e94968e9e67c03f30ddae2375878a4c60757220",
  "args": [],
  "solcInputHash": "5c06c79dbd5c9b12d456e8d8025cf277",
  "bytecode": "0x608060405234801561001057600080fd5b50615d91806100206000396000f3fe608060405234801561001057600080fd5b506004361061002b5760003560e01c80633e68680a14610030575b600080fd5b61005e6004803603604081101561004657600080fd5b506001600160a01b038135811691602001351661007a565b604080516001600160a01b039092168252519081900360200190f35b600080838360405161008b90610130565b6001600160a01b03928316815291166020820152604080519182900301906000f0801580156100be573d6000803e3d6000fd5b509050806001600160a01b03166392eefe9b336040518263ffffffff1660e01b815260040180826001600160a01b03168152602001915050600060405180830381600087803b15801561011057600080fd5b505af1158015610124573d6000803e3d6000fd5b50929695505050505050565b615c1e8061013e8339019056fe60c0604052601360808190527f42616c616e63657220506f6f6c20546f6b656e0000000000000000000000000060a09081526200004091600391906200025a565b506040805180820190915260038082526210941560ea1b60209092019182526200006d916004916200025a565b506005805460ff191660121790553480156200008857600080fd5b5060405162005c1e38038062005c1e833981016040819052620000ab9162000306565b6001600160a01b038216620000dd5760405162461bcd60e51b8152600401620000d4906200037b565b60405180910390fd5b6001600160a01b038116620001065760405162461bcd60e51b8152600401620000d49062000344565b6040516315a722b960e31b8152641500000001906001600160a01b0384169063ad3915c8906200013b908490600401620003b2565b600060405180830381600087803b1580156200015657600080fd5b505af11580156200016b573d6000803e3d6000fd5b5050600d80546001600160a01b038088166001600160a01b0319928316178355600e8054918816919092161790556040516381365a4d60e01b8152734Ca1DE5D4cB83168cbdAf007C185f2B33290e85F93506381365a4d9250620001d39190600401620003b2565b60006040518083038186803b158015620001ec57600080fd5b505af415801562000201573d6000803e3d6000fd5b5050600680546005805462010000600160b01b031916336201000081029190911790915564e8d4a510006007556001600160a01b03199091161760ff60a01b1916905550506008805460ff1916905550620003d4915050565b828054600181600116156101000203166002900490600052602060002090601f016020900481019282620002925760008555620002dd565b82601f10620002ad57805160ff1916838001178555620002dd565b82800160010185558215620002dd579182015b82811115620002dd578251825591602001919060010190620002c0565b50620002eb929150620002ef565b5090565b5b80821115620002eb5760008155600101620002f0565b6000806040838503121562000319578182fd5b82516200032681620003bb565b60208401519092506200033981620003bb565b809150509250929050565b60208082526013908201527f636661206973207a65726f206164647265737300000000000000000000000000604082015260600190565b60208082526014908201527f686f7374206973207a65726f2061646472657373000000000000000000000000604082015260600190565b90815260200190565b6001600160a01b0381168114620003d157600080fd5b50565b61583a80620003e46000396000f3fe608060405234801561001057600080fd5b50600436106103c55760003560e01c8063884d1f40116101ff578063be3bbd2e1161011a578063d86ed3e5116100ad578063ec0930211161007c578063ec0930211461074e578063f1b8a9b714610756578063f8b2cb4f14610769578063fde924f71461077c576103c5565b8063d86ed3e514610715578063dd62ed3e14610728578063e4a28a5214610428578063e4e1e5381461073b576103c5565b8063cd2ed8fb116100e9578063cd2ed8fb146106df578063cf5e7bd3146106e7578063d4cadf68146106fa578063d73dd62314610702576103c5565b8063be3bbd2e146106ba578063c36596a614610466578063c6580d12146106cf578063cc77828d146106d7576103c5565b80639a86139b11610192578063b7b800a411610161578063b7b800a41461069a578063ba019dab146106a2578063bc063e1a146106aa578063bc694ea2146106b2576103c5565b80639a86139b14610664578063a9059cbb1461066c578063b02f0b731461067f578063b0e0d13614610692576103c5565b80639381cd2b116101ce5780639381cd2b14610639578063948d8ce61461064157806395d89b4114610654578063992e2a921461065c576103c5565b8063884d1f40146106035780638d4e40831461061657806392eefe9b1461061e578063936c347714610631576103c5565b806334e19907116102ef5780635f9e7d771161028257806376c7a3c71161025157806376c7a3c7146105bf5780637c5e9ea4146105c75780638201aa3f146105e8578063867378c5146105fb576103c5565b80635f9e7d771461057357806366188463146105865780636d06dfa01461059957806370a08231146105ac576103c5565b80634bb278f3116102be5780634bb278f3146105325780634f69c0d41461053a57806353c11f991461054d5780635db3427714610560576103c5565b806334e19907146104e45780633fdddaa2146104f957806346ab38f11461050c57806349b595521461051f576103c5565b8063189d00ca116103675780632f37b624116103365780632f37b624146104945780633018205f146104a757806330d9c915146104bc578063313ce567146104cf576103c5565b8063189d00ca1461045e578063218b538214610466578063230dbd291461046e57806323b872dd14610481576103c5565b806309a3bbe4116103a357806309a3bbe4146104285780631446a7ff1461043057806315e84af91461044357806318160ddd14610456576103c5565b806302c96748146103ca57806306fdde03146103f3578063095ea7b314610408575b600080fd5b6103dd6103d8366004614d2b565b610784565b6040516103ea9190615139565b60405180910390f35b6103fb610af2565b6040516103ea919061515e565b61041b610416366004614caf565b610b88565b6040516103ea919061512e565b6103dd610bdc565b6103dd61043e366004614c37565b610be9565b6103dd610451366004614c37565b610d7a565b6103dd610eb1565b6103dd610eb7565b6103dd610ecb565b6103fb61047c366004614eca565b610ed7565b61041b61048f366004614c6f565b610fd8565b61041b6104a2366004614bff565b611132565b6104af611150565b6040516103ea9190615090565b6103fb6104ca366004614e2e565b61118b565b6104d76111c4565b6040516103ea91906156f2565b6104f76104f2366004614f91565b6111cd565b005b6104f7610507366004614d2b565b6112e8565b6103dd61051a366004614d2b565b611635565b6104f761052d366004614d5f565b6118cc565b6104f76119b3565b6104f7610548366004614fc1565b611ae8565b6103fb61055b366004614eca565b611da2565b6103dd61056e366004614d2b565b611dfe565b6103fb610581366004614e2e565b612109565b61041b610594366004614caf565b612142565b6103dd6105a7366004614d2b565b61221a565b6103dd6105ba366004614bff565b61249a565b6103dd6124b5565b6105da6105d5366004614cda565b6124c7565b6040516103ea929190615699565b6105da6105f6366004614cda565b612b32565b6103dd613111565b6103fb610611366004614e2e565b613125565b61041b61315e565b6104f761062c366004614bff565b613167565b6103dd613231565b6103dd613263565b6103dd61064f366004614bff565b613270565b6103fb6132f2565b6103dd613353565b6103dd61335f565b61041b61067a366004614caf565b61336c565b6104f761068d366004614fc1565b613382565b6103dd613677565b6103dd61367c565b6103dd613681565b6103dd613686565b6103dd613696565b6106c26136a2565b6040516103ea91906150e1565b6103dd61374e565b6106c2613753565b6103dd61377e565b6104f76106f5366004614bff565b613784565b6103dd613b22565b61041b610710366004614caf565b613b54565b6103fb610723366004614eca565b613bd5565b6103dd610736366004614c37565b613c33565b6104f7610749366004614d2b565b613c5e565b6103dd614067565b6103dd610764366004614bff565b614077565b6103dd610777366004614bff565b61410b565b61041b614160565b60405160009033906001600160e01b0319833516906107a69084903690615142565b60405180910390a2600554610100900460ff16156107df5760405162461bcd60e51b81526004016107d69061535a565b60405180910390fd5b6005805461ff0019166101001790556001600160a01b038085166000908152600a60205260408120549091169061081582614170565b60085490915060ff1661083a5760405162461bcd60e51b81526004016107d690615472565b6001600160a01b0386166000908152600b602052604090205460ff166108725760405162461bcd60e51b81526004016107d6906153d1565b61088b816003670de0b6b3a76400005b04600101614224565b8511156108aa5760405162461bcd60e51b81526004016107d6906153a6565b6001600160a01b0382166000908152600b6020526040908190206002808201549054600c5460075494516382f652ad60e01b81529394734Ca1DE5D4cB83168cbdAf007C185f2B33290e85F946382f652ad94610911948994919390928e91906004016156ca565b60206040518083038186803b15801561092957600080fd5b505af415801561093d573d6000803e3d6000fd5b505050506040513d601f19601f820116820180604052508101906109619190614fa9565b9350836109805760405162461bcd60e51b81526004016107d690615215565b848411156109a05760405162461bcd60e51b81526004016107d690615334565b6109aa828761429d565b600382015560006109bb8582614224565b9050876001600160a01b0316336001600160a01b03167fe74c91552b64c2e2e7bd255639e004e693bd3e1d01cc33e65610b86afcc1ffed89604051610a009190615139565b60405180910390a3610a1233866142d6565b610a24610a1f86836142e4565b61433e565b600554610a40906201000090046001600160a01b03168261434a565b610a4b843389614354565b604080516080810182526001815260006020820152600284015481830152606081018590529051630613fced60e11b8152734Ca1DE5D4cB83168cbdAf007C185f2B33290e85F91630c27f9da91610aac91600d918991600b9160040161560f565b60006040518083038186803b158015610ac457600080fd5b505af4158015610ad8573d6000803e3d6000fd5b50505050505050506005805461ff00191690559392505050565b60038054604080516020601f6002600019610100600188161502019095169490940493840181900481028201810190925282815260609390929091830182828015610b7e5780601f10610b5357610100808354040283529160200191610b7e565b820191906000526020600020905b815481529060010190602001808311610b6157829003601f168201915b5050505050905090565b3360008181526001602090815260408083206001600160a01b03871680855290835281842086905581518681529151939490939092600080516020615787833981519152928290030190a350600192915050565b6802b5e3af16b188000081565b600554600090610100900460ff1615610c145760405162461bcd60e51b81526004016107d69061535a565b6001600160a01b038084166000908152600a6020908152604080832054868516845281842054908516808552600b9093529220549092919091169060ff16610c6e5760405162461bcd60e51b81526004016107d6906153d1565b6001600160a01b0381166000908152600b602052604090205460ff16610ca65760405162461bcd60e51b81526004016107d6906153d1565b6001600160a01b038083166000908152600b602052604080822092841682529020734Ca1DE5D4cB83168cbdAf007C185f2B33290e85F63a221ee49610cea86614170565b8460020154610cf887614170565b856002015460006040518663ffffffff1660e01b8152600401610d1f9594939291906156a7565b60206040518083038186803b158015610d3757600080fd5b505af4158015610d4b573d6000803e3d6000fd5b505050506040513d601f19601f82011682018060405250810190610d6f9190614fa9565b979650505050505050565b600554600090610100900460ff1615610da55760405162461bcd60e51b81526004016107d69061535a565b6001600160a01b038084166000908152600a6020908152604080832054868516845281842054908516808552600b9093529220549092919091169060ff16610dff5760405162461bcd60e51b81526004016107d6906153d1565b6001600160a01b0381166000908152600b602052604090205460ff16610e375760405162461bcd60e51b81526004016107d6906153d1565b6001600160a01b038083166000908152600b602052604080822092841682529020734Ca1DE5D4cB83168cbdAf007C185f2B33290e85F63a221ee49610e7b86614170565b8460020154610e8987614170565b85600201546007546040518663ffffffff1660e01b8152600401610d1f9594939291906156a7565b60025490565b6402540be400670de0b6b3a76400005b0481565b670de0b6b3a764000081565b600d546060906001600160a01b03163314610f045760405162461bcd60e51b81526004016107d69061537f565b610f356040518060400160405280601081526020016f61677265656d656e742075706461746560801b8152506144f6565b60405163a42b510160e01b8152734Ca1DE5D4cB83168cbdAf007C185f2B33290e85F9063a42b510190610f7690600d908e9088908890600b9060040161565c565b60006040518083038186803b158015610f8e57600080fd5b505af4158015610fa2573d6000803e3d6000fd5b505050506040513d6000823e601f3d908101601f19168201604052610fca9190810190614d97565b9a9950505050505050505050565b6000336001600160a01b038516148061101457506001600160a01b03841660009081526001602090815260408083203384529091529020548211155b61105d576040805162461bcd60e51b815260206004820152601560248201527422a9292fa12a27a5a2a72fa120a22fa1a0a62622a960591b604482015290519081900360640190fd5b61106884848461459c565b336001600160a01b038516148015906110a657506001600160a01b038416600090815260016020908152604080832033845290915290205460001914155b15611128576001600160a01b03841660009081526001602090815260408083203384529091529020546110d990836142e4565b6001600160a01b03858116600090815260016020908152604080832033808552908352928190208590558051948552519287169391926000805160206157878339815191529281900390910190a35b5060019392505050565b6001600160a01b03166000908152600b602052604090205460ff1690565b600554600090610100900460ff161561117b5760405162461bcd60e51b81526004016107d69061535a565b506006546001600160a01b031690565b606060405162461bcd60e51b815260040180806020018281038252602f8152602001806157d6602f913960400191505060405180910390fd5b60055460ff1690565b336001600160a01b03166000356001600160e01b0319166001600160e01b0319166000366040516111ff929190615142565b60405180910390a2600554610100900460ff161561122f5760405162461bcd60e51b81526004016107d69061535a565b6005805461ff00191661010017905560085460ff16156112615760405162461bcd60e51b81526004016107d69061528b565b6006546001600160a01b0316331461128b5760405162461bcd60e51b81526004016107d690615171565b64e8d4a510008110156112b05760405162461bcd60e51b81526004016107d69061523e565b67016345785d8a00008111156112d85760405162461bcd60e51b81526004016107d6906153f8565b6007556005805461ff0019169055565b336001600160a01b03166000356001600160e01b0319166001600160e01b03191660003660405161131a929190615142565b60405180910390a2600554610100900460ff161561134a5760405162461bcd60e51b81526004016107d69061535a565b6005805461ff001916610100179055600654336001600160a01b03909116146113855760405162461bcd60e51b81526004016107d690615171565b6001600160a01b0383166000908152600b602052604090205460ff166113bd5760405162461bcd60e51b81526004016107d6906153d1565b60085460ff16156113e05760405162461bcd60e51b81526004016107d69061528b565b670de0b6b3a76400008110156114085760405162461bcd60e51b81526004016107d69061544a565b6802b5e3af16b18800008111156114315760405162461bcd60e51b81526004016107d690615263565b6001600160a01b0383166000818152600b602081815260408084208151608081018352815460ff1615158152600182015481850152600282015492810183905260039091015460608201529490935252808311156114d05761149e600c54611499858461429d565b6146ac565b600c8190556802b5e3af16b188000010156114cb5760405162461bcd60e51b81526004016107d6906152b5565b6114f1565b808310156114f1576114ed600c546114e8838661429d565b61429d565b600c555b6001600160a01b0385166000908152600b6020526040812060020184905561151886614170565b6001600160a01b0387166000908152600b6020526040902060030186905590508085111561155957611554863361154f888561429d565b6146d1565b6115b3565b808510156115b357600061156d828761429d565b9050600061157c826000614224565b9050611592883361158d858561429d565b614354565b6005546115b09089906201000090046001600160a01b031683614354565b50505b604051630613fced60e11b8152734Ca1DE5D4cB83168cbdAf007C185f2B33290e85F90630c27f9da906115f290600d908a90600b90899060040161560f565b60006040518083038186803b15801561160a57600080fd5b505af415801561161e573d6000803e3d6000fd5b50506005805461ff00191690555050505050505050565b60405160009033906001600160e01b0319833516906116579084903690615142565b60405180910390a2600554610100900460ff16156116875760405162461bcd60e51b81526004016107d69061535a565b6005805461ff0019166101001790556001600160a01b038085166000908152600a6020526040812054909116906116bd82614170565b60085490915060ff166116e25760405162461bcd60e51b81526004016107d690615472565b6001600160a01b0382166000908152600b602052604090205460ff1661171a5760405162461bcd60e51b81526004016107d6906153d1565b6001600160a01b0382166000908152600b6020526040908190206002808201549054600c546007549451634494c00960e11b81529394734Ca1DE5D4cB83168cbdAf007C185f2B33290e85F94638929801294611781948994919390928e91906004016156ca565b60206040518083038186803b15801561179957600080fd5b505af41580156117ad573d6000803e3d6000fd5b505050506040513d601f19601f820116820180604052508101906117d19190614fa9565b9350848410156117f35760405162461bcd60e51b81526004016107d6906152e3565b611807826003670de0b6b3a7640000610882565b8411156118265760405162461bcd60e51b81526004016107d6906153a6565b611830828561429d565b600382015560006118418782614224565b9050876001600160a01b0316336001600160a01b03167fe74c91552b64c2e2e7bd255639e004e693bd3e1d01cc33e65610b86afcc1ffed876040516118869190615139565b60405180910390a361189833886142d6565b6118a5610a1f88836142e4565b6005546118c1906201000090046001600160a01b03168261434a565b610a4b843387614354565b336001600160a01b03166000356001600160e01b0319166001600160e01b0319166000366040516118fe929190615142565b60405180910390a2600554610100900460ff161561192e5760405162461bcd60e51b81526004016107d69061535a565b6005805461ff00191661010017905560085460ff16156119605760405162461bcd60e51b81526004016107d69061528b565b6006546001600160a01b0316331461198a5760405162461bcd60e51b81526004016107d690615171565b60068054911515600160a01b0260ff60a01b199092169190911790556005805461ff0019169055565b336001600160a01b03166000356001600160e01b0319166001600160e01b0319166000366040516119e5929190615142565b60405180910390a2600554610100900460ff1615611a155760405162461bcd60e51b81526004016107d69061535a565b6005805461ff001916610100179055600654336001600160a01b0390911614611a505760405162461bcd60e51b81526004016107d690615171565b60085460ff1615611a735760405162461bcd60e51b81526004016107d69061528b565b60095460021115611a965760405162461bcd60e51b81526004016107d6906155e7565b6008805460ff191660011790556006805460ff60a01b1916600160a01b179055611ac868056bc75e2d63100000614875565b611adb3368056bc75e2d6310000061434a565b6005805461ff0019169055565b336001600160a01b03166000356001600160e01b0319166001600160e01b031916600036604051611b1a929190615142565b60405180910390a2600554610100900460ff1615611b4a5760405162461bcd60e51b81526004016107d69061535a565b6005805461ff00191661010017905560085460ff16611b7b5760405162461bcd60e51b81526004016107d690615472565b6000611b85610eb1565b90506000611b93858361487e565b905080611bb25760405162461bcd60e51b81526004016107d690615215565b60005b600954811015611d7c57600060098281548110611bce57fe5b60009182526020808320909101546001600160a01b0316808352600b825260408084208151608081018352815460ff1615158152600182015494810194909452600281015491840191909152600301546060830152925090611c2f83614170565b90506000611c3d8683614224565b905080611c5c5760405162461bcd60e51b81526004016107d690615215565b888886818110611c6857fe5b90506020020135811115611c8e5760405162461bcd60e51b81526004016107d690615334565b611c9882826146ac565b6001600160a01b0385166000818152600b60205260409081902060030192909255905133907f63982df10efd8dfaaaa0fcc7f50b2d93b7cba26ccc48adee2873220d485dc39a90611cea908590615139565b60405180910390a3611cfd8433836146d1565b604051630613fced60e11b8152734Ca1DE5D4cB83168cbdAf007C185f2B33290e85F90630c27f9da90611d3c90600d908890600b90899060040161560f565b60006040518083038186803b158015611d5457600080fd5b505af4158015611d68573d6000803e3d6000fd5b505060019096019550611bb5945050505050565b50611d8685614875565b611d90338661434a565b50506005805461ff0019169055505050565b600d546060906001600160a01b03163314611dcf5760405162461bcd60e51b81526004016107d69061537f565b610f356040518060400160405280600e81526020016d61677265656d656e74207465726d60901b8152506144f6565b60405160009033906001600160e01b031983351690611e209084903690615142565b60405180910390a2600554610100900460ff1615611e505760405162461bcd60e51b81526004016107d69061535a565b6005805461ff0019166101001790556001600160a01b038085166000908152600a602052604081205490911690611e8682614170565b60085490915060ff16611eab5760405162461bcd60e51b81526004016107d690615472565b6001600160a01b0386166000908152600b602052604090205460ff16611ee35760405162461bcd60e51b81526004016107d6906153d1565b611ef9816002670de0b6b3a76400005b04614224565b851115611f185760405162461bcd60e51b81526004016107d6906151eb565b6001600160a01b0382166000908152600b6020526040908190206002808201549054600c546007549451638656b65360e01b81529394734Ca1DE5D4cB83168cbdAf007C185f2B33290e85F94638656b65394611f7f948994919390928e91906004016156ca565b60206040518083038186803b158015611f9757600080fd5b505af4158015611fab573d6000803e3d6000fd5b505050506040513d601f19601f82011682018060405250810190611fcf9190614fa9565b935084841015611ff15760405162461bcd60e51b81526004016107d6906152e3565b611ffb82876146ac565b60038201556040516001600160a01b0388169033907f63982df10efd8dfaaaa0fcc7f50b2d93b7cba26ccc48adee2873220d485dc39a9061203d908a90615139565b60405180910390a361204e84614875565b612058338561434a565b6120638333886146d1565b604080516080810182526001815260006020820152600283015481830152606081018490529051630613fced60e11b8152734Ca1DE5D4cB83168cbdAf007C185f2B33290e85F91630c27f9da916120c491600d918891600b9160040161560f565b60006040518083038186803b1580156120dc57600080fd5b505af41580156120f0573d6000803e3d6000fd5b505050505050506005805461ff00191690559392505050565b606060405162461bcd60e51b81526004018080602001828103825260338152602001806157546033913960400191505060405180910390fd5b3360009081526001602090815260408083206001600160a01b038616845290915281205480831115612197573360009081526001602090815260408083206001600160a01b03881684529091528120556121c6565b6121a181846142e4565b3360009081526001602090815260408083206001600160a01b03891684529091529020555b3360008181526001602090815260408083206001600160a01b038916808552908352928190205481519081529051929392600080516020615787833981519152929181900390910190a35060019392505050565b60405160009033906001600160e01b03198335169061223c9084903690615142565b60405180910390a2600554610100900460ff161561226c5760405162461bcd60e51b81526004016107d69061535a565b6005805461ff0019166101001790556001600160a01b038085166000908152600a6020526040812054909116906122a282614170565b60085490915060ff166122c75760405162461bcd60e51b81526004016107d690615472565b6001600160a01b0382166000908152600b602052604090205460ff166122ff5760405162461bcd60e51b81526004016107d6906153d1565b6001600160a01b0382166000908152600b6020526040908190206002808201549054600c546007549451635c1bbaf760e01b81529394734Ca1DE5D4cB83168cbdAf007C185f2B33290e85F94635c1bbaf794612366948994919390928e91906004016156ca565b60206040518083038186803b15801561237e57600080fd5b505af4158015612392573d6000803e3d6000fd5b505050506040513d601f19601f820116820180604052508101906123b69190614fa9565b9350836123d55760405162461bcd60e51b81526004016107d690615215565b848411156123f55760405162461bcd60e51b81526004016107d690615334565b612409826002670de0b6b3a7640000611ef3565b8411156124285760405162461bcd60e51b81526004016107d6906151eb565b61243282856146ac565b60038201556040516001600160a01b0388169033907f63982df10efd8dfaaaa0fcc7f50b2d93b7cba26ccc48adee2873220d485dc39a90612474908890615139565b60405180910390a361248586614875565b61248f338761434a565b6120638333866146d1565b6001600160a01b031660009081526020819052604090205490565b620f4240670de0b6b3a7640000610ec7565b604051600090819033906001600160e01b0319833516906124eb9084903690615142565b60405180910390a2600554610100900460ff161561251b5760405162461bcd60e51b81526004016107d69061535a565b6005805461ff001916610100179055604080516080810182526001600160a01b03808a166000908152600a602081815285832054841685528a84168352908152848220548316818501528385018290526060840182905283519092168152600b909152919091205460ff166125a25760405162461bcd60e51b81526004016107d6906153d1565b6020808201516001600160a01b03166000908152600b909152604090205460ff166125df5760405162461bcd60e51b81526004016107d6906153d1565b600654600160a01b900460ff166126085760405162461bcd60e51b81526004016107d69061553c565b80516001600160a01b039081166000908152600b60209081526040808320918501519093168252919020825161263d90614170565b6040840152602083015161265090614170565b6060840181905261266b906003670de0b6b3a7640000610882565b87111561268a5760405162461bcd60e51b81526004016107d6906153a6565b6000734Ca1DE5D4cB83168cbdAf007C185f2B33290e85F63a221ee4985604001518560020154876060015186600201546007546040518663ffffffff1660e01b81526004016126dd9594939291906156a7565b60206040518083038186803b1580156126f557600080fd5b505af4158015612709573d6000803e3d6000fd5b505050506040513d601f19601f8201168201806040525081019061272d9190614fa9565b90508681111561274f5760405162461bcd60e51b81526004016107d69061541d565b734Ca1DE5D4cB83168cbdAf007C185f2B33290e85F63f8d6aed485604001518560020154876060015186600201548d6007546040518763ffffffff1660e01b81526004016127a2969594939291906156ca565b60206040518083038186803b1580156127ba57600080fd5b505af41580156127ce573d6000803e3d6000fd5b505050506040513d601f19601f820116820180604052508101906127f29190614fa9565b9550898611156128145760405162461bcd60e51b81526004016107d690615334565b734Ca1DE5D4cB83168cbdAf007C185f2B33290e85F63a221ee4961283c8660400151896146ac565b856002015461284f88606001518d61429d565b86600201546007546040518663ffffffff1660e01b81526004016128779594939291906156a7565b60206040518083038186803b15801561288f57600080fd5b505af41580156128a3573d6000803e3d6000fd5b505050506040513d601f19601f820116820180604052508101906128c79190614fa9565b9450808510156128e95760405162461bcd60e51b81526004016107d690615215565b868511156129095760405162461bcd60e51b81526004016107d6906154ed565b612913868961487e565b8111156129325760405162461bcd60e51b81526004016107d690615215565b886001600160a01b03168b6001600160a01b0316336001600160a01b03167f908fb5ee8f16c6bc9bc3690973819f32a4d4b10188134543c88706e0e1d43378898c604051612981929190615699565b60405180910390a460408051608081018252845460ff16151581526001850154602082015260028501548183015260038501546060820152908501516129c790886146ac565b600385015584516129d99033896146d1565b8451604051630613fced60e11b8152734Ca1DE5D4cB83168cbdAf007C185f2B33290e85F91630c27f9da91612a1891600d91600b90879060040161560f565b60006040518083038186803b158015612a3057600080fd5b505af4158015612a44573d6000803e3d6000fd5b505060408051608081018252865460ff1615158152600187015460208201526002870154918101919091526003860154606080830191909152880151909250612a8e91508b61429d565b60038501556020860151612aa390338c614354565b6020860151604051630613fced60e11b8152734Ca1DE5D4cB83168cbdAf007C185f2B33290e85F91630c27f9da91612ae591600d91600b90879060040161560f565b60006040518083038186803b158015612afd57600080fd5b505af4158015612b11573d6000803e3d6000fd5b505050505050505050506005805461ff001916905590969095509350505050565b604051600090819033906001600160e01b031983351690612b569084903690615142565b60405180910390a2600554610100900460ff1615612b865760405162461bcd60e51b81526004016107d69061535a565b6005805461ff001916610100179055604080516080810182526001600160a01b03808a166000908152600a602081815285832054841685528a84168352908152848220548316818501528385018290526060840182905283519092168152600b909152919091205460ff16612c0d5760405162461bcd60e51b81526004016107d6906153d1565b6020808201516001600160a01b03166000908152600b909152604090205460ff16612c4a5760405162461bcd60e51b81526004016107d6906153d1565b600654600160a01b900460ff16612c735760405162461bcd60e51b81526004016107d69061553c565b80516001600160a01b039081166000908152600b602090815260408083209185015190931682529190208251612ca890614170565b60408401526020830151612cbb90614170565b60608401526040830151612cd9906002670de0b6b3a7640000611ef3565b891115612cf85760405162461bcd60e51b81526004016107d6906151eb565b6000734Ca1DE5D4cB83168cbdAf007C185f2B33290e85F63a221ee4985604001518560020154876060015186600201546007546040518663ffffffff1660e01b8152600401612d4b9594939291906156a7565b60206040518083038186803b158015612d6357600080fd5b505af4158015612d77573d6000803e3d6000fd5b505050506040513d601f19601f82011682018060405250810190612d9b9190614fa9565b905086811115612dbd5760405162461bcd60e51b81526004016107d69061541d565b734Ca1DE5D4cB83168cbdAf007C185f2B33290e85F63ba9530a685604001518560020154876060015186600201548f6007546040518763ffffffff1660e01b8152600401612e10969594939291906156ca565b60206040518083038186803b158015612e2857600080fd5b505af4158015612e3c573d6000803e3d6000fd5b505050506040513d601f19601f82011682018060405250810190612e609190614fa9565b955087861015612e825760405162461bcd60e51b81526004016107d6906152e3565b734Ca1DE5D4cB83168cbdAf007C185f2B33290e85F63a221ee49612eaa86604001518d6146ac565b8560020154612ebd88606001518b61429d565b86600201546007546040518663ffffffff1660e01b8152600401612ee59594939291906156a7565b60206040518083038186803b158015612efd57600080fd5b505af4158015612f11573d6000803e3d6000fd5b505050506040513d601f19601f82011682018060405250810190612f359190614fa9565b945080851015612f575760405162461bcd60e51b81526004016107d690615215565b86851115612f775760405162461bcd60e51b81526004016107d6906154ed565b612f818a8761487e565b811115612fa05760405162461bcd60e51b81526004016107d690615215565b886001600160a01b03168b6001600160a01b0316336001600160a01b03167f908fb5ee8f16c6bc9bc3690973819f32a4d4b10188134543c88706e0e1d433788d8a604051612fef929190615699565b60405180910390a460408051608081018252845460ff1615158152600185015460208201526002850154818301526003850154606082015290850151613035908c6146ac565b6003850155845161304790338d6146d1565b8451604051630613fced60e11b8152734Ca1DE5D4cB83168cbdAf007C185f2B33290e85F91630c27f9da9161308691600d91600b90879060040161560f565b60006040518083038186803b15801561309e57600080fd5b505af41580156130b2573d6000803e3d6000fd5b505060408051608081018252865460ff16151581526001870154602082015260028701549181019190915260038601546060808301919091528801519092506130fc91508961429d565b60038501556020860151612aa390338a614354565b64e8d4a51000670de0b6b3a7640000610ec7565b606060405162461bcd60e51b815260040180806020018281038252602f8152602001806157a7602f913960400191505060405180910390fd5b60085460ff1690565b336001600160a01b03166000356001600160e01b0319166001600160e01b031916600036604051613199929190615142565b60405180910390a2600554610100900460ff16156131c95760405162461bcd60e51b81526004016107d69061535a565b6005805461ff001916610100179055600654336001600160a01b03909116146132045760405162461bcd60e51b81526004016107d690615171565b600680546001600160a01b0319166001600160a01b03929092169190911790556005805461ff0019169055565b600554600090610100900460ff161561325c5760405162461bcd60e51b81526004016107d69061535a565b50600c5490565b68056bc75e2d6310000081565b600554600090610100900460ff161561329b5760405162461bcd60e51b81526004016107d69061535a565b6001600160a01b0382166000908152600b602052604090205460ff166132d35760405162461bcd60e51b81526004016107d6906153d1565b506001600160a01b03166000908152600b602052604090206002015490565b60048054604080516020601f6002600019610100600188161502019095169490940493840181900481028201810190925282815260609390929091830182828015610b7e5780601f10610b5357610100808354040283529160200191610b7e565b6704a03ce68d21555681565b6542524f4e5a4560d01b90565b600061337933848461459c565b50600192915050565b336001600160a01b03166000356001600160e01b0319166001600160e01b0319166000366040516133b4929190615142565b60405180910390a2600554610100900460ff16156133e45760405162461bcd60e51b81526004016107d69061535a565b6005805461ff00191661010017905560085460ff166134155760405162461bcd60e51b81526004016107d690615472565b600061341f610eb1565b9050600061342e856000614224565b9050600061343c868361429d565b9050600061344a828561487e565b9050806134695760405162461bcd60e51b81526004016107d690615215565b61347333886142d6565b60055461348f906201000090046001600160a01b03168461434a565b6134988261433e565b60005b600954811015613662576000600982815481106134b457fe5b60009182526020808320909101546001600160a01b0316808352600b825260408084208151608081018352815460ff161515815260018201549481019490945260028101549184019190915260030154606083015292509061351583614170565b905060006135238683614224565b9050806135425760405162461bcd60e51b81526004016107d690615215565b8a8a8681811061354e57fe5b905060200201358110156135745760405162461bcd60e51b81526004016107d6906152e3565b61357e828261429d565b6001600160a01b0385166000818152600b60205260409081902060030192909255905133907fe74c91552b64c2e2e7bd255639e004e693bd3e1d01cc33e65610b86afcc1ffed906135d0908590615139565b60405180910390a36135e3843383614354565b604051630613fced60e11b8152734Ca1DE5D4cB83168cbdAf007C185f2B33290e85F90630c27f9da9061362290600d908890600b90899060040161560f565b60006040518083038186803b15801561363a57600080fd5b505af415801561364e573d6000803e3d6000fd5b50506001909601955061349b945050505050565b50506005805461ff0019169055505050505050565b600881565b600281565b600181565b600a670de0b6b3a7640000610ec7565b671bc16d674ec7ffff81565b600554606090610100900460ff16156136cd5760405162461bcd60e51b81526004016107d69061535a565b60085460ff166136ef5760405162461bcd60e51b81526004016107d690615472565b6009805480602002602001604051908101604052809291908181526020018280548015610b7e57602002820191906000526020600020905b81546001600160a01b03168152600190910190602001808311613727575050505050905090565b600081565b600554606090610100900460ff16156136ef5760405162461bcd60e51b81526004016107d69061535a565b60095490565b336001600160a01b03166000356001600160e01b0319166001600160e01b0319166000366040516137b6929190615142565b60405180910390a2600554610100900460ff16156137e65760405162461bcd60e51b81526004016107d69061535a565b6005805461ff001916610100179055600654336001600160a01b03909116146138215760405162461bcd60e51b81526004016107d690615171565b6001600160a01b0381166000908152600b602052604090205460ff166138595760405162461bcd60e51b81526004016107d6906153d1565b60085460ff161561387c5760405162461bcd60e51b81526004016107d69061528b565b600061388782614170565b90506000613896826000614224565b600c546001600160a01b0385166000908152600b60205260409020600201549192506138c19161429d565b600c556001600160a01b0383166000908152600b60205260409020600101546009805460001981019190829081106138f557fe5b600091825260209091200154600980546001600160a01b03909216918490811061391b57fe5b9060005260206000200160006101000a8154816001600160a01b0302191690836001600160a01b0316021790555081600b60006009858154811061395b57fe5b60009182526020808320909101546001600160a01b03168352820192909252604001902060010155600980548061398e57fe5b60008281526020808220600019908401810180546001600160a01b031916905590920190925560408051608081018252838152808301848152818301858152606083018681526001600160a01b038c16808852600b8752968590209351845460ff191690151517845591516001840155516002830155516003909101558051631dce337960e31b8152905163ee719bc892600480840193919291829003018186803b158015613a3c57600080fd5b505afa158015613a50573d6000803e3d6000fd5b505050506040513d601f19601f82011682018060405250810190613a749190614c1b565b6001600160a01b031663095ea7b38660006040518363ffffffff1660e01b8152600401613aa29291906150c8565b602060405180830381600087803b158015613abc57600080fd5b505af1158015613ad0573d6000803e3d6000fd5b505050506040513d601f19601f82011682018060405250810190613af49190614d7b565b50613b04853361158d878761429d565b600554611d909086906201000090046001600160a01b031685614354565b600554600090610100900460ff1615613b4d5760405162461bcd60e51b81526004016107d69061535a565b5060075490565b3360009081526001602090815260408083206001600160a01b0386168452909152812054613b829083614912565b3360008181526001602090815260408083206001600160a01b038916808552908352928190208590558051948552519193600080516020615787833981519152929081900390910190a350600192915050565b600d546060906001600160a01b03163314613c025760405162461bcd60e51b81526004016107d69061537f565b610f356040518060400160405280601081526020016f61677265656d656e742063726561746560801b8152506144f6565b6001600160a01b03918216600090815260016020908152604080832093909416825291909152205490565b336001600160a01b03166000356001600160e01b0319166001600160e01b031916600036604051613c90929190615142565b60405180910390a26006546001600160a01b03163314613cc25760405162461bcd60e51b81526004016107d690615171565b6001600160a01b0383166000908152600b602052604090205460ff1615613cfb5760405162461bcd60e51b81526004016107d69061519d565b60085460ff1615613d1e5760405162461bcd60e51b81526004016107d69061528b565b600954600811613d405760405162461bcd60e51b81526004016107d6906151c3565b826001600160a01b03166320bc44256040518163ffffffff1660e01b815260040160206040518083038186803b158015613d7957600080fd5b505afa158015613d8d573d6000803e3d6000fd5b505050506040513d601f19601f82011682018060405250810190613db19190614c1b565b600d546001600160a01b03908116911614613dde5760405162461bcd60e51b81526004016107d6906154c7565b6040805160808101825260018082526009805460208085019182526000858701818152606087018281526001600160a01b038c16808452600b85528984209851895460ff19169015151789559451888801559051600288015551600390960195909555825493840183559184527f6e1540171b6c0c960b71a7020d9f60077f6af931a8bbf590da0223dacf75c7af90920180546001600160a01b031916831790558351631dce337960e31b815293518794600a94939263ee719bc892600480840193829003018186803b158015613eb457600080fd5b505afa158015613ec8573d6000803e3d6000fd5b505050506040513d601f19601f82011682018060405250810190613eec9190614c1b565b6001600160a01b03166001600160a01b0316815260200190815260200160002060006101000a8154816001600160a01b0302191690836001600160a01b03160217905550826001600160a01b031663ee719bc86040518163ffffffff1660e01b815260040160206040518083038186803b158015613f6957600080fd5b505afa158015613f7d573d6000803e3d6000fd5b505050506040513d601f19601f82011682018060405250810190613fa19190614c1b565b6001600160a01b031663095ea7b3846000196040518363ffffffff1660e01b8152600401613fd09291906150c8565b602060405180830381600087803b158015613fea57600080fd5b505af1158015613ffe573d6000803e3d6000fd5b505050506040513d601f19601f820116820180604052508101906140229190614d7b565b506040516001600160a01b038416907feb9218e087679078373f04721594f6b59d3cee9733080593d5e49ac61b46494390600090a26140628383836112e8565b505050565b6002670de0b6b3a7640000610ec7565b600554600090610100900460ff16156140a25760405162461bcd60e51b81526004016107d69061535a565b6001600160a01b0382166000908152600b602052604090205460ff166140da5760405162461bcd60e51b81526004016107d6906153d1565b6001600160a01b0382166000908152600b6020526040902060020154600c5461410490829061487e565b9392505050565b600554600090610100900460ff16156141365760405162461bcd60e51b81526004016107d69061535a565b6001600160a01b038083166000908152600a602052604090205461415a9116614170565b92915050565b600654600160a01b900460ff1690565b6001600160a01b0381166000908152600b602052604081205460ff166141a85760405162461bcd60e51b81526004016107d6906153d1565b6040516370a0823160e01b81526001600160a01b038316906370a08231906141d4903090600401615090565b60206040518083038186803b1580156141ec57600080fd5b505afa158015614200573d6000803e3d6000fd5b505050506040513d601f19601f8201168201806040525081019061415a9190614fa9565b600082820283158061423e57508284828161423b57fe5b04145b61425a5760405162461bcd60e51b81526004016107d69061549d565b6706f05b59d3b200008101818110156142855760405162461bcd60e51b81526004016107d69061549d565b6000670de0b6b3a7640000825b049695505050505050565b60008060006142ac858561495f565b9150915080156142ce5760405162461bcd60e51b81526004016107d690615592565b509392505050565b6142e08282614984565b5050565b60008060006142f3858561495f565b9150915080156142ce576040805162461bcd60e51b81526020600482015260116024820152704552525f5355425f554e444552464c4f5760781b604482015290519081900360640190fd5b6143478161498f565b50565b6142e08282614a5f565b61437b604051806040016040528060048152602001630e0eae6d60e31b8152508483614a6a565b6040516308de640f60e11b81526001600160a01b038416906311bcc81e906143a7908490600401615139565b600060405180830381600087803b1580156143c157600080fd5b505af11580156143d5573d6000803e3d6000fd5b505050506000836001600160a01b031663ee719bc86040518163ffffffff1660e01b815260040160206040518083038186803b15801561441457600080fd5b505afa158015614428573d6000803e3d6000fd5b505050506040513d601f19601f8201168201806040525081019061444c9190614c1b565b90506000816001600160a01b031663a9059cbb85856040518363ffffffff1660e01b815260040161447e9291906150c8565b602060405180830381600087803b15801561449857600080fd5b505af11580156144ac573d6000803e3d6000fd5b505050506040513d601f19601f820116820180604052508101906144d09190614d7b565b9050806144ef5760405162461bcd60e51b81526004016107d690615569565b5050505050565b614347816040516024018080602001828103825283818151815260200191508051906020019080838360005b8381101561453a578181015183820152602001614522565b50505050905090810190601f1680156145675780820380516001836020036101000a031916815260200191505b5060408051601f198184030181529190526020810180516001600160e01b031663104c13eb60e21b1790529250614b29915050565b6001600160a01b038316600090815260208190526040902054811115614600576040805162461bcd60e51b815260206004820152601460248201527311549497d25394d551919250d251539517d0905360621b604482015290519081900360640190fd5b6001600160a01b03831660009081526020819052604090205461462390826142e4565b6001600160a01b0380851660009081526020819052604080822093909355908416815220546146529082614912565b6001600160a01b038084166000818152602081815260409182902094909455805185815290519193928716927fddf252ad1be2c89b69c2b068fc378daa952ba7f163c4a11628f55a4df523b3ef92918290030190a3505050565b6000828201838110156141045760405162461bcd60e51b81526004016107d6906155bd565b6146f8604051806040016040528060048152602001631c1d5b1b60e21b8152508483614a6a565b6000836001600160a01b031663ee719bc86040518163ffffffff1660e01b815260040160206040518083038186803b15801561473357600080fd5b505afa158015614747573d6000803e3d6000fd5b505050506040513d601f19601f8201168201806040525081019061476b9190614c1b565b90506000816001600160a01b03166323b872dd8530866040518463ffffffff1660e01b815260040161479f939291906150a4565b602060405180830381600087803b1580156147b957600080fd5b505af11580156147cd573d6000803e3d6000fd5b505050506040513d601f19601f820116820180604052508101906147f19190614d7b565b9050806148105760405162461bcd60e51b81526004016107d690615569565b6040516345977d0360e01b81526001600160a01b038616906345977d039061483c908690600401615139565b600060405180830381600087803b15801561485657600080fd5b505af115801561486a573d6000803e3d6000fd5b505050505050505050565b61434781614b4a565b60008161489d5760405162461bcd60e51b81526004016107d690615516565b670de0b6b3a764000083028315806148c55750670de0b6b3a76400008482816148c257fe5b04145b6148e15760405162461bcd60e51b81526004016107d69061530a565b600283048101818110156149075760405162461bcd60e51b81526004016107d69061530a565b600084828161429257fe5b600082820183811015614104576040805162461bcd60e51b815260206004820152601060248201526f4552525f4144445f4f564552464c4f5760801b604482015290519081900360640190fd5b600080828410614975575050808203600061497d565b505081810360015b9250929050565b6142e082308361459c565b306000908152602081905260409020548111156149ea576040805162461bcd60e51b815260206004820152601460248201527311549497d25394d551919250d251539517d0905360621b604482015290519081900360640190fd5b30600090815260208190526040902054614a0490826142e4565b30600090815260208190526040902055600254614a2190826142e4565b60025560408051828152905160009130917fddf252ad1be2c89b69c2b068fc378daa952ba7f163c4a11628f55a4df523b3ef9181900360200190a350565b6142e030838361459c565b6140628383836040516024018080602001846001600160a01b03168152602001838152602001828103825285818151815260200191508051906020019080838360005b83811015614ac5578181015183820152602001614aad565b50505050905090810190601f168015614af25780820380516001836020036101000a031916815260200191505b5060408051601f198184030181529190526020810180516001600160e01b03166307c8121760e01b1790529450614b299350505050565b80516a636f6e736f6c652e6c6f67602083016000808483855afa5050505050565b30600090815260208190526040902054614b649082614912565b30600090815260208190526040902055600254614b819082614912565b60025560408051828152905130916000917fddf252ad1be2c89b69c2b068fc378daa952ba7f163c4a11628f55a4df523b3ef9181900360200190a350565b60008083601f840112614bd0578182fd5b50813567ffffffffffffffff811115614be7578182fd5b60208301915083602082850101111561497d57600080fd5b600060208284031215614c10578081fd5b813561410481615730565b600060208284031215614c2c578081fd5b815161410481615730565b60008060408385031215614c49578081fd5b8235614c5481615730565b91506020830135614c6481615730565b809150509250929050565b600080600060608486031215614c83578081fd5b8335614c8e81615730565b92506020840135614c9e81615730565b929592945050506040919091013590565b60008060408385031215614cc1578182fd5b8235614ccc81615730565b946020939093013593505050565b600080600080600060a08688031215614cf1578081fd5b8535614cfc81615730565b9450602086013593506040860135614d1381615730565b94979396509394606081013594506080013592915050565b600080600060608486031215614d3f578283fd5b8335614d4a81615730565b95602085013595506040909401359392505050565b600060208284031215614d70578081fd5b813561410481615745565b600060208284031215614d8c578081fd5b815161410481615745565b600060208284031215614da8578081fd5b815167ffffffffffffffff80821115614dbf578283fd5b818401915084601f830112614dd2578283fd5b815181811115614dde57fe5b604051601f8201601f191681016020018381118282101715614dfc57fe5b604052818152838201602001871015614e13578485fd5b614e24826020830160208701615700565b9695505050505050565b600080600080600080600060a0888a031215614e48578182fd5b8735614e5381615730565b96506020880135614e6381615730565b955060408801359450606088013567ffffffffffffffff80821115614e86578384fd5b614e928b838c01614bbf565b909650945060808a0135915080821115614eaa578384fd5b50614eb78a828b01614bbf565b989b979a50959850939692959293505050565b600080600080600080600080600060c08a8c031215614ee7578283fd5b8935614ef281615730565b985060208a0135614f0281615730565b975060408a0135965060608a013567ffffffffffffffff80821115614f25578485fd5b614f318d838e01614bbf565b909850965060808c0135915080821115614f49578485fd5b614f558d838e01614bbf565b909650945060a08c0135915080821115614f6d578384fd5b50614f7a8c828d01614bbf565b915080935050809150509295985092959850929598565b600060208284031215614fa2578081fd5b5035919050565b600060208284031215614fba578081fd5b5051919050565b600080600060408486031215614fd5578081fd5b83359250602084013567ffffffffffffffff80821115614ff3578283fd5b818601915086601f830112615006578283fd5b813581811115615014578384fd5b8760208083028501011115615027578384fd5b6020830194508093505050509250925092565b60008284528282602086013780602084860101526020601f19601f85011685010190509392505050565b6000815180845261507c816020860160208601615700565b601f01601f19169290920160200192915050565b6001600160a01b0391909116815260200190565b6001600160a01b039384168152919092166020820152604081019190915260600190565b6001600160a01b03929092168252602082015260400190565b6020808252825182820181905260009190848201906040850190845b818110156151225783516001600160a01b0316835292840192918401916001016150fd565b50909695505050505050565b901515815260200190565b90815260200190565b60006020825261515660208301848661503a565b949350505050565b6000602082526141046020830184615064565b60208082526012908201527122a9292fa727aa2fa1a7a72a2927a62622a960711b604082015260600190565b6020808252600c908201526b11549497d254d7d093d5539160a21b604082015260600190565b6020808252600e908201526d4552525f4d41585f544f4b454e5360901b604082015260600190565b60208082526010908201526f4552525f4d41585f494e5f524154494f60801b604082015260600190565b6020808252600f908201526e08aa4a4be9a82a890be82a0a0a49eb608b1b604082015260600190565b6020808252600b908201526a4552525f4d494e5f46454560a81b604082015260600190565b6020808252600e908201526d11549497d3505617d5d15251d21560921b604082015260600190565b60208082526010908201526f11549497d254d7d1925390531256915160821b604082015260600190565b60208082526014908201527311549497d3505617d513d5105317d5d15251d21560621b604082015260600190565b6020808252600d908201526c11549497d31253525517d3d555609a1b604082015260600190565b60208082526010908201526f11549497d1125597d25395115493905360821b604082015260600190565b6020808252600c908201526b22a9292fa624a6a4aa2fa4a760a11b604082015260600190565b6020808252600b908201526a4552525f5245454e54525960a81b604082015260600190565b6020808252600d908201526c45525220484f5354204f4e4c5960981b604082015260600190565b6020808252601190820152704552525f4d41585f4f55545f524154494f60781b604082015260600190565b6020808252600d908201526c11549497d393d517d093d55391609a1b604082015260600190565b6020808252600b908201526a4552525f4d41585f46454560a81b604082015260600190565b6020808252601390820152724552525f4241445f4c494d49545f505249434560681b604082015260600190565b6020808252600e908201526d11549497d3525397d5d15251d21560921b604082015260600190565b60208082526011908201527011549497d393d517d19253905312569151607a1b604082015260600190565b60208082526010908201526f4552525f4d554c5f4f564552464c4f5760801b604082015260600190565b6020808252600c908201526b11549497d0905117d213d4d560a21b604082015260600190565b6020808252600f908201526e4552525f4c494d49545f505249434560881b604082015260600190565b6020808252600c908201526b4552525f4449565f5a45524f60a01b604082015260600190565b6020808252601390820152724552525f535741505f4e4f545f5055424c494360681b604082015260600190565b6020808252600f908201526e4552525f45524332305f46414c534560881b604082015260600190565b6020808252601190820152704552525f5355425f554e444552464c4f5760781b604082015260600190565b60208082526010908201526f4552525f4144445f4f564552464c4f5760801b604082015260600190565b6020808252600e908201526d4552525f4d494e5f544f4b454e5360901b604082015260600190565b9384526001600160a01b0392909216602080850191909152604080850192909252825115156060808601919091529083015160808501529082015160a0840152015160c082015260e00190565b8581526001600160a01b0385166020820152608060408201819052600090615687908301858761503a565b90508260608301529695505050505050565b918252602082015260400190565b948552602085019390935260408401919091526060830152608082015260a00190565b958652602086019490945260408501929092526060840152608083015260a082015260c00190565b60ff91909116815260200190565b60005b8381101561571b578181015183820152602001615703565b8381111561572a576000848401525b50505050565b6001600160a01b038116811461434757600080fd5b801515811461434757600080fdfe556e737570706f727465642063616c6c6261636b202d20204265666f72652041677265656d656e74205465726d696e617465648c5be1e5ebec7d5bd14f71427d1e84f3dd0314c0f7b2291e5b200ac8c7c3b925556e737570706f727465642063616c6c6261636b202d204265666f72652041677265656d656e742075706461746564556e737570706f727465642063616c6c6261636b202d204265666f72652041677265656d656e742043726561746564a2646970667358221220d022cfd6002e8b7d1ef206427ffcee32930cb99ee6a25d420e72c419d789c5e564736f6c63430007060033a264697066735822122044387a345e355dc5a857a4e85624c77885b2dbc74aa540e7cdb061db3cc90c0664736f6c63430007060033",
  "deployedBytecode": "0x608060405234801561001057600080fd5b506004361061002b5760003560e01c80633e68680a14610030575b600080fd5b61005e6004803603604081101561004657600080fd5b506001600160a01b038135811691602001351661007a565b604080516001600160a01b039092168252519081900360200190f35b600080838360405161008b90610130565b6001600160a01b03928316815291166020820152604080519182900301906000f0801580156100be573d6000803e3d6000fd5b509050806001600160a01b03166392eefe9b336040518263ffffffff1660e01b815260040180826001600160a01b03168152602001915050600060405180830381600087803b15801561011057600080fd5b505af1158015610124573d6000803e3d6000fd5b50929695505050505050565b615c1e8061013e8339019056fe60c0604052601360808190527f42616c616e63657220506f6f6c20546f6b656e0000000000000000000000000060a09081526200004091600391906200025a565b506040805180820190915260038082526210941560ea1b60209092019182526200006d916004916200025a565b506005805460ff191660121790553480156200008857600080fd5b5060405162005c1e38038062005c1e833981016040819052620000ab9162000306565b6001600160a01b038216620000dd5760405162461bcd60e51b8152600401620000d4906200037b565b60405180910390fd5b6001600160a01b038116620001065760405162461bcd60e51b8152600401620000d49062000344565b6040516315a722b960e31b8152641500000001906001600160a01b0384169063ad3915c8906200013b908490600401620003b2565b600060405180830381600087803b1580156200015657600080fd5b505af11580156200016b573d6000803e3d6000fd5b5050600d80546001600160a01b038088166001600160a01b0319928316178355600e8054918816919092161790556040516381365a4d60e01b815273__$6a06799d2eeadea7f0f1d393eececa95a1$__93506381365a4d9250620001d39190600401620003b2565b60006040518083038186803b158015620001ec57600080fd5b505af415801562000201573d6000803e3d6000fd5b5050600680546005805462010000600160b01b031916336201000081029190911790915564e8d4a510006007556001600160a01b03199091161760ff60a01b1916905550506008805460ff1916905550620003d4915050565b828054600181600116156101000203166002900490600052602060002090601f016020900481019282620002925760008555620002dd565b82601f10620002ad57805160ff1916838001178555620002dd565b82800160010185558215620002dd579182015b82811115620002dd578251825591602001919060010190620002c0565b50620002eb929150620002ef565b5090565b5b80821115620002eb5760008155600101620002f0565b6000806040838503121562000319578182fd5b82516200032681620003bb565b60208401519092506200033981620003bb565b809150509250929050565b60208082526013908201527f636661206973207a65726f206164647265737300000000000000000000000000604082015260600190565b60208082526014908201527f686f7374206973207a65726f2061646472657373000000000000000000000000604082015260600190565b90815260200190565b6001600160a01b0381168114620003d157600080fd5b50565b61583a80620003e46000396000f3fe608060405234801561001057600080fd5b50600436106103c55760003560e01c8063884d1f40116101ff578063be3bbd2e1161011a578063d86ed3e5116100ad578063ec0930211161007c578063ec0930211461074e578063f1b8a9b714610756578063f8b2cb4f14610769578063fde924f71461077c576103c5565b8063d86ed3e514610715578063dd62ed3e14610728578063e4a28a5214610428578063e4e1e5381461073b576103c5565b8063cd2ed8fb116100e9578063cd2ed8fb146106df578063cf5e7bd3146106e7578063d4cadf68146106fa578063d73dd62314610702576103c5565b8063be3bbd2e146106ba578063c36596a614610466578063c6580d12146106cf578063cc77828d146106d7576103c5565b80639a86139b11610192578063b7b800a411610161578063b7b800a41461069a578063ba019dab146106a2578063bc063e1a146106aa578063bc694ea2146106b2576103c5565b80639a86139b14610664578063a9059cbb1461066c578063b02f0b731461067f578063b0e0d13614610692576103c5565b80639381cd2b116101ce5780639381cd2b14610639578063948d8ce61461064157806395d89b4114610654578063992e2a921461065c576103c5565b8063884d1f40146106035780638d4e40831461061657806392eefe9b1461061e578063936c347714610631576103c5565b806334e19907116102ef5780635f9e7d771161028257806376c7a3c71161025157806376c7a3c7146105bf5780637c5e9ea4146105c75780638201aa3f146105e8578063867378c5146105fb576103c5565b80635f9e7d771461057357806366188463146105865780636d06dfa01461059957806370a08231146105ac576103c5565b80634bb278f3116102be5780634bb278f3146105325780634f69c0d41461053a57806353c11f991461054d5780635db3427714610560576103c5565b806334e19907146104e45780633fdddaa2146104f957806346ab38f11461050c57806349b595521461051f576103c5565b8063189d00ca116103675780632f37b624116103365780632f37b624146104945780633018205f146104a757806330d9c915146104bc578063313ce567146104cf576103c5565b8063189d00ca1461045e578063218b538214610466578063230dbd291461046e57806323b872dd14610481576103c5565b806309a3bbe4116103a357806309a3bbe4146104285780631446a7ff1461043057806315e84af91461044357806318160ddd14610456576103c5565b806302c96748146103ca57806306fdde03146103f3578063095ea7b314610408575b600080fd5b6103dd6103d8366004614d2b565b610784565b6040516103ea9190615139565b60405180910390f35b6103fb610af2565b6040516103ea919061515e565b61041b610416366004614caf565b610b88565b6040516103ea919061512e565b6103dd610bdc565b6103dd61043e366004614c37565b610be9565b6103dd610451366004614c37565b610d7a565b6103dd610eb1565b6103dd610eb7565b6103dd610ecb565b6103fb61047c366004614eca565b610ed7565b61041b61048f366004614c6f565b610fd8565b61041b6104a2366004614bff565b611132565b6104af611150565b6040516103ea9190615090565b6103fb6104ca366004614e2e565b61118b565b6104d76111c4565b6040516103ea91906156f2565b6104f76104f2366004614f91565b6111cd565b005b6104f7610507366004614d2b565b6112e8565b6103dd61051a366004614d2b565b611635565b6104f761052d366004614d5f565b6118cc565b6104f76119b3565b6104f7610548366004614fc1565b611ae8565b6103fb61055b366004614eca565b611da2565b6103dd61056e366004614d2b565b611dfe565b6103fb610581366004614e2e565b612109565b61041b610594366004614caf565b612142565b6103dd6105a7366004614d2b565b61221a565b6103dd6105ba366004614bff565b61249a565b6103dd6124b5565b6105da6105d5366004614cda565b6124c7565b6040516103ea929190615699565b6105da6105f6366004614cda565b612b32565b6103dd613111565b6103fb610611366004614e2e565b613125565b61041b61315e565b6104f761062c366004614bff565b613167565b6103dd613231565b6103dd613263565b6103dd61064f366004614bff565b613270565b6103fb6132f2565b6103dd613353565b6103dd61335f565b61041b61067a366004614caf565b61336c565b6104f761068d366004614fc1565b613382565b6103dd613677565b6103dd61367c565b6103dd613681565b6103dd613686565b6103dd613696565b6106c26136a2565b6040516103ea91906150e1565b6103dd61374e565b6106c2613753565b6103dd61377e565b6104f76106f5366004614bff565b613784565b6103dd613b22565b61041b610710366004614caf565b613b54565b6103fb610723366004614eca565b613bd5565b6103dd610736366004614c37565b613c33565b6104f7610749366004614d2b565b613c5e565b6103dd614067565b6103dd610764366004614bff565b614077565b6103dd610777366004614bff565b61410b565b61041b614160565b60405160009033906001600160e01b0319833516906107a69084903690615142565b60405180910390a2600554610100900460ff16156107df5760405162461bcd60e51b81526004016107d69061535a565b60405180910390fd5b6005805461ff0019166101001790556001600160a01b038085166000908152600a60205260408120549091169061081582614170565b60085490915060ff1661083a5760405162461bcd60e51b81526004016107d690615472565b6001600160a01b0386166000908152600b602052604090205460ff166108725760405162461bcd60e51b81526004016107d6906153d1565b61088b816003670de0b6b3a76400005b04600101614224565b8511156108aa5760405162461bcd60e51b81526004016107d6906153a6565b6001600160a01b0382166000908152600b6020526040908190206002808201549054600c5460075494516382f652ad60e01b8152939473__$6a06799d2eeadea7f0f1d393eececa95a1$__946382f652ad94610911948994919390928e91906004016156ca565b60206040518083038186803b15801561092957600080fd5b505af415801561093d573d6000803e3d6000fd5b505050506040513d601f19601f820116820180604052508101906109619190614fa9565b9350836109805760405162461bcd60e51b81526004016107d690615215565b848411156109a05760405162461bcd60e51b81526004016107d690615334565b6109aa828761429d565b600382015560006109bb8582614224565b9050876001600160a01b0316336001600160a01b03167fe74c91552b64c2e2e7bd255639e004e693bd3e1d01cc33e65610b86afcc1ffed89604051610a009190615139565b60405180910390a3610a1233866142d6565b610a24610a1f86836142e4565b61433e565b600554610a40906201000090046001600160a01b03168261434a565b610a4b843389614354565b604080516080810182526001815260006020820152600284015481830152606081018590529051630613fced60e11b815273__$6a06799d2eeadea7f0f1d393eececa95a1$__91630c27f9da91610aac91600d918991600b9160040161560f565b60006040518083038186803b158015610ac457600080fd5b505af4158015610ad8573d6000803e3d6000fd5b50505050505050506005805461ff00191690559392505050565b60038054604080516020601f6002600019610100600188161502019095169490940493840181900481028201810190925282815260609390929091830182828015610b7e5780601f10610b5357610100808354040283529160200191610b7e565b820191906000526020600020905b815481529060010190602001808311610b6157829003601f168201915b5050505050905090565b3360008181526001602090815260408083206001600160a01b03871680855290835281842086905581518681529151939490939092600080516020615787833981519152928290030190a350600192915050565b6802b5e3af16b188000081565b600554600090610100900460ff1615610c145760405162461bcd60e51b81526004016107d69061535a565b6001600160a01b038084166000908152600a6020908152604080832054868516845281842054908516808552600b9093529220549092919091169060ff16610c6e5760405162461bcd60e51b81526004016107d6906153d1565b6001600160a01b0381166000908152600b602052604090205460ff16610ca65760405162461bcd60e51b81526004016107d6906153d1565b6001600160a01b038083166000908152600b60205260408082209284168252902073__$6a06799d2eeadea7f0f1d393eececa95a1$__63a221ee49610cea86614170565b8460020154610cf887614170565b856002015460006040518663ffffffff1660e01b8152600401610d1f9594939291906156a7565b60206040518083038186803b158015610d3757600080fd5b505af4158015610d4b573d6000803e3d6000fd5b505050506040513d601f19601f82011682018060405250810190610d6f9190614fa9565b979650505050505050565b600554600090610100900460ff1615610da55760405162461bcd60e51b81526004016107d69061535a565b6001600160a01b038084166000908152600a6020908152604080832054868516845281842054908516808552600b9093529220549092919091169060ff16610dff5760405162461bcd60e51b81526004016107d6906153d1565b6001600160a01b0381166000908152600b602052604090205460ff16610e375760405162461bcd60e51b81526004016107d6906153d1565b6001600160a01b038083166000908152600b60205260408082209284168252902073__$6a06799d2eeadea7f0f1d393eececa95a1$__63a221ee49610e7b86614170565b8460020154610e8987614170565b85600201546007546040518663ffffffff1660e01b8152600401610d1f9594939291906156a7565b60025490565b6402540be400670de0b6b3a76400005b0481565b670de0b6b3a764000081565b600d546060906001600160a01b03163314610f045760405162461bcd60e51b81526004016107d69061537f565b610f356040518060400160405280601081526020016f61677265656d656e742075706461746560801b8152506144f6565b60405163a42b510160e01b815273__$6a06799d2eeadea7f0f1d393eececa95a1$__9063a42b510190610f7690600d908e9088908890600b9060040161565c565b60006040518083038186803b158015610f8e57600080fd5b505af4158015610fa2573d6000803e3d6000fd5b505050506040513d6000823e601f3d908101601f19168201604052610fca9190810190614d97565b9a9950505050505050505050565b6000336001600160a01b038516148061101457506001600160a01b03841660009081526001602090815260408083203384529091529020548211155b61105d576040805162461bcd60e51b815260206004820152601560248201527422a9292fa12a27a5a2a72fa120a22fa1a0a62622a960591b604482015290519081900360640190fd5b61106884848461459c565b336001600160a01b038516148015906110a657506001600160a01b038416600090815260016020908152604080832033845290915290205460001914155b15611128576001600160a01b03841660009081526001602090815260408083203384529091529020546110d990836142e4565b6001600160a01b03858116600090815260016020908152604080832033808552908352928190208590558051948552519287169391926000805160206157878339815191529281900390910190a35b5060019392505050565b6001600160a01b03166000908152600b602052604090205460ff1690565b600554600090610100900460ff161561117b5760405162461bcd60e51b81526004016107d69061535a565b506006546001600160a01b031690565b606060405162461bcd60e51b815260040180806020018281038252602f8152602001806157d6602f913960400191505060405180910390fd5b60055460ff1690565b336001600160a01b03166000356001600160e01b0319166001600160e01b0319166000366040516111ff929190615142565b60405180910390a2600554610100900460ff161561122f5760405162461bcd60e51b81526004016107d69061535a565b6005805461ff00191661010017905560085460ff16156112615760405162461bcd60e51b81526004016107d69061528b565b6006546001600160a01b0316331461128b5760405162461bcd60e51b81526004016107d690615171565b64e8d4a510008110156112b05760405162461bcd60e51b81526004016107d69061523e565b67016345785d8a00008111156112d85760405162461bcd60e51b81526004016107d6906153f8565b6007556005805461ff0019169055565b336001600160a01b03166000356001600160e01b0319166001600160e01b03191660003660405161131a929190615142565b60405180910390a2600554610100900460ff161561134a5760405162461bcd60e51b81526004016107d69061535a565b6005805461ff001916610100179055600654336001600160a01b03909116146113855760405162461bcd60e51b81526004016107d690615171565b6001600160a01b0383166000908152600b602052604090205460ff166113bd5760405162461bcd60e51b81526004016107d6906153d1565b60085460ff16156113e05760405162461bcd60e51b81526004016107d69061528b565b670de0b6b3a76400008110156114085760405162461bcd60e51b81526004016107d69061544a565b6802b5e3af16b18800008111156114315760405162461bcd60e51b81526004016107d690615263565b6001600160a01b0383166000818152600b602081815260408084208151608081018352815460ff1615158152600182015481850152600282015492810183905260039091015460608201529490935252808311156114d05761149e600c54611499858461429d565b6146ac565b600c8190556802b5e3af16b188000010156114cb5760405162461bcd60e51b81526004016107d6906152b5565b6114f1565b808310156114f1576114ed600c546114e8838661429d565b61429d565b600c555b6001600160a01b0385166000908152600b6020526040812060020184905561151886614170565b6001600160a01b0387166000908152600b6020526040902060030186905590508085111561155957611554863361154f888561429d565b6146d1565b6115b3565b808510156115b357600061156d828761429d565b9050600061157c826000614224565b9050611592883361158d858561429d565b614354565b6005546115b09089906201000090046001600160a01b031683614354565b50505b604051630613fced60e11b815273__$6a06799d2eeadea7f0f1d393eececa95a1$__90630c27f9da906115f290600d908a90600b90899060040161560f565b60006040518083038186803b15801561160a57600080fd5b505af415801561161e573d6000803e3d6000fd5b50506005805461ff00191690555050505050505050565b60405160009033906001600160e01b0319833516906116579084903690615142565b60405180910390a2600554610100900460ff16156116875760405162461bcd60e51b81526004016107d69061535a565b6005805461ff0019166101001790556001600160a01b038085166000908152600a6020526040812054909116906116bd82614170565b60085490915060ff166116e25760405162461bcd60e51b81526004016107d690615472565b6001600160a01b0382166000908152600b602052604090205460ff1661171a5760405162461bcd60e51b81526004016107d6906153d1565b6001600160a01b0382166000908152600b6020526040908190206002808201549054600c546007549451634494c00960e11b8152939473__$6a06799d2eeadea7f0f1d393eececa95a1$__94638929801294611781948994919390928e91906004016156ca565b60206040518083038186803b15801561179957600080fd5b505af41580156117ad573d6000803e3d6000fd5b505050506040513d601f19601f820116820180604052508101906117d19190614fa9565b9350848410156117f35760405162461bcd60e51b81526004016107d6906152e3565b611807826003670de0b6b3a7640000610882565b8411156118265760405162461bcd60e51b81526004016107d6906153a6565b611830828561429d565b600382015560006118418782614224565b9050876001600160a01b0316336001600160a01b03167fe74c91552b64c2e2e7bd255639e004e693bd3e1d01cc33e65610b86afcc1ffed876040516118869190615139565b60405180910390a361189833886142d6565b6118a5610a1f88836142e4565b6005546118c1906201000090046001600160a01b03168261434a565b610a4b843387614354565b336001600160a01b03166000356001600160e01b0319166001600160e01b0319166000366040516118fe929190615142565b60405180910390a2600554610100900460ff161561192e5760405162461bcd60e51b81526004016107d69061535a565b6005805461ff00191661010017905560085460ff16156119605760405162461bcd60e51b81526004016107d69061528b565b6006546001600160a01b0316331461198a5760405162461bcd60e51b81526004016107d690615171565b60068054911515600160a01b0260ff60a01b199092169190911790556005805461ff0019169055565b336001600160a01b03166000356001600160e01b0319166001600160e01b0319166000366040516119e5929190615142565b60405180910390a2600554610100900460ff1615611a155760405162461bcd60e51b81526004016107d69061535a565b6005805461ff001916610100179055600654336001600160a01b0390911614611a505760405162461bcd60e51b81526004016107d690615171565b60085460ff1615611a735760405162461bcd60e51b81526004016107d69061528b565b60095460021115611a965760405162461bcd60e51b81526004016107d6906155e7565b6008805460ff191660011790556006805460ff60a01b1916600160a01b179055611ac868056bc75e2d63100000614875565b611adb3368056bc75e2d6310000061434a565b6005805461ff0019169055565b336001600160a01b03166000356001600160e01b0319166001600160e01b031916600036604051611b1a929190615142565b60405180910390a2600554610100900460ff1615611b4a5760405162461bcd60e51b81526004016107d69061535a565b6005805461ff00191661010017905560085460ff16611b7b5760405162461bcd60e51b81526004016107d690615472565b6000611b85610eb1565b90506000611b93858361487e565b905080611bb25760405162461bcd60e51b81526004016107d690615215565b60005b600954811015611d7c57600060098281548110611bce57fe5b60009182526020808320909101546001600160a01b0316808352600b825260408084208151608081018352815460ff1615158152600182015494810194909452600281015491840191909152600301546060830152925090611c2f83614170565b90506000611c3d8683614224565b905080611c5c5760405162461bcd60e51b81526004016107d690615215565b888886818110611c6857fe5b90506020020135811115611c8e5760405162461bcd60e51b81526004016107d690615334565b611c9882826146ac565b6001600160a01b0385166000818152600b60205260409081902060030192909255905133907f63982df10efd8dfaaaa0fcc7f50b2d93b7cba26ccc48adee2873220d485dc39a90611cea908590615139565b60405180910390a3611cfd8433836146d1565b604051630613fced60e11b815273__$6a06799d2eeadea7f0f1d393eececa95a1$__90630c27f9da90611d3c90600d908890600b90899060040161560f565b60006040518083038186803b158015611d5457600080fd5b505af4158015611d68573d6000803e3d6000fd5b505060019096019550611bb5945050505050565b50611d8685614875565b611d90338661434a565b50506005805461ff0019169055505050565b600d546060906001600160a01b03163314611dcf5760405162461bcd60e51b81526004016107d69061537f565b610f356040518060400160405280600e81526020016d61677265656d656e74207465726d60901b8152506144f6565b60405160009033906001600160e01b031983351690611e209084903690615142565b60405180910390a2600554610100900460ff1615611e505760405162461bcd60e51b81526004016107d69061535a565b6005805461ff0019166101001790556001600160a01b038085166000908152600a602052604081205490911690611e8682614170565b60085490915060ff16611eab5760405162461bcd60e51b81526004016107d690615472565b6001600160a01b0386166000908152600b602052604090205460ff16611ee35760405162461bcd60e51b81526004016107d6906153d1565b611ef9816002670de0b6b3a76400005b04614224565b851115611f185760405162461bcd60e51b81526004016107d6906151eb565b6001600160a01b0382166000908152600b6020526040908190206002808201549054600c546007549451638656b65360e01b8152939473__$6a06799d2eeadea7f0f1d393eececa95a1$__94638656b65394611f7f948994919390928e91906004016156ca565b60206040518083038186803b158015611f9757600080fd5b505af4158015611fab573d6000803e3d6000fd5b505050506040513d601f19601f82011682018060405250810190611fcf9190614fa9565b935084841015611ff15760405162461bcd60e51b81526004016107d6906152e3565b611ffb82876146ac565b60038201556040516001600160a01b0388169033907f63982df10efd8dfaaaa0fcc7f50b2d93b7cba26ccc48adee2873220d485dc39a9061203d908a90615139565b60405180910390a361204e84614875565b612058338561434a565b6120638333886146d1565b604080516080810182526001815260006020820152600283015481830152606081018490529051630613fced60e11b815273__$6a06799d2eeadea7f0f1d393eececa95a1$__91630c27f9da916120c491600d918891600b9160040161560f565b60006040518083038186803b1580156120dc57600080fd5b505af41580156120f0573d6000803e3d6000fd5b505050505050506005805461ff00191690559392505050565b606060405162461bcd60e51b81526004018080602001828103825260338152602001806157546033913960400191505060405180910390fd5b3360009081526001602090815260408083206001600160a01b038616845290915281205480831115612197573360009081526001602090815260408083206001600160a01b03881684529091528120556121c6565b6121a181846142e4565b3360009081526001602090815260408083206001600160a01b03891684529091529020555b3360008181526001602090815260408083206001600160a01b038916808552908352928190205481519081529051929392600080516020615787833981519152929181900390910190a35060019392505050565b60405160009033906001600160e01b03198335169061223c9084903690615142565b60405180910390a2600554610100900460ff161561226c5760405162461bcd60e51b81526004016107d69061535a565b6005805461ff0019166101001790556001600160a01b038085166000908152600a6020526040812054909116906122a282614170565b60085490915060ff166122c75760405162461bcd60e51b81526004016107d690615472565b6001600160a01b0382166000908152600b602052604090205460ff166122ff5760405162461bcd60e51b81526004016107d6906153d1565b6001600160a01b0382166000908152600b6020526040908190206002808201549054600c546007549451635c1bbaf760e01b8152939473__$6a06799d2eeadea7f0f1d393eececa95a1$__94635c1bbaf794612366948994919390928e91906004016156ca565b60206040518083038186803b15801561237e57600080fd5b505af4158015612392573d6000803e3d6000fd5b505050506040513d601f19601f820116820180604052508101906123b69190614fa9565b9350836123d55760405162461bcd60e51b81526004016107d690615215565b848411156123f55760405162461bcd60e51b81526004016107d690615334565b612409826002670de0b6b3a7640000611ef3565b8411156124285760405162461bcd60e51b81526004016107d6906151eb565b61243282856146ac565b60038201556040516001600160a01b0388169033907f63982df10efd8dfaaaa0fcc7f50b2d93b7cba26ccc48adee2873220d485dc39a90612474908890615139565b60405180910390a361248586614875565b61248f338761434a565b6120638333866146d1565b6001600160a01b031660009081526020819052604090205490565b620f4240670de0b6b3a7640000610ec7565b604051600090819033906001600160e01b0319833516906124eb9084903690615142565b60405180910390a2600554610100900460ff161561251b5760405162461bcd60e51b81526004016107d69061535a565b6005805461ff001916610100179055604080516080810182526001600160a01b03808a166000908152600a602081815285832054841685528a84168352908152848220548316818501528385018290526060840182905283519092168152600b909152919091205460ff166125a25760405162461bcd60e51b81526004016107d6906153d1565b6020808201516001600160a01b03166000908152600b909152604090205460ff166125df5760405162461bcd60e51b81526004016107d6906153d1565b600654600160a01b900460ff166126085760405162461bcd60e51b81526004016107d69061553c565b80516001600160a01b039081166000908152600b60209081526040808320918501519093168252919020825161263d90614170565b6040840152602083015161265090614170565b6060840181905261266b906003670de0b6b3a7640000610882565b87111561268a5760405162461bcd60e51b81526004016107d6906153a6565b600073__$6a06799d2eeadea7f0f1d393eececa95a1$__63a221ee4985604001518560020154876060015186600201546007546040518663ffffffff1660e01b81526004016126dd9594939291906156a7565b60206040518083038186803b1580156126f557600080fd5b505af4158015612709573d6000803e3d6000fd5b505050506040513d601f19601f8201168201806040525081019061272d9190614fa9565b90508681111561274f5760405162461bcd60e51b81526004016107d69061541d565b73__$6a06799d2eeadea7f0f1d393eececa95a1$__63f8d6aed485604001518560020154876060015186600201548d6007546040518763ffffffff1660e01b81526004016127a2969594939291906156ca565b60206040518083038186803b1580156127ba57600080fd5b505af41580156127ce573d6000803e3d6000fd5b505050506040513d601f19601f820116820180604052508101906127f29190614fa9565b9550898611156128145760405162461bcd60e51b81526004016107d690615334565b73__$6a06799d2eeadea7f0f1d393eececa95a1$__63a221ee4961283c8660400151896146ac565b856002015461284f88606001518d61429d565b86600201546007546040518663ffffffff1660e01b81526004016128779594939291906156a7565b60206040518083038186803b15801561288f57600080fd5b505af41580156128a3573d6000803e3d6000fd5b505050506040513d601f19601f820116820180604052508101906128c79190614fa9565b9450808510156128e95760405162461bcd60e51b81526004016107d690615215565b868511156129095760405162461bcd60e51b81526004016107d6906154ed565b612913868961487e565b8111156129325760405162461bcd60e51b81526004016107d690615215565b886001600160a01b03168b6001600160a01b0316336001600160a01b03167f908fb5ee8f16c6bc9bc3690973819f32a4d4b10188134543c88706e0e1d43378898c604051612981929190615699565b60405180910390a460408051608081018252845460ff16151581526001850154602082015260028501548183015260038501546060820152908501516129c790886146ac565b600385015584516129d99033896146d1565b8451604051630613fced60e11b815273__$6a06799d2eeadea7f0f1d393eececa95a1$__91630c27f9da91612a1891600d91600b90879060040161560f565b60006040518083038186803b158015612a3057600080fd5b505af4158015612a44573d6000803e3d6000fd5b505060408051608081018252865460ff1615158152600187015460208201526002870154918101919091526003860154606080830191909152880151909250612a8e91508b61429d565b60038501556020860151612aa390338c614354565b6020860151604051630613fced60e11b815273__$6a06799d2eeadea7f0f1d393eececa95a1$__91630c27f9da91612ae591600d91600b90879060040161560f565b60006040518083038186803b158015612afd57600080fd5b505af4158015612b11573d6000803e3d6000fd5b505050505050505050506005805461ff001916905590969095509350505050565b604051600090819033906001600160e01b031983351690612b569084903690615142565b60405180910390a2600554610100900460ff1615612b865760405162461bcd60e51b81526004016107d69061535a565b6005805461ff001916610100179055604080516080810182526001600160a01b03808a166000908152600a602081815285832054841685528a84168352908152848220548316818501528385018290526060840182905283519092168152600b909152919091205460ff16612c0d5760405162461bcd60e51b81526004016107d6906153d1565b6020808201516001600160a01b03166000908152600b909152604090205460ff16612c4a5760405162461bcd60e51b81526004016107d6906153d1565b600654600160a01b900460ff16612c735760405162461bcd60e51b81526004016107d69061553c565b80516001600160a01b039081166000908152600b602090815260408083209185015190931682529190208251612ca890614170565b60408401526020830151612cbb90614170565b60608401526040830151612cd9906002670de0b6b3a7640000611ef3565b891115612cf85760405162461bcd60e51b81526004016107d6906151eb565b600073__$6a06799d2eeadea7f0f1d393eececa95a1$__63a221ee4985604001518560020154876060015186600201546007546040518663ffffffff1660e01b8152600401612d4b9594939291906156a7565b60206040518083038186803b158015612d6357600080fd5b505af4158015612d77573d6000803e3d6000fd5b505050506040513d601f19601f82011682018060405250810190612d9b9190614fa9565b905086811115612dbd5760405162461bcd60e51b81526004016107d69061541d565b73__$6a06799d2eeadea7f0f1d393eececa95a1$__63ba9530a685604001518560020154876060015186600201548f6007546040518763ffffffff1660e01b8152600401612e10969594939291906156ca565b60206040518083038186803b158015612e2857600080fd5b505af4158015612e3c573d6000803e3d6000fd5b505050506040513d601f19601f82011682018060405250810190612e609190614fa9565b955087861015612e825760405162461bcd60e51b81526004016107d6906152e3565b73__$6a06799d2eeadea7f0f1d393eececa95a1$__63a221ee49612eaa86604001518d6146ac565b8560020154612ebd88606001518b61429d565b86600201546007546040518663ffffffff1660e01b8152600401612ee59594939291906156a7565b60206040518083038186803b158015612efd57600080fd5b505af4158015612f11573d6000803e3d6000fd5b505050506040513d601f19601f82011682018060405250810190612f359190614fa9565b945080851015612f575760405162461bcd60e51b81526004016107d690615215565b86851115612f775760405162461bcd60e51b81526004016107d6906154ed565b612f818a8761487e565b811115612fa05760405162461bcd60e51b81526004016107d690615215565b886001600160a01b03168b6001600160a01b0316336001600160a01b03167f908fb5ee8f16c6bc9bc3690973819f32a4d4b10188134543c88706e0e1d433788d8a604051612fef929190615699565b60405180910390a460408051608081018252845460ff1615158152600185015460208201526002850154818301526003850154606082015290850151613035908c6146ac565b6003850155845161304790338d6146d1565b8451604051630613fced60e11b815273__$6a06799d2eeadea7f0f1d393eececa95a1$__91630c27f9da9161308691600d91600b90879060040161560f565b60006040518083038186803b15801561309e57600080fd5b505af41580156130b2573d6000803e3d6000fd5b505060408051608081018252865460ff16151581526001870154602082015260028701549181019190915260038601546060808301919091528801519092506130fc91508961429d565b60038501556020860151612aa390338a614354565b64e8d4a51000670de0b6b3a7640000610ec7565b606060405162461bcd60e51b815260040180806020018281038252602f8152602001806157a7602f913960400191505060405180910390fd5b60085460ff1690565b336001600160a01b03166000356001600160e01b0319166001600160e01b031916600036604051613199929190615142565b60405180910390a2600554610100900460ff16156131c95760405162461bcd60e51b81526004016107d69061535a565b6005805461ff001916610100179055600654336001600160a01b03909116146132045760405162461bcd60e51b81526004016107d690615171565b600680546001600160a01b0319166001600160a01b03929092169190911790556005805461ff0019169055565b600554600090610100900460ff161561325c5760405162461bcd60e51b81526004016107d69061535a565b50600c5490565b68056bc75e2d6310000081565b600554600090610100900460ff161561329b5760405162461bcd60e51b81526004016107d69061535a565b6001600160a01b0382166000908152600b602052604090205460ff166132d35760405162461bcd60e51b81526004016107d6906153d1565b506001600160a01b03166000908152600b602052604090206002015490565b60048054604080516020601f6002600019610100600188161502019095169490940493840181900481028201810190925282815260609390929091830182828015610b7e5780601f10610b5357610100808354040283529160200191610b7e565b6704a03ce68d21555681565b6542524f4e5a4560d01b90565b600061337933848461459c565b50600192915050565b336001600160a01b03166000356001600160e01b0319166001600160e01b0319166000366040516133b4929190615142565b60405180910390a2600554610100900460ff16156133e45760405162461bcd60e51b81526004016107d69061535a565b6005805461ff00191661010017905560085460ff166134155760405162461bcd60e51b81526004016107d690615472565b600061341f610eb1565b9050600061342e856000614224565b9050600061343c868361429d565b9050600061344a828561487e565b9050806134695760405162461bcd60e51b81526004016107d690615215565b61347333886142d6565b60055461348f906201000090046001600160a01b03168461434a565b6134988261433e565b60005b600954811015613662576000600982815481106134b457fe5b60009182526020808320909101546001600160a01b0316808352600b825260408084208151608081018352815460ff161515815260018201549481019490945260028101549184019190915260030154606083015292509061351583614170565b905060006135238683614224565b9050806135425760405162461bcd60e51b81526004016107d690615215565b8a8a8681811061354e57fe5b905060200201358110156135745760405162461bcd60e51b81526004016107d6906152e3565b61357e828261429d565b6001600160a01b0385166000818152600b60205260409081902060030192909255905133907fe74c91552b64c2e2e7bd255639e004e693bd3e1d01cc33e65610b86afcc1ffed906135d0908590615139565b60405180910390a36135e3843383614354565b604051630613fced60e11b815273__$6a06799d2eeadea7f0f1d393eececa95a1$__90630c27f9da9061362290600d908890600b90899060040161560f565b60006040518083038186803b15801561363a57600080fd5b505af415801561364e573d6000803e3d6000fd5b50506001909601955061349b945050505050565b50506005805461ff0019169055505050505050565b600881565b600281565b600181565b600a670de0b6b3a7640000610ec7565b671bc16d674ec7ffff81565b600554606090610100900460ff16156136cd5760405162461bcd60e51b81526004016107d69061535a565b60085460ff166136ef5760405162461bcd60e51b81526004016107d690615472565b6009805480602002602001604051908101604052809291908181526020018280548015610b7e57602002820191906000526020600020905b81546001600160a01b03168152600190910190602001808311613727575050505050905090565b600081565b600554606090610100900460ff16156136ef5760405162461bcd60e51b81526004016107d69061535a565b60095490565b336001600160a01b03166000356001600160e01b0319166001600160e01b0319166000366040516137b6929190615142565b60405180910390a2600554610100900460ff16156137e65760405162461bcd60e51b81526004016107d69061535a565b6005805461ff001916610100179055600654336001600160a01b03909116146138215760405162461bcd60e51b81526004016107d690615171565b6001600160a01b0381166000908152600b602052604090205460ff166138595760405162461bcd60e51b81526004016107d6906153d1565b60085460ff161561387c5760405162461bcd60e51b81526004016107d69061528b565b600061388782614170565b90506000613896826000614224565b600c546001600160a01b0385166000908152600b60205260409020600201549192506138c19161429d565b600c556001600160a01b0383166000908152600b60205260409020600101546009805460001981019190829081106138f557fe5b600091825260209091200154600980546001600160a01b03909216918490811061391b57fe5b9060005260206000200160006101000a8154816001600160a01b0302191690836001600160a01b0316021790555081600b60006009858154811061395b57fe5b60009182526020808320909101546001600160a01b03168352820192909252604001902060010155600980548061398e57fe5b60008281526020808220600019908401810180546001600160a01b031916905590920190925560408051608081018252838152808301848152818301858152606083018681526001600160a01b038c16808852600b8752968590209351845460ff191690151517845591516001840155516002830155516003909101558051631dce337960e31b8152905163ee719bc892600480840193919291829003018186803b158015613a3c57600080fd5b505afa158015613a50573d6000803e3d6000fd5b505050506040513d601f19601f82011682018060405250810190613a749190614c1b565b6001600160a01b031663095ea7b38660006040518363ffffffff1660e01b8152600401613aa29291906150c8565b602060405180830381600087803b158015613abc57600080fd5b505af1158015613ad0573d6000803e3d6000fd5b505050506040513d601f19601f82011682018060405250810190613af49190614d7b565b50613b04853361158d878761429d565b600554611d909086906201000090046001600160a01b031685614354565b600554600090610100900460ff1615613b4d5760405162461bcd60e51b81526004016107d69061535a565b5060075490565b3360009081526001602090815260408083206001600160a01b0386168452909152812054613b829083614912565b3360008181526001602090815260408083206001600160a01b038916808552908352928190208590558051948552519193600080516020615787833981519152929081900390910190a350600192915050565b600d546060906001600160a01b03163314613c025760405162461bcd60e51b81526004016107d69061537f565b610f356040518060400160405280601081526020016f61677265656d656e742063726561746560801b8152506144f6565b6001600160a01b03918216600090815260016020908152604080832093909416825291909152205490565b336001600160a01b03166000356001600160e01b0319166001600160e01b031916600036604051613c90929190615142565b60405180910390a26006546001600160a01b03163314613cc25760405162461bcd60e51b81526004016107d690615171565b6001600160a01b0383166000908152600b602052604090205460ff1615613cfb5760405162461bcd60e51b81526004016107d69061519d565b60085460ff1615613d1e5760405162461bcd60e51b81526004016107d69061528b565b600954600811613d405760405162461bcd60e51b81526004016107d6906151c3565b826001600160a01b03166320bc44256040518163ffffffff1660e01b815260040160206040518083038186803b158015613d7957600080fd5b505afa158015613d8d573d6000803e3d6000fd5b505050506040513d601f19601f82011682018060405250810190613db19190614c1b565b600d546001600160a01b03908116911614613dde5760405162461bcd60e51b81526004016107d6906154c7565b6040805160808101825260018082526009805460208085019182526000858701818152606087018281526001600160a01b038c16808452600b85528984209851895460ff19169015151789559451888801559051600288015551600390960195909555825493840183559184527f6e1540171b6c0c960b71a7020d9f60077f6af931a8bbf590da0223dacf75c7af90920180546001600160a01b031916831790558351631dce337960e31b815293518794600a94939263ee719bc892600480840193829003018186803b158015613eb457600080fd5b505afa158015613ec8573d6000803e3d6000fd5b505050506040513d601f19601f82011682018060405250810190613eec9190614c1b565b6001600160a01b03166001600160a01b0316815260200190815260200160002060006101000a8154816001600160a01b0302191690836001600160a01b03160217905550826001600160a01b031663ee719bc86040518163ffffffff1660e01b815260040160206040518083038186803b158015613f6957600080fd5b505afa158015613f7d573d6000803e3d6000fd5b505050506040513d601f19601f82011682018060405250810190613fa19190614c1b565b6001600160a01b031663095ea7b3846000196040518363ffffffff1660e01b8152600401613fd09291906150c8565b602060405180830381600087803b158015613fea57600080fd5b505af1158015613ffe573d6000803e3d6000fd5b505050506040513d601f19601f820116820180604052508101906140229190614d7b565b506040516001600160a01b038416907feb9218e087679078373f04721594f6b59d3cee9733080593d5e49ac61b46494390600090a26140628383836112e8565b505050565b6002670de0b6b3a7640000610ec7565b600554600090610100900460ff16156140a25760405162461bcd60e51b81526004016107d69061535a565b6001600160a01b0382166000908152600b602052604090205460ff166140da5760405162461bcd60e51b81526004016107d6906153d1565b6001600160a01b0382166000908152600b6020526040902060020154600c5461410490829061487e565b9392505050565b600554600090610100900460ff16156141365760405162461bcd60e51b81526004016107d69061535a565b6001600160a01b038083166000908152600a602052604090205461415a9116614170565b92915050565b600654600160a01b900460ff1690565b6001600160a01b0381166000908152600b602052604081205460ff166141a85760405162461bcd60e51b81526004016107d6906153d1565b6040516370a0823160e01b81526001600160a01b038316906370a08231906141d4903090600401615090565b60206040518083038186803b1580156141ec57600080fd5b505afa158015614200573d6000803e3d6000fd5b505050506040513d601f19601f8201168201806040525081019061415a9190614fa9565b600082820283158061423e57508284828161423b57fe5b04145b61425a5760405162461bcd60e51b81526004016107d69061549d565b6706f05b59d3b200008101818110156142855760405162461bcd60e51b81526004016107d69061549d565b6000670de0b6b3a7640000825b049695505050505050565b60008060006142ac858561495f565b9150915080156142ce5760405162461bcd60e51b81526004016107d690615592565b509392505050565b6142e08282614984565b5050565b60008060006142f3858561495f565b9150915080156142ce576040805162461bcd60e51b81526020600482015260116024820152704552525f5355425f554e444552464c4f5760781b604482015290519081900360640190fd5b6143478161498f565b50565b6142e08282614a5f565b61437b604051806040016040528060048152602001630e0eae6d60e31b8152508483614a6a565b6040516308de640f60e11b81526001600160a01b038416906311bcc81e906143a7908490600401615139565b600060405180830381600087803b1580156143c157600080fd5b505af11580156143d5573d6000803e3d6000fd5b505050506000836001600160a01b031663ee719bc86040518163ffffffff1660e01b815260040160206040518083038186803b15801561441457600080fd5b505afa158015614428573d6000803e3d6000fd5b505050506040513d601f19601f8201168201806040525081019061444c9190614c1b565b90506000816001600160a01b031663a9059cbb85856040518363ffffffff1660e01b815260040161447e9291906150c8565b602060405180830381600087803b15801561449857600080fd5b505af11580156144ac573d6000803e3d6000fd5b505050506040513d601f19601f820116820180604052508101906144d09190614d7b565b9050806144ef5760405162461bcd60e51b81526004016107d690615569565b5050505050565b614347816040516024018080602001828103825283818151815260200191508051906020019080838360005b8381101561453a578181015183820152602001614522565b50505050905090810190601f1680156145675780820380516001836020036101000a031916815260200191505b5060408051601f198184030181529190526020810180516001600160e01b031663104c13eb60e21b1790529250614b29915050565b6001600160a01b038316600090815260208190526040902054811115614600576040805162461bcd60e51b815260206004820152601460248201527311549497d25394d551919250d251539517d0905360621b604482015290519081900360640190fd5b6001600160a01b03831660009081526020819052604090205461462390826142e4565b6001600160a01b0380851660009081526020819052604080822093909355908416815220546146529082614912565b6001600160a01b038084166000818152602081815260409182902094909455805185815290519193928716927fddf252ad1be2c89b69c2b068fc378daa952ba7f163c4a11628f55a4df523b3ef92918290030190a3505050565b6000828201838110156141045760405162461bcd60e51b81526004016107d6906155bd565b6146f8604051806040016040528060048152602001631c1d5b1b60e21b8152508483614a6a565b6000836001600160a01b031663ee719bc86040518163ffffffff1660e01b815260040160206040518083038186803b15801561473357600080fd5b505afa158015614747573d6000803e3d6000fd5b505050506040513d601f19601f8201168201806040525081019061476b9190614c1b565b90506000816001600160a01b03166323b872dd8530866040518463ffffffff1660e01b815260040161479f939291906150a4565b602060405180830381600087803b1580156147b957600080fd5b505af11580156147cd573d6000803e3d6000fd5b505050506040513d601f19601f820116820180604052508101906147f19190614d7b565b9050806148105760405162461bcd60e51b81526004016107d690615569565b6040516345977d0360e01b81526001600160a01b038616906345977d039061483c908690600401615139565b600060405180830381600087803b15801561485657600080fd5b505af115801561486a573d6000803e3d6000fd5b505050505050505050565b61434781614b4a565b60008161489d5760405162461bcd60e51b81526004016107d690615516565b670de0b6b3a764000083028315806148c55750670de0b6b3a76400008482816148c257fe5b04145b6148e15760405162461bcd60e51b81526004016107d69061530a565b600283048101818110156149075760405162461bcd60e51b81526004016107d69061530a565b600084828161429257fe5b600082820183811015614104576040805162461bcd60e51b815260206004820152601060248201526f4552525f4144445f4f564552464c4f5760801b604482015290519081900360640190fd5b600080828410614975575050808203600061497d565b505081810360015b9250929050565b6142e082308361459c565b306000908152602081905260409020548111156149ea576040805162461bcd60e51b815260206004820152601460248201527311549497d25394d551919250d251539517d0905360621b604482015290519081900360640190fd5b30600090815260208190526040902054614a0490826142e4565b30600090815260208190526040902055600254614a2190826142e4565b60025560408051828152905160009130917fddf252ad1be2c89b69c2b068fc378daa952ba7f163c4a11628f55a4df523b3ef9181900360200190a350565b6142e030838361459c565b6140628383836040516024018080602001846001600160a01b03168152602001838152602001828103825285818151815260200191508051906020019080838360005b83811015614ac5578181015183820152602001614aad565b50505050905090810190601f168015614af25780820380516001836020036101000a031916815260200191505b5060408051601f198184030181529190526020810180516001600160e01b03166307c8121760e01b1790529450614b299350505050565b80516a636f6e736f6c652e6c6f67602083016000808483855afa5050505050565b30600090815260208190526040902054614b649082614912565b30600090815260208190526040902055600254614b819082614912565b60025560408051828152905130916000917fddf252ad1be2c89b69c2b068fc378daa952ba7f163c4a11628f55a4df523b3ef9181900360200190a350565b60008083601f840112614bd0578182fd5b50813567ffffffffffffffff811115614be7578182fd5b60208301915083602082850101111561497d57600080fd5b600060208284031215614c10578081fd5b813561410481615730565b600060208284031215614c2c578081fd5b815161410481615730565b60008060408385031215614c49578081fd5b8235614c5481615730565b91506020830135614c6481615730565b809150509250929050565b600080600060608486031215614c83578081fd5b8335614c8e81615730565b92506020840135614c9e81615730565b929592945050506040919091013590565b60008060408385031215614cc1578182fd5b8235614ccc81615730565b946020939093013593505050565b600080600080600060a08688031215614cf1578081fd5b8535614cfc81615730565b9450602086013593506040860135614d1381615730565b94979396509394606081013594506080013592915050565b600080600060608486031215614d3f578283fd5b8335614d4a81615730565b95602085013595506040909401359392505050565b600060208284031215614d70578081fd5b813561410481615745565b600060208284031215614d8c578081fd5b815161410481615745565b600060208284031215614da8578081fd5b815167ffffffffffffffff80821115614dbf578283fd5b818401915084601f830112614dd2578283fd5b815181811115614dde57fe5b604051601f8201601f191681016020018381118282101715614dfc57fe5b604052818152838201602001871015614e13578485fd5b614e24826020830160208701615700565b9695505050505050565b600080600080600080600060a0888a031215614e48578182fd5b8735614e5381615730565b96506020880135614e6381615730565b955060408801359450606088013567ffffffffffffffff80821115614e86578384fd5b614e928b838c01614bbf565b909650945060808a0135915080821115614eaa578384fd5b50614eb78a828b01614bbf565b989b979a50959850939692959293505050565b600080600080600080600080600060c08a8c031215614ee7578283fd5b8935614ef281615730565b985060208a0135614f0281615730565b975060408a0135965060608a013567ffffffffffffffff80821115614f25578485fd5b614f318d838e01614bbf565b909850965060808c0135915080821115614f49578485fd5b614f558d838e01614bbf565b909650945060a08c0135915080821115614f6d578384fd5b50614f7a8c828d01614bbf565b915080935050809150509295985092959850929598565b600060208284031215614fa2578081fd5b5035919050565b600060208284031215614fba578081fd5b5051919050565b600080600060408486031215614fd5578081fd5b83359250602084013567ffffffffffffffff80821115614ff3578283fd5b818601915086601f830112615006578283fd5b813581811115615014578384fd5b8760208083028501011115615027578384fd5b6020830194508093505050509250925092565b60008284528282602086013780602084860101526020601f19601f85011685010190509392505050565b6000815180845261507c816020860160208601615700565b601f01601f19169290920160200192915050565b6001600160a01b0391909116815260200190565b6001600160a01b039384168152919092166020820152604081019190915260600190565b6001600160a01b03929092168252602082015260400190565b6020808252825182820181905260009190848201906040850190845b818110156151225783516001600160a01b0316835292840192918401916001016150fd565b50909695505050505050565b901515815260200190565b90815260200190565b60006020825261515660208301848661503a565b949350505050565b6000602082526141046020830184615064565b60208082526012908201527122a9292fa727aa2fa1a7a72a2927a62622a960711b604082015260600190565b6020808252600c908201526b11549497d254d7d093d5539160a21b604082015260600190565b6020808252600e908201526d4552525f4d41585f544f4b454e5360901b604082015260600190565b60208082526010908201526f4552525f4d41585f494e5f524154494f60801b604082015260600190565b6020808252600f908201526e08aa4a4be9a82a890be82a0a0a49eb608b1b604082015260600190565b6020808252600b908201526a4552525f4d494e5f46454560a81b604082015260600190565b6020808252600e908201526d11549497d3505617d5d15251d21560921b604082015260600190565b60208082526010908201526f11549497d254d7d1925390531256915160821b604082015260600190565b60208082526014908201527311549497d3505617d513d5105317d5d15251d21560621b604082015260600190565b6020808252600d908201526c11549497d31253525517d3d555609a1b604082015260600190565b60208082526010908201526f11549497d1125597d25395115493905360821b604082015260600190565b6020808252600c908201526b22a9292fa624a6a4aa2fa4a760a11b604082015260600190565b6020808252600b908201526a4552525f5245454e54525960a81b604082015260600190565b6020808252600d908201526c45525220484f5354204f4e4c5960981b604082015260600190565b6020808252601190820152704552525f4d41585f4f55545f524154494f60781b604082015260600190565b6020808252600d908201526c11549497d393d517d093d55391609a1b604082015260600190565b6020808252600b908201526a4552525f4d41585f46454560a81b604082015260600190565b6020808252601390820152724552525f4241445f4c494d49545f505249434560681b604082015260600190565b6020808252600e908201526d11549497d3525397d5d15251d21560921b604082015260600190565b60208082526011908201527011549497d393d517d19253905312569151607a1b604082015260600190565b60208082526010908201526f4552525f4d554c5f4f564552464c4f5760801b604082015260600190565b6020808252600c908201526b11549497d0905117d213d4d560a21b604082015260600190565b6020808252600f908201526e4552525f4c494d49545f505249434560881b604082015260600190565b6020808252600c908201526b4552525f4449565f5a45524f60a01b604082015260600190565b6020808252601390820152724552525f535741505f4e4f545f5055424c494360681b604082015260600190565b6020808252600f908201526e4552525f45524332305f46414c534560881b604082015260600190565b6020808252601190820152704552525f5355425f554e444552464c4f5760781b604082015260600190565b60208082526010908201526f4552525f4144445f4f564552464c4f5760801b604082015260600190565b6020808252600e908201526d4552525f4d494e5f544f4b454e5360901b604082015260600190565b9384526001600160a01b0392909216602080850191909152604080850192909252825115156060808601919091529083015160808501529082015160a0840152015160c082015260e00190565b8581526001600160a01b0385166020820152608060408201819052600090615687908301858761503a565b90508260608301529695505050505050565b918252602082015260400190565b948552602085019390935260408401919091526060830152608082015260a00190565b958652602086019490945260408501929092526060840152608083015260a082015260c00190565b60ff91909116815260200190565b60005b8381101561571b578181015183820152602001615703565b8381111561572a576000848401525b50505050565b6001600160a01b038116811461434757600080fd5b801515811461434757600080fdfe556e737570706f727465642063616c6c6261636b202d20204265666f72652041677265656d656e74205465726d696e617465648c5be1e5ebec7d5bd14f71427d1e84f3dd0314c0f7b2291e5b200ac8c7c3b925556e737570706f727465642063616c6c6261636b202d204265666f72652041677265656d656e742075706461746564556e737570706f727465642063616c6c6261636b202d204265666f72652041677265656d656e742043726561746564a2646970667358221220d022cfd6002e8b7d1ef206427ffcee32930cb99ee6a25d420e72c419d789c5e564736f6c63430007060033a264697066735822122044387a345e355dc5a857a4e85624c77885b2dbc74aa540e7cdb061db3cc90c0664736f6c63430007060033",
  "libraries": {
    "StreamSwapLibrary": "0x4Ca1DE5D4cB83168cbdAf007C185f2B33290e85F"
  },
  "devdoc": {
    "kind": "dev",
    "methods": {},
    "version": 1
  },
  "userdoc": {
    "kind": "user",
    "methods": {},
    "version": 1
  },
  "storageLayout": {
    "storage": [],
    "types": null
  }
}